{
	"contracts/CommitReveal.sol": {
		"CommitReveal": {
			"abi": [
				{
					"inputs": [
						{
							"internalType": "bytes32",
							"name": "hashedChoice",
							"type": "bytes32"
						}
					],
					"name": "commit",
					"outputs": [],
					"stateMutability": "nonpayable",
					"type": "function"
				},
				{
					"inputs": [
						{
							"internalType": "address",
							"name": "",
							"type": "address"
						}
					],
					"name": "commits",
					"outputs": [
						{
							"internalType": "bytes32",
							"name": "commitHash",
							"type": "bytes32"
						},
						{
							"internalType": "bool",
							"name": "revealed",
							"type": "bool"
						}
					],
					"stateMutability": "view",
					"type": "function"
				},
				{
					"inputs": [
						{
							"internalType": "uint256",
							"name": "choice",
							"type": "uint256"
						},
						{
							"internalType": "bytes32",
							"name": "nonce",
							"type": "bytes32"
						}
					],
					"name": "reveal",
					"outputs": [],
					"stateMutability": "nonpayable",
					"type": "function"
				}
			],
			"devdoc": {
				"kind": "dev",
				"methods": {},
				"version": 1
			},
			"evm": {
				"assembly": "    /* \"contracts/CommitReveal.sol\":72:733  contract CommitReveal {... */\n  mstore(0x40, 0x80)\n  callvalue\n  dup1\n  iszero\n  tag_1\n  jumpi\n  0x00\n  dup1\n  revert\ntag_1:\n  pop\n  dataSize(sub_0)\n  dup1\n  dataOffset(sub_0)\n  0x00\n  codecopy\n  0x00\n  return\nstop\n\nsub_0: assembly {\n        /* \"contracts/CommitReveal.sol\":72:733  contract CommitReveal {... */\n      mstore(0x40, 0x80)\n      callvalue\n      dup1\n      iszero\n      tag_1\n      jumpi\n      0x00\n      dup1\n      revert\n    tag_1:\n      pop\n      jumpi(tag_2, lt(calldatasize, 0x04))\n      shr(0xe0, calldataload(0x00))\n      dup1\n      0x4036778f\n      eq\n      tag_3\n      jumpi\n      dup1\n      0x7b43a8e6\n      eq\n      tag_4\n      jumpi\n      dup1\n      0xf14fcbc8\n      eq\n      tag_5\n      jumpi\n    tag_2:\n      0x00\n      dup1\n      revert\n        /* \"contracts/CommitReveal.sol\":400:730  function reveal(uint256 choice, bytes32 nonce) external {... */\n    tag_3:\n      tag_6\n      0x04\n      dup1\n      calldatasize\n      sub\n      dup2\n      add\n      swap1\n      tag_7\n      swap2\n      swap1\n      tag_8\n      jump\t// in\n    tag_7:\n      tag_9\n      jump\t// in\n    tag_6:\n      stop\n        /* \"contracts/CommitReveal.sol\":184:225  mapping(address => Commit) public commits */\n    tag_4:\n      tag_10\n      0x04\n      dup1\n      calldatasize\n      sub\n      dup2\n      add\n      swap1\n      tag_11\n      swap2\n      swap1\n      tag_12\n      jump\t// in\n    tag_11:\n      tag_13\n      jump\t// in\n    tag_10:\n      mload(0x40)\n      tag_14\n      swap3\n      swap2\n      swap1\n      tag_15\n      jump\t// in\n    tag_14:\n      mload(0x40)\n      dup1\n      swap2\n      sub\n      swap1\n      return\n        /* \"contracts/CommitReveal.sol\":234:392  function commit(bytes32 hashedChoice) external {... */\n    tag_5:\n      tag_16\n      0x04\n      dup1\n      calldatasize\n      sub\n      dup2\n      add\n      swap1\n      tag_17\n      swap2\n      swap1\n      tag_18\n      jump\t// in\n    tag_17:\n      tag_19\n      jump\t// in\n    tag_16:\n      stop\n        /* \"contracts/CommitReveal.sol\":400:730  function reveal(uint256 choice, bytes32 nonce) external {... */\n    tag_9:\n        /* \"contracts/CommitReveal.sol\":476:483  commits */\n      0x00\n        /* \"contracts/CommitReveal.sol\":476:495  commits[msg.sender] */\n      dup1\n        /* \"contracts/CommitReveal.sol\":484:494  msg.sender */\n      caller\n        /* \"contracts/CommitReveal.sol\":476:495  commits[msg.sender] */\n      0xffffffffffffffffffffffffffffffffffffffff\n      and\n      0xffffffffffffffffffffffffffffffffffffffff\n      and\n      dup2\n      mstore\n      0x20\n      add\n      swap1\n      dup2\n      mstore\n      0x20\n      add\n      0x00\n      keccak256\n        /* \"contracts/CommitReveal.sol\":476:504  commits[msg.sender].revealed */\n      0x01\n      add\n      0x00\n      swap1\n      sload\n      swap1\n      0x0100\n      exp\n      swap1\n      div\n      0xff\n      and\n        /* \"contracts/CommitReveal.sol\":475:504  !commits[msg.sender].revealed */\n      iszero\n        /* \"contracts/CommitReveal.sol\":467:525  require(!commits[msg.sender].revealed, \"Already revealed\") */\n      tag_21\n      jumpi\n      mload(0x40)\n      0x08c379a000000000000000000000000000000000000000000000000000000000\n      dup2\n      mstore\n      0x04\n      add\n      tag_22\n      swap1\n      tag_23\n      jump\t// in\n    tag_22:\n      mload(0x40)\n      dup1\n      swap2\n      sub\n      swap1\n      revert\n    tag_21:\n        /* \"contracts/CommitReveal.sol\":604:611  commits */\n      0x00\n        /* \"contracts/CommitReveal.sol\":604:623  commits[msg.sender] */\n      dup1\n        /* \"contracts/CommitReveal.sol\":612:622  msg.sender */\n      caller\n        /* \"contracts/CommitReveal.sol\":604:623  commits[msg.sender] */\n      0xffffffffffffffffffffffffffffffffffffffff\n      and\n      0xffffffffffffffffffffffffffffffffffffffff\n      and\n      dup2\n      mstore\n      0x20\n      add\n      swap1\n      dup2\n      mstore\n      0x20\n      add\n      0x00\n      keccak256\n        /* \"contracts/CommitReveal.sol\":604:634  commits[msg.sender].commitHash */\n      0x00\n      add\n      sload\n        /* \"contracts/CommitReveal.sol\":585:591  choice */\n      dup3\n        /* \"contracts/CommitReveal.sol\":593:598  nonce */\n      dup3\n        /* \"contracts/CommitReveal.sol\":568:599  abi.encodePacked(choice, nonce) */\n      add(0x20, mload(0x40))\n      tag_24\n      swap3\n      swap2\n      swap1\n      tag_25\n      jump\t// in\n    tag_24:\n      mload(0x40)\n      0x20\n      dup2\n      dup4\n      sub\n      sub\n      dup2\n      mstore\n      swap1\n      0x40\n      mstore\n        /* \"contracts/CommitReveal.sol\":558:600  keccak256(abi.encodePacked(choice, nonce)) */\n      dup1\n      mload\n      swap1\n      0x20\n      add\n      keccak256\n        /* \"contracts/CommitReveal.sol\":558:634  keccak256(abi.encodePacked(choice, nonce)) == commits[msg.sender].commitHash */\n      eq\n        /* \"contracts/CommitReveal.sol\":536:676  require(... */\n      tag_26\n      jumpi\n      mload(0x40)\n      0x08c379a000000000000000000000000000000000000000000000000000000000\n      dup2\n      mstore\n      0x04\n      add\n      tag_27\n      swap1\n      tag_28\n      jump\t// in\n    tag_27:\n      mload(0x40)\n      dup1\n      swap2\n      sub\n      swap1\n      revert\n    tag_26:\n        /* \"contracts/CommitReveal.sol\":718:722  true */\n      0x01\n        /* \"contracts/CommitReveal.sol\":687:694  commits */\n      0x00\n        /* \"contracts/CommitReveal.sol\":687:706  commits[msg.sender] */\n      dup1\n        /* \"contracts/CommitReveal.sol\":695:705  msg.sender */\n      caller\n        /* \"contracts/CommitReveal.sol\":687:706  commits[msg.sender] */\n      0xffffffffffffffffffffffffffffffffffffffff\n      and\n      0xffffffffffffffffffffffffffffffffffffffff\n      and\n      dup2\n      mstore\n      0x20\n      add\n      swap1\n      dup2\n      mstore\n      0x20\n      add\n      0x00\n      keccak256\n        /* \"contracts/CommitReveal.sol\":687:715  commits[msg.sender].revealed */\n      0x01\n      add\n      0x00\n        /* \"contracts/CommitReveal.sol\":687:722  commits[msg.sender].revealed = true */\n      0x0100\n      exp\n      dup2\n      sload\n      dup2\n      0xff\n      mul\n      not\n      and\n      swap1\n      dup4\n      iszero\n      iszero\n      mul\n      or\n      swap1\n      sstore\n      pop\n        /* \"contracts/CommitReveal.sol\":400:730  function reveal(uint256 choice, bytes32 nonce) external {... */\n      pop\n      pop\n      jump\t// out\n        /* \"contracts/CommitReveal.sol\":184:225  mapping(address => Commit) public commits */\n    tag_13:\n      mstore(0x20, 0x00)\n      dup1\n      0x00\n      mstore\n      keccak256(0x00, 0x40)\n      0x00\n      swap2\n      pop\n      swap1\n      pop\n      dup1\n      0x00\n      add\n      sload\n      swap1\n      dup1\n      0x01\n      add\n      0x00\n      swap1\n      sload\n      swap1\n      0x0100\n      exp\n      swap1\n      div\n      0xff\n      and\n      swap1\n      pop\n      dup3\n      jump\t// out\n        /* \"contracts/CommitReveal.sol\":234:392  function commit(bytes32 hashedChoice) external {... */\n    tag_19:\n        /* \"contracts/CommitReveal.sol\":325:337  hashedChoice */\n      dup1\n        /* \"contracts/CommitReveal.sol\":292:299  commits */\n      0x00\n        /* \"contracts/CommitReveal.sol\":292:311  commits[msg.sender] */\n      dup1\n        /* \"contracts/CommitReveal.sol\":300:310  msg.sender */\n      caller\n        /* \"contracts/CommitReveal.sol\":292:311  commits[msg.sender] */\n      0xffffffffffffffffffffffffffffffffffffffff\n      and\n      0xffffffffffffffffffffffffffffffffffffffff\n      and\n      dup2\n      mstore\n      0x20\n      add\n      swap1\n      dup2\n      mstore\n      0x20\n      add\n      0x00\n      keccak256\n        /* \"contracts/CommitReveal.sol\":292:322  commits[msg.sender].commitHash */\n      0x00\n      add\n        /* \"contracts/CommitReveal.sol\":292:337  commits[msg.sender].commitHash = hashedChoice */\n      dup2\n      swap1\n      sstore\n      pop\n        /* \"contracts/CommitReveal.sol\":379:384  false */\n      0x00\n        /* \"contracts/CommitReveal.sol\":348:355  commits */\n      dup1\n        /* \"contracts/CommitReveal.sol\":348:367  commits[msg.sender] */\n      0x00\n        /* \"contracts/CommitReveal.sol\":356:366  msg.sender */\n      caller\n        /* \"contracts/CommitReveal.sol\":348:367  commits[msg.sender] */\n      0xffffffffffffffffffffffffffffffffffffffff\n      and\n      0xffffffffffffffffffffffffffffffffffffffff\n      and\n      dup2\n      mstore\n      0x20\n      add\n      swap1\n      dup2\n      mstore\n      0x20\n      add\n      0x00\n      keccak256\n        /* \"contracts/CommitReveal.sol\":348:376  commits[msg.sender].revealed */\n      0x01\n      add\n      0x00\n        /* \"contracts/CommitReveal.sol\":348:384  commits[msg.sender].revealed = false */\n      0x0100\n      exp\n      dup2\n      sload\n      dup2\n      0xff\n      mul\n      not\n      and\n      swap1\n      dup4\n      iszero\n      iszero\n      mul\n      or\n      swap1\n      sstore\n      pop\n        /* \"contracts/CommitReveal.sol\":234:392  function commit(bytes32 hashedChoice) external {... */\n      pop\n      jump\t// out\n        /* \"#utility.yul\":88:205   */\n    tag_31:\n        /* \"#utility.yul\":197:198   */\n      0x00\n        /* \"#utility.yul\":194:195   */\n      dup1\n        /* \"#utility.yul\":187:199   */\n      revert\n        /* \"#utility.yul\":334:411   */\n    tag_33:\n        /* \"#utility.yul\":371:378   */\n      0x00\n        /* \"#utility.yul\":400:405   */\n      dup2\n        /* \"#utility.yul\":389:405   */\n      swap1\n      pop\n        /* \"#utility.yul\":334:411   */\n      swap2\n      swap1\n      pop\n      jump\t// out\n        /* \"#utility.yul\":417:539   */\n    tag_34:\n        /* \"#utility.yul\":490:514   */\n      tag_61\n        /* \"#utility.yul\":508:513   */\n      dup2\n        /* \"#utility.yul\":490:514   */\n      tag_33\n      jump\t// in\n    tag_61:\n        /* \"#utility.yul\":483:488   */\n      dup2\n        /* \"#utility.yul\":480:515   */\n      eq\n        /* \"#utility.yul\":470:533   */\n      tag_62\n      jumpi\n        /* \"#utility.yul\":529:530   */\n      0x00\n        /* \"#utility.yul\":526:527   */\n      dup1\n        /* \"#utility.yul\":519:531   */\n      revert\n        /* \"#utility.yul\":470:533   */\n    tag_62:\n        /* \"#utility.yul\":417:539   */\n      pop\n      jump\t// out\n        /* \"#utility.yul\":545:684   */\n    tag_35:\n        /* \"#utility.yul\":591:596   */\n      0x00\n        /* \"#utility.yul\":629:635   */\n      dup2\n        /* \"#utility.yul\":616:636   */\n      calldataload\n        /* \"#utility.yul\":607:636   */\n      swap1\n      pop\n        /* \"#utility.yul\":645:678   */\n      tag_64\n        /* \"#utility.yul\":672:677   */\n      dup2\n        /* \"#utility.yul\":645:678   */\n      tag_34\n      jump\t// in\n    tag_64:\n        /* \"#utility.yul\":545:684   */\n      swap3\n      swap2\n      pop\n      pop\n      jump\t// out\n        /* \"#utility.yul\":690:767   */\n    tag_36:\n        /* \"#utility.yul\":727:734   */\n      0x00\n        /* \"#utility.yul\":756:761   */\n      dup2\n        /* \"#utility.yul\":745:761   */\n      swap1\n      pop\n        /* \"#utility.yul\":690:767   */\n      swap2\n      swap1\n      pop\n      jump\t// out\n        /* \"#utility.yul\":773:895   */\n    tag_37:\n        /* \"#utility.yul\":846:870   */\n      tag_67\n        /* \"#utility.yul\":864:869   */\n      dup2\n        /* \"#utility.yul\":846:870   */\n      tag_36\n      jump\t// in\n    tag_67:\n        /* \"#utility.yul\":839:844   */\n      dup2\n        /* \"#utility.yul\":836:871   */\n      eq\n        /* \"#utility.yul\":826:889   */\n      tag_68\n      jumpi\n        /* \"#utility.yul\":885:886   */\n      0x00\n        /* \"#utility.yul\":882:883   */\n      dup1\n        /* \"#utility.yul\":875:887   */\n      revert\n        /* \"#utility.yul\":826:889   */\n    tag_68:\n        /* \"#utility.yul\":773:895   */\n      pop\n      jump\t// out\n        /* \"#utility.yul\":901:1040   */\n    tag_38:\n        /* \"#utility.yul\":947:952   */\n      0x00\n        /* \"#utility.yul\":985:991   */\n      dup2\n        /* \"#utility.yul\":972:992   */\n      calldataload\n        /* \"#utility.yul\":963:992   */\n      swap1\n      pop\n        /* \"#utility.yul\":1001:1034   */\n      tag_70\n        /* \"#utility.yul\":1028:1033   */\n      dup2\n        /* \"#utility.yul\":1001:1034   */\n      tag_37\n      jump\t// in\n    tag_70:\n        /* \"#utility.yul\":901:1040   */\n      swap3\n      swap2\n      pop\n      pop\n      jump\t// out\n        /* \"#utility.yul\":1046:1520   */\n    tag_8:\n        /* \"#utility.yul\":1114:1120   */\n      0x00\n        /* \"#utility.yul\":1122:1128   */\n      dup1\n        /* \"#utility.yul\":1171:1173   */\n      0x40\n        /* \"#utility.yul\":1159:1168   */\n      dup4\n        /* \"#utility.yul\":1150:1157   */\n      dup6\n        /* \"#utility.yul\":1146:1169   */\n      sub\n        /* \"#utility.yul\":1142:1174   */\n      slt\n        /* \"#utility.yul\":1139:1258   */\n      iszero\n      tag_72\n      jumpi\n        /* \"#utility.yul\":1177:1256   */\n      tag_73\n      tag_31\n      jump\t// in\n    tag_73:\n        /* \"#utility.yul\":1139:1258   */\n    tag_72:\n        /* \"#utility.yul\":1297:1298   */\n      0x00\n        /* \"#utility.yul\":1322:1375   */\n      tag_74\n        /* \"#utility.yul\":1367:1374   */\n      dup6\n        /* \"#utility.yul\":1358:1364   */\n      dup3\n        /* \"#utility.yul\":1347:1356   */\n      dup7\n        /* \"#utility.yul\":1343:1365   */\n      add\n        /* \"#utility.yul\":1322:1375   */\n      tag_35\n      jump\t// in\n    tag_74:\n        /* \"#utility.yul\":1312:1375   */\n      swap3\n      pop\n        /* \"#utility.yul\":1268:1385   */\n      pop\n        /* \"#utility.yul\":1424:1426   */\n      0x20\n        /* \"#utility.yul\":1450:1503   */\n      tag_75\n        /* \"#utility.yul\":1495:1502   */\n      dup6\n        /* \"#utility.yul\":1486:1492   */\n      dup3\n        /* \"#utility.yul\":1475:1484   */\n      dup7\n        /* \"#utility.yul\":1471:1493   */\n      add\n        /* \"#utility.yul\":1450:1503   */\n      tag_38\n      jump\t// in\n    tag_75:\n        /* \"#utility.yul\":1440:1503   */\n      swap2\n      pop\n        /* \"#utility.yul\":1395:1513   */\n      pop\n        /* \"#utility.yul\":1046:1520   */\n      swap3\n      pop\n      swap3\n      swap1\n      pop\n      jump\t// out\n        /* \"#utility.yul\":1526:1652   */\n    tag_39:\n        /* \"#utility.yul\":1563:1570   */\n      0x00\n        /* \"#utility.yul\":1603:1645   */\n      0xffffffffffffffffffffffffffffffffffffffff\n        /* \"#utility.yul\":1596:1601   */\n      dup3\n        /* \"#utility.yul\":1592:1646   */\n      and\n        /* \"#utility.yul\":1581:1646   */\n      swap1\n      pop\n        /* \"#utility.yul\":1526:1652   */\n      swap2\n      swap1\n      pop\n      jump\t// out\n        /* \"#utility.yul\":1658:1754   */\n    tag_40:\n        /* \"#utility.yul\":1695:1702   */\n      0x00\n        /* \"#utility.yul\":1724:1748   */\n      tag_78\n        /* \"#utility.yul\":1742:1747   */\n      dup3\n        /* \"#utility.yul\":1724:1748   */\n      tag_39\n      jump\t// in\n    tag_78:\n        /* \"#utility.yul\":1713:1748   */\n      swap1\n      pop\n        /* \"#utility.yul\":1658:1754   */\n      swap2\n      swap1\n      pop\n      jump\t// out\n        /* \"#utility.yul\":1760:1882   */\n    tag_41:\n        /* \"#utility.yul\":1833:1857   */\n      tag_80\n        /* \"#utility.yul\":1851:1856   */\n      dup2\n        /* \"#utility.yul\":1833:1857   */\n      tag_40\n      jump\t// in\n    tag_80:\n        /* \"#utility.yul\":1826:1831   */\n      dup2\n        /* \"#utility.yul\":1823:1858   */\n      eq\n        /* \"#utility.yul\":1813:1876   */\n      tag_81\n      jumpi\n        /* \"#utility.yul\":1872:1873   */\n      0x00\n        /* \"#utility.yul\":1869:1870   */\n      dup1\n        /* \"#utility.yul\":1862:1874   */\n      revert\n        /* \"#utility.yul\":1813:1876   */\n    tag_81:\n        /* \"#utility.yul\":1760:1882   */\n      pop\n      jump\t// out\n        /* \"#utility.yul\":1888:2027   */\n    tag_42:\n        /* \"#utility.yul\":1934:1939   */\n      0x00\n        /* \"#utility.yul\":1972:1978   */\n      dup2\n        /* \"#utility.yul\":1959:1979   */\n      calldataload\n        /* \"#utility.yul\":1950:1979   */\n      swap1\n      pop\n        /* \"#utility.yul\":1988:2021   */\n      tag_83\n        /* \"#utility.yul\":2015:2020   */\n      dup2\n        /* \"#utility.yul\":1988:2021   */\n      tag_41\n      jump\t// in\n    tag_83:\n        /* \"#utility.yul\":1888:2027   */\n      swap3\n      swap2\n      pop\n      pop\n      jump\t// out\n        /* \"#utility.yul\":2033:2362   */\n    tag_12:\n        /* \"#utility.yul\":2092:2098   */\n      0x00\n        /* \"#utility.yul\":2141:2143   */\n      0x20\n        /* \"#utility.yul\":2129:2138   */\n      dup3\n        /* \"#utility.yul\":2120:2127   */\n      dup5\n        /* \"#utility.yul\":2116:2139   */\n      sub\n        /* \"#utility.yul\":2112:2144   */\n      slt\n        /* \"#utility.yul\":2109:2228   */\n      iszero\n      tag_85\n      jumpi\n        /* \"#utility.yul\":2147:2226   */\n      tag_86\n      tag_31\n      jump\t// in\n    tag_86:\n        /* \"#utility.yul\":2109:2228   */\n    tag_85:\n        /* \"#utility.yul\":2267:2268   */\n      0x00\n        /* \"#utility.yul\":2292:2345   */\n      tag_87\n        /* \"#utility.yul\":2337:2344   */\n      dup5\n        /* \"#utility.yul\":2328:2334   */\n      dup3\n        /* \"#utility.yul\":2317:2326   */\n      dup6\n        /* \"#utility.yul\":2313:2335   */\n      add\n        /* \"#utility.yul\":2292:2345   */\n      tag_42\n      jump\t// in\n    tag_87:\n        /* \"#utility.yul\":2282:2345   */\n      swap2\n      pop\n        /* \"#utility.yul\":2238:2355   */\n      pop\n        /* \"#utility.yul\":2033:2362   */\n      swap3\n      swap2\n      pop\n      pop\n      jump\t// out\n        /* \"#utility.yul\":2368:2486   */\n    tag_43:\n        /* \"#utility.yul\":2455:2479   */\n      tag_89\n        /* \"#utility.yul\":2473:2478   */\n      dup2\n        /* \"#utility.yul\":2455:2479   */\n      tag_36\n      jump\t// in\n    tag_89:\n        /* \"#utility.yul\":2450:2453   */\n      dup3\n        /* \"#utility.yul\":2443:2480   */\n      mstore\n        /* \"#utility.yul\":2368:2486   */\n      pop\n      pop\n      jump\t// out\n        /* \"#utility.yul\":2492:2582   */\n    tag_44:\n        /* \"#utility.yul\":2526:2533   */\n      0x00\n        /* \"#utility.yul\":2569:2574   */\n      dup2\n        /* \"#utility.yul\":2562:2575   */\n      iszero\n        /* \"#utility.yul\":2555:2576   */\n      iszero\n        /* \"#utility.yul\":2544:2576   */\n      swap1\n      pop\n        /* \"#utility.yul\":2492:2582   */\n      swap2\n      swap1\n      pop\n      jump\t// out\n        /* \"#utility.yul\":2588:2697   */\n    tag_45:\n        /* \"#utility.yul\":2669:2690   */\n      tag_92\n        /* \"#utility.yul\":2684:2689   */\n      dup2\n        /* \"#utility.yul\":2669:2690   */\n      tag_44\n      jump\t// in\n    tag_92:\n        /* \"#utility.yul\":2664:2667   */\n      dup3\n        /* \"#utility.yul\":2657:2691   */\n      mstore\n        /* \"#utility.yul\":2588:2697   */\n      pop\n      pop\n      jump\t// out\n        /* \"#utility.yul\":2703:3023   */\n    tag_15:\n        /* \"#utility.yul\":2818:2822   */\n      0x00\n        /* \"#utility.yul\":2856:2858   */\n      0x40\n        /* \"#utility.yul\":2845:2854   */\n      dup3\n        /* \"#utility.yul\":2841:2859   */\n      add\n        /* \"#utility.yul\":2833:2859   */\n      swap1\n      pop\n        /* \"#utility.yul\":2869:2940   */\n      tag_94\n        /* \"#utility.yul\":2937:2938   */\n      0x00\n        /* \"#utility.yul\":2926:2935   */\n      dup4\n        /* \"#utility.yul\":2922:2939   */\n      add\n        /* \"#utility.yul\":2913:2919   */\n      dup6\n        /* \"#utility.yul\":2869:2940   */\n      tag_43\n      jump\t// in\n    tag_94:\n        /* \"#utility.yul\":2950:3016   */\n      tag_95\n        /* \"#utility.yul\":3012:3014   */\n      0x20\n        /* \"#utility.yul\":3001:3010   */\n      dup4\n        /* \"#utility.yul\":2997:3015   */\n      add\n        /* \"#utility.yul\":2988:2994   */\n      dup5\n        /* \"#utility.yul\":2950:3016   */\n      tag_45\n      jump\t// in\n    tag_95:\n        /* \"#utility.yul\":2703:3023   */\n      swap4\n      swap3\n      pop\n      pop\n      pop\n      jump\t// out\n        /* \"#utility.yul\":3029:3358   */\n    tag_18:\n        /* \"#utility.yul\":3088:3094   */\n      0x00\n        /* \"#utility.yul\":3137:3139   */\n      0x20\n        /* \"#utility.yul\":3125:3134   */\n      dup3\n        /* \"#utility.yul\":3116:3123   */\n      dup5\n        /* \"#utility.yul\":3112:3135   */\n      sub\n        /* \"#utility.yul\":3108:3140   */\n      slt\n        /* \"#utility.yul\":3105:3224   */\n      iszero\n      tag_97\n      jumpi\n        /* \"#utility.yul\":3143:3222   */\n      tag_98\n      tag_31\n      jump\t// in\n    tag_98:\n        /* \"#utility.yul\":3105:3224   */\n    tag_97:\n        /* \"#utility.yul\":3263:3264   */\n      0x00\n        /* \"#utility.yul\":3288:3341   */\n      tag_99\n        /* \"#utility.yul\":3333:3340   */\n      dup5\n        /* \"#utility.yul\":3324:3330   */\n      dup3\n        /* \"#utility.yul\":3313:3322   */\n      dup6\n        /* \"#utility.yul\":3309:3331   */\n      add\n        /* \"#utility.yul\":3288:3341   */\n      tag_38\n      jump\t// in\n    tag_99:\n        /* \"#utility.yul\":3278:3341   */\n      swap2\n      pop\n        /* \"#utility.yul\":3234:3351   */\n      pop\n        /* \"#utility.yul\":3029:3358   */\n      swap3\n      swap2\n      pop\n      pop\n      jump\t// out\n        /* \"#utility.yul\":3364:3533   */\n    tag_46:\n        /* \"#utility.yul\":3448:3459   */\n      0x00\n        /* \"#utility.yul\":3482:3488   */\n      dup3\n        /* \"#utility.yul\":3477:3480   */\n      dup3\n        /* \"#utility.yul\":3470:3489   */\n      mstore\n        /* \"#utility.yul\":3522:3526   */\n      0x20\n        /* \"#utility.yul\":3517:3520   */\n      dup3\n        /* \"#utility.yul\":3513:3527   */\n      add\n        /* \"#utility.yul\":3498:3527   */\n      swap1\n      pop\n        /* \"#utility.yul\":3364:3533   */\n      swap3\n      swap2\n      pop\n      pop\n      jump\t// out\n        /* \"#utility.yul\":3539:3705   */\n    tag_47:\n        /* \"#utility.yul\":3679:3697   */\n      0x416c72656164792072657665616c656400000000000000000000000000000000\n        /* \"#utility.yul\":3675:3676   */\n      0x00\n        /* \"#utility.yul\":3667:3673   */\n      dup3\n        /* \"#utility.yul\":3663:3677   */\n      add\n        /* \"#utility.yul\":3656:3698   */\n      mstore\n        /* \"#utility.yul\":3539:3705   */\n      pop\n      jump\t// out\n        /* \"#utility.yul\":3711:4077   */\n    tag_48:\n        /* \"#utility.yul\":3853:3856   */\n      0x00\n        /* \"#utility.yul\":3874:3941   */\n      tag_103\n        /* \"#utility.yul\":3938:3940   */\n      0x10\n        /* \"#utility.yul\":3933:3936   */\n      dup4\n        /* \"#utility.yul\":3874:3941   */\n      tag_46\n      jump\t// in\n    tag_103:\n        /* \"#utility.yul\":3867:3941   */\n      swap2\n      pop\n        /* \"#utility.yul\":3950:4043   */\n      tag_104\n        /* \"#utility.yul\":4039:4042   */\n      dup3\n        /* \"#utility.yul\":3950:4043   */\n      tag_47\n      jump\t// in\n    tag_104:\n        /* \"#utility.yul\":4068:4070   */\n      0x20\n        /* \"#utility.yul\":4063:4066   */\n      dup3\n        /* \"#utility.yul\":4059:4071   */\n      add\n        /* \"#utility.yul\":4052:4071   */\n      swap1\n      pop\n        /* \"#utility.yul\":3711:4077   */\n      swap2\n      swap1\n      pop\n      jump\t// out\n        /* \"#utility.yul\":4083:4502   */\n    tag_23:\n        /* \"#utility.yul\":4249:4253   */\n      0x00\n        /* \"#utility.yul\":4287:4289   */\n      0x20\n        /* \"#utility.yul\":4276:4285   */\n      dup3\n        /* \"#utility.yul\":4272:4290   */\n      add\n        /* \"#utility.yul\":4264:4290   */\n      swap1\n      pop\n        /* \"#utility.yul\":4336:4345   */\n      dup2\n        /* \"#utility.yul\":4330:4334   */\n      dup2\n        /* \"#utility.yul\":4326:4346   */\n      sub\n        /* \"#utility.yul\":4322:4323   */\n      0x00\n        /* \"#utility.yul\":4311:4320   */\n      dup4\n        /* \"#utility.yul\":4307:4324   */\n      add\n        /* \"#utility.yul\":4300:4347   */\n      mstore\n        /* \"#utility.yul\":4364:4495   */\n      tag_106\n        /* \"#utility.yul\":4490:4494   */\n      dup2\n        /* \"#utility.yul\":4364:4495   */\n      tag_48\n      jump\t// in\n    tag_106:\n        /* \"#utility.yul\":4356:4495   */\n      swap1\n      pop\n        /* \"#utility.yul\":4083:4502   */\n      swap2\n      swap1\n      pop\n      jump\t// out\n        /* \"#utility.yul\":4508:4587   */\n    tag_49:\n        /* \"#utility.yul\":4547:4554   */\n      0x00\n        /* \"#utility.yul\":4576:4581   */\n      dup2\n        /* \"#utility.yul\":4565:4581   */\n      swap1\n      pop\n        /* \"#utility.yul\":4508:4587   */\n      swap2\n      swap1\n      pop\n      jump\t// out\n        /* \"#utility.yul\":4593:4750   */\n    tag_50:\n        /* \"#utility.yul\":4698:4743   */\n      tag_109\n        /* \"#utility.yul\":4718:4742   */\n      tag_110\n        /* \"#utility.yul\":4736:4741   */\n      dup3\n        /* \"#utility.yul\":4718:4742   */\n      tag_33\n      jump\t// in\n    tag_110:\n        /* \"#utility.yul\":4698:4743   */\n      tag_49\n      jump\t// in\n    tag_109:\n        /* \"#utility.yul\":4693:4696   */\n      dup3\n        /* \"#utility.yul\":4686:4744   */\n      mstore\n        /* \"#utility.yul\":4593:4750   */\n      pop\n      pop\n      jump\t// out\n        /* \"#utility.yul\":4756:4835   */\n    tag_51:\n        /* \"#utility.yul\":4795:4802   */\n      0x00\n        /* \"#utility.yul\":4824:4829   */\n      dup2\n        /* \"#utility.yul\":4813:4829   */\n      swap1\n      pop\n        /* \"#utility.yul\":4756:4835   */\n      swap2\n      swap1\n      pop\n      jump\t// out\n        /* \"#utility.yul\":4841:4998   */\n    tag_52:\n        /* \"#utility.yul\":4946:4991   */\n      tag_113\n        /* \"#utility.yul\":4966:4990   */\n      tag_114\n        /* \"#utility.yul\":4984:4989   */\n      dup3\n        /* \"#utility.yul\":4966:4990   */\n      tag_36\n      jump\t// in\n    tag_114:\n        /* \"#utility.yul\":4946:4991   */\n      tag_51\n      jump\t// in\n    tag_113:\n        /* \"#utility.yul\":4941:4944   */\n      dup3\n        /* \"#utility.yul\":4934:4992   */\n      mstore\n        /* \"#utility.yul\":4841:4998   */\n      pop\n      pop\n      jump\t// out\n        /* \"#utility.yul\":5004:5401   */\n    tag_25:\n        /* \"#utility.yul\":5144:5147   */\n      0x00\n        /* \"#utility.yul\":5159:5234   */\n      tag_116\n        /* \"#utility.yul\":5230:5233   */\n      dup3\n        /* \"#utility.yul\":5221:5227   */\n      dup6\n        /* \"#utility.yul\":5159:5234   */\n      tag_50\n      jump\t// in\n    tag_116:\n        /* \"#utility.yul\":5259:5261   */\n      0x20\n        /* \"#utility.yul\":5254:5257   */\n      dup3\n        /* \"#utility.yul\":5250:5262   */\n      add\n        /* \"#utility.yul\":5243:5262   */\n      swap2\n      pop\n        /* \"#utility.yul\":5272:5347   */\n      tag_117\n        /* \"#utility.yul\":5343:5346   */\n      dup3\n        /* \"#utility.yul\":5334:5340   */\n      dup5\n        /* \"#utility.yul\":5272:5347   */\n      tag_52\n      jump\t// in\n    tag_117:\n        /* \"#utility.yul\":5372:5374   */\n      0x20\n        /* \"#utility.yul\":5367:5370   */\n      dup3\n        /* \"#utility.yul\":5363:5375   */\n      add\n        /* \"#utility.yul\":5356:5375   */\n      swap2\n      pop\n        /* \"#utility.yul\":5392:5395   */\n      dup2\n        /* \"#utility.yul\":5385:5395   */\n      swap1\n      pop\n        /* \"#utility.yul\":5004:5401   */\n      swap4\n      swap3\n      pop\n      pop\n      pop\n      jump\t// out\n        /* \"#utility.yul\":5407:5571   */\n    tag_53:\n        /* \"#utility.yul\":5547:5563   */\n      0x496e76616c69642072657665616c000000000000000000000000000000000000\n        /* \"#utility.yul\":5543:5544   */\n      0x00\n        /* \"#utility.yul\":5535:5541   */\n      dup3\n        /* \"#utility.yul\":5531:5545   */\n      add\n        /* \"#utility.yul\":5524:5564   */\n      mstore\n        /* \"#utility.yul\":5407:5571   */\n      pop\n      jump\t// out\n        /* \"#utility.yul\":5577:5943   */\n    tag_54:\n        /* \"#utility.yul\":5719:5722   */\n      0x00\n        /* \"#utility.yul\":5740:5807   */\n      tag_120\n        /* \"#utility.yul\":5804:5806   */\n      0x0e\n        /* \"#utility.yul\":5799:5802   */\n      dup4\n        /* \"#utility.yul\":5740:5807   */\n      tag_46\n      jump\t// in\n    tag_120:\n        /* \"#utility.yul\":5733:5807   */\n      swap2\n      pop\n        /* \"#utility.yul\":5816:5909   */\n      tag_121\n        /* \"#utility.yul\":5905:5908   */\n      dup3\n        /* \"#utility.yul\":5816:5909   */\n      tag_53\n      jump\t// in\n    tag_121:\n        /* \"#utility.yul\":5934:5936   */\n      0x20\n        /* \"#utility.yul\":5929:5932   */\n      dup3\n        /* \"#utility.yul\":5925:5937   */\n      add\n        /* \"#utility.yul\":5918:5937   */\n      swap1\n      pop\n        /* \"#utility.yul\":5577:5943   */\n      swap2\n      swap1\n      pop\n      jump\t// out\n        /* \"#utility.yul\":5949:6368   */\n    tag_28:\n        /* \"#utility.yul\":6115:6119   */\n      0x00\n        /* \"#utility.yul\":6153:6155   */\n      0x20\n        /* \"#utility.yul\":6142:6151   */\n      dup3\n        /* \"#utility.yul\":6138:6156   */\n      add\n        /* \"#utility.yul\":6130:6156   */\n      swap1\n      pop\n        /* \"#utility.yul\":6202:6211   */\n      dup2\n        /* \"#utility.yul\":6196:6200   */\n      dup2\n        /* \"#utility.yul\":6192:6212   */\n      sub\n        /* \"#utility.yul\":6188:6189   */\n      0x00\n        /* \"#utility.yul\":6177:6186   */\n      dup4\n        /* \"#utility.yul\":6173:6190   */\n      add\n        /* \"#utility.yul\":6166:6213   */\n      mstore\n        /* \"#utility.yul\":6230:6361   */\n      tag_123\n        /* \"#utility.yul\":6356:6360   */\n      dup2\n        /* \"#utility.yul\":6230:6361   */\n      tag_54\n      jump\t// in\n    tag_123:\n        /* \"#utility.yul\":6222:6361   */\n      swap1\n      pop\n        /* \"#utility.yul\":5949:6368   */\n      swap2\n      swap1\n      pop\n      jump\t// out\n\n    auxdata: 0xa2646970667358221220e30b5f269ffa64319c77e33c09f3f1001434d17d4a60099e664f1c37afe5be4464736f6c634300081a0033\n}\n",
				"bytecode": {
					"linkReferences": {},
					"object": "6080604052348015600e575f80fd5b5061062b8061001c5f395ff3fe608060405234801561000f575f80fd5b506004361061003f575f3560e01c80634036778f146100435780637b43a8e61461005f578063f14fcbc814610090575b5f80fd5b61005d6004803603810190610058919061036c565b6100ac565b005b61007960048036038101906100749190610404565b61023b565b604051610087929190610458565b60405180910390f35b6100aa60048036038101906100a5919061047f565b610266565b005b5f803373ffffffffffffffffffffffffffffffffffffffff1673ffffffffffffffffffffffffffffffffffffffff1681526020019081526020015f206001015f9054906101000a900460ff1615610138576040517f08c379a000000000000000000000000000000000000000000000000000000000815260040161012f90610504565b60405180910390fd5b5f803373ffffffffffffffffffffffffffffffffffffffff1673ffffffffffffffffffffffffffffffffffffffff1681526020019081526020015f205f0154828260405160200161018a929190610562565b60405160208183030381529060405280519060200120146101e0576040517f08c379a00000000000000000000000000000000000000000000000000000000081526004016101d7906105d7565b60405180910390fd5b60015f803373ffffffffffffffffffffffffffffffffffffffff1673ffffffffffffffffffffffffffffffffffffffff1681526020019081526020015f206001015f6101000a81548160ff0219169083151502179055505050565b5f602052805f5260405f205f91509050805f015490806001015f9054906101000a900460ff16905082565b805f803373ffffffffffffffffffffffffffffffffffffffff1673ffffffffffffffffffffffffffffffffffffffff1681526020019081526020015f205f01819055505f805f3373ffffffffffffffffffffffffffffffffffffffff1673ffffffffffffffffffffffffffffffffffffffff1681526020019081526020015f206001015f6101000a81548160ff02191690831515021790555050565b5f80fd5b5f819050919050565b61031881610306565b8114610322575f80fd5b50565b5f813590506103338161030f565b92915050565b5f819050919050565b61034b81610339565b8114610355575f80fd5b50565b5f8135905061036681610342565b92915050565b5f806040838503121561038257610381610302565b5b5f61038f85828601610325565b92505060206103a085828601610358565b9150509250929050565b5f73ffffffffffffffffffffffffffffffffffffffff82169050919050565b5f6103d3826103aa565b9050919050565b6103e3816103c9565b81146103ed575f80fd5b50565b5f813590506103fe816103da565b92915050565b5f6020828403121561041957610418610302565b5b5f610426848285016103f0565b91505092915050565b61043881610339565b82525050565b5f8115159050919050565b6104528161043e565b82525050565b5f60408201905061046b5f83018561042f565b6104786020830184610449565b9392505050565b5f6020828403121561049457610493610302565b5b5f6104a184828501610358565b91505092915050565b5f82825260208201905092915050565b7f416c72656164792072657665616c6564000000000000000000000000000000005f82015250565b5f6104ee6010836104aa565b91506104f9826104ba565b602082019050919050565b5f6020820190508181035f83015261051b816104e2565b9050919050565b5f819050919050565b61053c61053782610306565b610522565b82525050565b5f819050919050565b61055c61055782610339565b610542565b82525050565b5f61056d828561052b565b60208201915061057d828461054b565b6020820191508190509392505050565b7f496e76616c69642072657665616c0000000000000000000000000000000000005f82015250565b5f6105c1600e836104aa565b91506105cc8261058d565b602082019050919050565b5f6020820190508181035f8301526105ee816105b5565b905091905056fea2646970667358221220e30b5f269ffa64319c77e33c09f3f1001434d17d4a60099e664f1c37afe5be4464736f6c634300081a0033",
					"opcodes": "PUSH1 0x80 PUSH1 0x40 MSTORE CALLVALUE DUP1 ISZERO PUSH1 0xE JUMPI PUSH0 DUP1 REVERT JUMPDEST POP PUSH2 0x62B DUP1 PUSH2 0x1C PUSH0 CODECOPY PUSH0 RETURN INVALID PUSH1 0x80 PUSH1 0x40 MSTORE CALLVALUE DUP1 ISZERO PUSH2 0xF JUMPI PUSH0 DUP1 REVERT JUMPDEST POP PUSH1 0x4 CALLDATASIZE LT PUSH2 0x3F JUMPI PUSH0 CALLDATALOAD PUSH1 0xE0 SHR DUP1 PUSH4 0x4036778F EQ PUSH2 0x43 JUMPI DUP1 PUSH4 0x7B43A8E6 EQ PUSH2 0x5F JUMPI DUP1 PUSH4 0xF14FCBC8 EQ PUSH2 0x90 JUMPI JUMPDEST PUSH0 DUP1 REVERT JUMPDEST PUSH2 0x5D PUSH1 0x4 DUP1 CALLDATASIZE SUB DUP2 ADD SWAP1 PUSH2 0x58 SWAP2 SWAP1 PUSH2 0x36C JUMP JUMPDEST PUSH2 0xAC JUMP JUMPDEST STOP JUMPDEST PUSH2 0x79 PUSH1 0x4 DUP1 CALLDATASIZE SUB DUP2 ADD SWAP1 PUSH2 0x74 SWAP2 SWAP1 PUSH2 0x404 JUMP JUMPDEST PUSH2 0x23B JUMP JUMPDEST PUSH1 0x40 MLOAD PUSH2 0x87 SWAP3 SWAP2 SWAP1 PUSH2 0x458 JUMP JUMPDEST PUSH1 0x40 MLOAD DUP1 SWAP2 SUB SWAP1 RETURN JUMPDEST PUSH2 0xAA PUSH1 0x4 DUP1 CALLDATASIZE SUB DUP2 ADD SWAP1 PUSH2 0xA5 SWAP2 SWAP1 PUSH2 0x47F JUMP JUMPDEST PUSH2 0x266 JUMP JUMPDEST STOP JUMPDEST PUSH0 DUP1 CALLER PUSH20 0xFFFFFFFFFFFFFFFFFFFFFFFFFFFFFFFFFFFFFFFF AND PUSH20 0xFFFFFFFFFFFFFFFFFFFFFFFFFFFFFFFFFFFFFFFF AND DUP2 MSTORE PUSH1 0x20 ADD SWAP1 DUP2 MSTORE PUSH1 0x20 ADD PUSH0 KECCAK256 PUSH1 0x1 ADD PUSH0 SWAP1 SLOAD SWAP1 PUSH2 0x100 EXP SWAP1 DIV PUSH1 0xFF AND ISZERO PUSH2 0x138 JUMPI PUSH1 0x40 MLOAD PUSH32 0x8C379A000000000000000000000000000000000000000000000000000000000 DUP2 MSTORE PUSH1 0x4 ADD PUSH2 0x12F SWAP1 PUSH2 0x504 JUMP JUMPDEST PUSH1 0x40 MLOAD DUP1 SWAP2 SUB SWAP1 REVERT JUMPDEST PUSH0 DUP1 CALLER PUSH20 0xFFFFFFFFFFFFFFFFFFFFFFFFFFFFFFFFFFFFFFFF AND PUSH20 0xFFFFFFFFFFFFFFFFFFFFFFFFFFFFFFFFFFFFFFFF AND DUP2 MSTORE PUSH1 0x20 ADD SWAP1 DUP2 MSTORE PUSH1 0x20 ADD PUSH0 KECCAK256 PUSH0 ADD SLOAD DUP3 DUP3 PUSH1 0x40 MLOAD PUSH1 0x20 ADD PUSH2 0x18A SWAP3 SWAP2 SWAP1 PUSH2 0x562 JUMP JUMPDEST PUSH1 0x40 MLOAD PUSH1 0x20 DUP2 DUP4 SUB SUB DUP2 MSTORE SWAP1 PUSH1 0x40 MSTORE DUP1 MLOAD SWAP1 PUSH1 0x20 ADD KECCAK256 EQ PUSH2 0x1E0 JUMPI PUSH1 0x40 MLOAD PUSH32 0x8C379A000000000000000000000000000000000000000000000000000000000 DUP2 MSTORE PUSH1 0x4 ADD PUSH2 0x1D7 SWAP1 PUSH2 0x5D7 JUMP JUMPDEST PUSH1 0x40 MLOAD DUP1 SWAP2 SUB SWAP1 REVERT JUMPDEST PUSH1 0x1 PUSH0 DUP1 CALLER PUSH20 0xFFFFFFFFFFFFFFFFFFFFFFFFFFFFFFFFFFFFFFFF AND PUSH20 0xFFFFFFFFFFFFFFFFFFFFFFFFFFFFFFFFFFFFFFFF AND DUP2 MSTORE PUSH1 0x20 ADD SWAP1 DUP2 MSTORE PUSH1 0x20 ADD PUSH0 KECCAK256 PUSH1 0x1 ADD PUSH0 PUSH2 0x100 EXP DUP2 SLOAD DUP2 PUSH1 0xFF MUL NOT AND SWAP1 DUP4 ISZERO ISZERO MUL OR SWAP1 SSTORE POP POP POP JUMP JUMPDEST PUSH0 PUSH1 0x20 MSTORE DUP1 PUSH0 MSTORE PUSH1 0x40 PUSH0 KECCAK256 PUSH0 SWAP2 POP SWAP1 POP DUP1 PUSH0 ADD SLOAD SWAP1 DUP1 PUSH1 0x1 ADD PUSH0 SWAP1 SLOAD SWAP1 PUSH2 0x100 EXP SWAP1 DIV PUSH1 0xFF AND SWAP1 POP DUP3 JUMP JUMPDEST DUP1 PUSH0 DUP1 CALLER PUSH20 0xFFFFFFFFFFFFFFFFFFFFFFFFFFFFFFFFFFFFFFFF AND PUSH20 0xFFFFFFFFFFFFFFFFFFFFFFFFFFFFFFFFFFFFFFFF AND DUP2 MSTORE PUSH1 0x20 ADD SWAP1 DUP2 MSTORE PUSH1 0x20 ADD PUSH0 KECCAK256 PUSH0 ADD DUP2 SWAP1 SSTORE POP PUSH0 DUP1 PUSH0 CALLER PUSH20 0xFFFFFFFFFFFFFFFFFFFFFFFFFFFFFFFFFFFFFFFF AND PUSH20 0xFFFFFFFFFFFFFFFFFFFFFFFFFFFFFFFFFFFFFFFF AND DUP2 MSTORE PUSH1 0x20 ADD SWAP1 DUP2 MSTORE PUSH1 0x20 ADD PUSH0 KECCAK256 PUSH1 0x1 ADD PUSH0 PUSH2 0x100 EXP DUP2 SLOAD DUP2 PUSH1 0xFF MUL NOT AND SWAP1 DUP4 ISZERO ISZERO MUL OR SWAP1 SSTORE POP POP JUMP JUMPDEST PUSH0 DUP1 REVERT JUMPDEST PUSH0 DUP2 SWAP1 POP SWAP2 SWAP1 POP JUMP JUMPDEST PUSH2 0x318 DUP2 PUSH2 0x306 JUMP JUMPDEST DUP2 EQ PUSH2 0x322 JUMPI PUSH0 DUP1 REVERT JUMPDEST POP JUMP JUMPDEST PUSH0 DUP2 CALLDATALOAD SWAP1 POP PUSH2 0x333 DUP2 PUSH2 0x30F JUMP JUMPDEST SWAP3 SWAP2 POP POP JUMP JUMPDEST PUSH0 DUP2 SWAP1 POP SWAP2 SWAP1 POP JUMP JUMPDEST PUSH2 0x34B DUP2 PUSH2 0x339 JUMP JUMPDEST DUP2 EQ PUSH2 0x355 JUMPI PUSH0 DUP1 REVERT JUMPDEST POP JUMP JUMPDEST PUSH0 DUP2 CALLDATALOAD SWAP1 POP PUSH2 0x366 DUP2 PUSH2 0x342 JUMP JUMPDEST SWAP3 SWAP2 POP POP JUMP JUMPDEST PUSH0 DUP1 PUSH1 0x40 DUP4 DUP6 SUB SLT ISZERO PUSH2 0x382 JUMPI PUSH2 0x381 PUSH2 0x302 JUMP JUMPDEST JUMPDEST PUSH0 PUSH2 0x38F DUP6 DUP3 DUP7 ADD PUSH2 0x325 JUMP JUMPDEST SWAP3 POP POP PUSH1 0x20 PUSH2 0x3A0 DUP6 DUP3 DUP7 ADD PUSH2 0x358 JUMP JUMPDEST SWAP2 POP POP SWAP3 POP SWAP3 SWAP1 POP JUMP JUMPDEST PUSH0 PUSH20 0xFFFFFFFFFFFFFFFFFFFFFFFFFFFFFFFFFFFFFFFF DUP3 AND SWAP1 POP SWAP2 SWAP1 POP JUMP JUMPDEST PUSH0 PUSH2 0x3D3 DUP3 PUSH2 0x3AA JUMP JUMPDEST SWAP1 POP SWAP2 SWAP1 POP JUMP JUMPDEST PUSH2 0x3E3 DUP2 PUSH2 0x3C9 JUMP JUMPDEST DUP2 EQ PUSH2 0x3ED JUMPI PUSH0 DUP1 REVERT JUMPDEST POP JUMP JUMPDEST PUSH0 DUP2 CALLDATALOAD SWAP1 POP PUSH2 0x3FE DUP2 PUSH2 0x3DA JUMP JUMPDEST SWAP3 SWAP2 POP POP JUMP JUMPDEST PUSH0 PUSH1 0x20 DUP3 DUP5 SUB SLT ISZERO PUSH2 0x419 JUMPI PUSH2 0x418 PUSH2 0x302 JUMP JUMPDEST JUMPDEST PUSH0 PUSH2 0x426 DUP5 DUP3 DUP6 ADD PUSH2 0x3F0 JUMP JUMPDEST SWAP2 POP POP SWAP3 SWAP2 POP POP JUMP JUMPDEST PUSH2 0x438 DUP2 PUSH2 0x339 JUMP JUMPDEST DUP3 MSTORE POP POP JUMP JUMPDEST PUSH0 DUP2 ISZERO ISZERO SWAP1 POP SWAP2 SWAP1 POP JUMP JUMPDEST PUSH2 0x452 DUP2 PUSH2 0x43E JUMP JUMPDEST DUP3 MSTORE POP POP JUMP JUMPDEST PUSH0 PUSH1 0x40 DUP3 ADD SWAP1 POP PUSH2 0x46B PUSH0 DUP4 ADD DUP6 PUSH2 0x42F JUMP JUMPDEST PUSH2 0x478 PUSH1 0x20 DUP4 ADD DUP5 PUSH2 0x449 JUMP JUMPDEST SWAP4 SWAP3 POP POP POP JUMP JUMPDEST PUSH0 PUSH1 0x20 DUP3 DUP5 SUB SLT ISZERO PUSH2 0x494 JUMPI PUSH2 0x493 PUSH2 0x302 JUMP JUMPDEST JUMPDEST PUSH0 PUSH2 0x4A1 DUP5 DUP3 DUP6 ADD PUSH2 0x358 JUMP JUMPDEST SWAP2 POP POP SWAP3 SWAP2 POP POP JUMP JUMPDEST PUSH0 DUP3 DUP3 MSTORE PUSH1 0x20 DUP3 ADD SWAP1 POP SWAP3 SWAP2 POP POP JUMP JUMPDEST PUSH32 0x416C72656164792072657665616C656400000000000000000000000000000000 PUSH0 DUP3 ADD MSTORE POP JUMP JUMPDEST PUSH0 PUSH2 0x4EE PUSH1 0x10 DUP4 PUSH2 0x4AA JUMP JUMPDEST SWAP2 POP PUSH2 0x4F9 DUP3 PUSH2 0x4BA JUMP JUMPDEST PUSH1 0x20 DUP3 ADD SWAP1 POP SWAP2 SWAP1 POP JUMP JUMPDEST PUSH0 PUSH1 0x20 DUP3 ADD SWAP1 POP DUP2 DUP2 SUB PUSH0 DUP4 ADD MSTORE PUSH2 0x51B DUP2 PUSH2 0x4E2 JUMP JUMPDEST SWAP1 POP SWAP2 SWAP1 POP JUMP JUMPDEST PUSH0 DUP2 SWAP1 POP SWAP2 SWAP1 POP JUMP JUMPDEST PUSH2 0x53C PUSH2 0x537 DUP3 PUSH2 0x306 JUMP JUMPDEST PUSH2 0x522 JUMP JUMPDEST DUP3 MSTORE POP POP JUMP JUMPDEST PUSH0 DUP2 SWAP1 POP SWAP2 SWAP1 POP JUMP JUMPDEST PUSH2 0x55C PUSH2 0x557 DUP3 PUSH2 0x339 JUMP JUMPDEST PUSH2 0x542 JUMP JUMPDEST DUP3 MSTORE POP POP JUMP JUMPDEST PUSH0 PUSH2 0x56D DUP3 DUP6 PUSH2 0x52B JUMP JUMPDEST PUSH1 0x20 DUP3 ADD SWAP2 POP PUSH2 0x57D DUP3 DUP5 PUSH2 0x54B JUMP JUMPDEST PUSH1 0x20 DUP3 ADD SWAP2 POP DUP2 SWAP1 POP SWAP4 SWAP3 POP POP POP JUMP JUMPDEST PUSH32 0x496E76616C69642072657665616C000000000000000000000000000000000000 PUSH0 DUP3 ADD MSTORE POP JUMP JUMPDEST PUSH0 PUSH2 0x5C1 PUSH1 0xE DUP4 PUSH2 0x4AA JUMP JUMPDEST SWAP2 POP PUSH2 0x5CC DUP3 PUSH2 0x58D JUMP JUMPDEST PUSH1 0x20 DUP3 ADD SWAP1 POP SWAP2 SWAP1 POP JUMP JUMPDEST PUSH0 PUSH1 0x20 DUP3 ADD SWAP1 POP DUP2 DUP2 SUB PUSH0 DUP4 ADD MSTORE PUSH2 0x5EE DUP2 PUSH2 0x5B5 JUMP JUMPDEST SWAP1 POP SWAP2 SWAP1 POP JUMP INVALID LOG2 PUSH5 0x6970667358 0x22 SLT KECCAK256 0xE3 SIGNEXTEND PUSH0 0x26 SWAP16 STATICCALL PUSH5 0x319C77E33C MULMOD RETURN CALL STOP EQ CALLVALUE 0xD1 PUSH30 0x4A60099E664F1C37AFE5BE4464736F6C634300081A003300000000000000 "
				},
				"gasEstimates": {
					"creation": {
						"codeDepositCost": "315800",
						"executionCost": "353",
						"totalCost": "316153"
					},
					"external": {
						"commit(bytes32)": "46987",
						"commits(address)": "5066",
						"reveal(uint256,bytes32)": "infinite"
					}
				},
				"methodIdentifiers": {
					"commit(bytes32)": "f14fcbc8",
					"commits(address)": "7b43a8e6",
					"reveal(uint256,bytes32)": "4036778f"
				}
			},
			"storageLayout": {
				"storage": [
					{
						"astId": 11,
						"contract": "contracts/CommitReveal.sol:CommitReveal",
						"label": "commits",
						"offset": 0,
						"slot": "0",
						"type": "t_mapping(t_address,t_struct(Commit)6_storage)"
					}
				],
				"types": {
					"t_address": {
						"encoding": "inplace",
						"label": "address",
						"numberOfBytes": "20"
					},
					"t_bool": {
						"encoding": "inplace",
						"label": "bool",
						"numberOfBytes": "1"
					},
					"t_bytes32": {
						"encoding": "inplace",
						"label": "bytes32",
						"numberOfBytes": "32"
					},
					"t_mapping(t_address,t_struct(Commit)6_storage)": {
						"encoding": "mapping",
						"key": "t_address",
						"label": "mapping(address => struct CommitReveal.Commit)",
						"numberOfBytes": "32",
						"value": "t_struct(Commit)6_storage"
					},
					"t_struct(Commit)6_storage": {
						"encoding": "inplace",
						"label": "struct CommitReveal.Commit",
						"members": [
							{
								"astId": 3,
								"contract": "contracts/CommitReveal.sol:CommitReveal",
								"label": "commitHash",
								"offset": 0,
								"slot": "0",
								"type": "t_bytes32"
							},
							{
								"astId": 5,
								"contract": "contracts/CommitReveal.sol:CommitReveal",
								"label": "revealed",
								"offset": 0,
								"slot": "1",
								"type": "t_bool"
							}
						],
						"numberOfBytes": "64"
					}
				}
			},
			"userdoc": {
				"kind": "user",
				"methods": {},
				"version": 1
			}
		}
	}
}