{
	"contracts/RPSLS.sol": {
		"RPSLS": {
			"abi": [
				{
					"inputs": [
						{
							"internalType": "address",
							"name": "_commitReveal",
							"type": "address"
						}
					],
					"stateMutability": "nonpayable",
					"type": "constructor"
				},
				{
					"anonymous": false,
					"inputs": [
						{
							"indexed": true,
							"internalType": "address",
							"name": "player",
							"type": "address"
						}
					],
					"name": "Committed",
					"type": "event"
				},
				{
					"anonymous": false,
					"inputs": [
						{
							"indexed": true,
							"internalType": "address",
							"name": "player",
							"type": "address"
						}
					],
					"name": "GameStarted",
					"type": "event"
				},
				{
					"anonymous": false,
					"inputs": [
						{
							"indexed": true,
							"internalType": "address",
							"name": "player",
							"type": "address"
						}
					],
					"name": "Revealed",
					"type": "event"
				},
				{
					"anonymous": false,
					"inputs": [
						{
							"indexed": true,
							"internalType": "address",
							"name": "caller",
							"type": "address"
						}
					],
					"name": "Timeout",
					"type": "event"
				},
				{
					"anonymous": false,
					"inputs": [
						{
							"indexed": true,
							"internalType": "address",
							"name": "winner",
							"type": "address"
						}
					],
					"name": "Winner",
					"type": "event"
				},
				{
					"inputs": [
						{
							"internalType": "address",
							"name": "",
							"type": "address"
						}
					],
					"name": "allowedPlayers",
					"outputs": [
						{
							"internalType": "bool",
							"name": "",
							"type": "bool"
						}
					],
					"stateMutability": "view",
					"type": "function"
				},
				{
					"inputs": [],
					"name": "commitReveal",
					"outputs": [
						{
							"internalType": "contract CommitReveal",
							"name": "",
							"type": "address"
						}
					],
					"stateMutability": "view",
					"type": "function"
				},
				{
					"inputs": [],
					"name": "currentGame",
					"outputs": [
						{
							"internalType": "uint256",
							"name": "stake",
							"type": "uint256"
						},
						{
							"internalType": "uint256",
							"name": "commitDeadline",
							"type": "uint256"
						},
						{
							"internalType": "uint256",
							"name": "revealDeadline",
							"type": "uint256"
						}
					],
					"stateMutability": "view",
					"type": "function"
				},
				{
					"inputs": [],
					"name": "elapsedMinutes",
					"outputs": [
						{
							"internalType": "uint256",
							"name": "",
							"type": "uint256"
						}
					],
					"stateMutability": "view",
					"type": "function"
				},
				{
					"inputs": [],
					"name": "elapsedSeconds",
					"outputs": [
						{
							"internalType": "uint256",
							"name": "",
							"type": "uint256"
						}
					],
					"stateMutability": "view",
					"type": "function"
				},
				{
					"inputs": [],
					"name": "gameState",
					"outputs": [
						{
							"internalType": "enum RPSLS.GameState",
							"name": "",
							"type": "uint8"
						}
					],
					"stateMutability": "view",
					"type": "function"
				},
				{
					"inputs": [
						{
							"internalType": "bytes32",
							"name": "commitHash",
							"type": "bytes32"
						}
					],
					"name": "joinGame",
					"outputs": [],
					"stateMutability": "payable",
					"type": "function"
				},
				{
					"inputs": [
						{
							"internalType": "uint256",
							"name": "choice",
							"type": "uint256"
						},
						{
							"internalType": "bytes32",
							"name": "nonce",
							"type": "bytes32"
						}
					],
					"name": "revealChoice",
					"outputs": [],
					"stateMutability": "nonpayable",
					"type": "function"
				},
				{
					"inputs": [],
					"name": "setStartTime",
					"outputs": [],
					"stateMutability": "nonpayable",
					"type": "function"
				},
				{
					"inputs": [],
					"name": "startTime",
					"outputs": [
						{
							"internalType": "uint256",
							"name": "",
							"type": "uint256"
						}
					],
					"stateMutability": "view",
					"type": "function"
				},
				{
					"inputs": [],
					"name": "withdrawTimeout",
					"outputs": [],
					"stateMutability": "nonpayable",
					"type": "function"
				}
			],
			"devdoc": {
				"kind": "dev",
				"methods": {},
				"version": 1
			},
			"evm": {
				"assembly": "    /* \"contracts/RPSLS.sol\":155:4967  contract RPSLS is TimeUnit {... */\n  mstore(0x40, 0x80)\n    /* \"contracts/RPSLS.sol\":885:1285  constructor(address _commitReveal) {... */\n  callvalue\n  dup1\n  iszero\n  tag_1\n  jumpi\n  0x00\n  dup1\n  revert\ntag_1:\n  pop\n  mload(0x40)\n  sub(codesize, bytecodeSize)\n  dup1\n  bytecodeSize\n  dup4\n  codecopy\n  dup2\n  dup2\n  add\n  0x40\n  mstore\n  dup2\n  add\n  swap1\n  tag_2\n  swap2\n  swap1\n  tag_3\n  jump\t// in\ntag_2:\n    /* \"contracts/RPSLS.sol\":959:972  _commitReveal */\n  dup1\n    /* \"contracts/RPSLS.sol\":931:943  commitReveal */\n  0x01\n  0x00\n    /* \"contracts/RPSLS.sol\":931:973  commitReveal = CommitReveal(_commitReveal) */\n  0x0100\n  exp\n  dup2\n  sload\n  dup2\n  0xffffffffffffffffffffffffffffffffffffffff\n  mul\n  not\n  and\n  swap1\n  dup4\n  0xffffffffffffffffffffffffffffffffffffffff\n  and\n  mul\n  or\n  swap1\n  sstore\n  pop\n    /* \"contracts/RPSLS.sol\":1045:1049  true */\n  0x01\n    /* \"contracts/RPSLS.sol\":984:998  allowedPlayers */\n  0x0c\n    /* \"contracts/RPSLS.sol\":984:1042  allowedPlayers[0x5B38Da6a701c568545dCfcB03FcB875f56beddC4] */\n  0x00\n    /* \"contracts/RPSLS.sol\":999:1041  0x5B38Da6a701c568545dCfcB03FcB875f56beddC4 */\n  0x5b38da6a701c568545dcfcb03fcb875f56beddc4\n    /* \"contracts/RPSLS.sol\":984:1042  allowedPlayers[0x5B38Da6a701c568545dCfcB03FcB875f56beddC4] */\n  0xffffffffffffffffffffffffffffffffffffffff\n  and\n  0xffffffffffffffffffffffffffffffffffffffff\n  and\n  dup2\n  mstore\n  0x20\n  add\n  swap1\n  dup2\n  mstore\n  0x20\n  add\n  0x00\n  keccak256\n  0x00\n    /* \"contracts/RPSLS.sol\":984:1049  allowedPlayers[0x5B38Da6a701c568545dCfcB03FcB875f56beddC4] = true */\n  0x0100\n  exp\n  dup2\n  sload\n  dup2\n  0xff\n  mul\n  not\n  and\n  swap1\n  dup4\n  iszero\n  iszero\n  mul\n  or\n  swap1\n  sstore\n  pop\n    /* \"contracts/RPSLS.sol\":1121:1125  true */\n  0x01\n    /* \"contracts/RPSLS.sol\":1060:1074  allowedPlayers */\n  0x0c\n    /* \"contracts/RPSLS.sol\":1060:1118  allowedPlayers[0xAb8483F64d9C6d1EcF9b849Ae677dD3315835cb2] */\n  0x00\n    /* \"contracts/RPSLS.sol\":1075:1117  0xAb8483F64d9C6d1EcF9b849Ae677dD3315835cb2 */\n  0xab8483f64d9c6d1ecf9b849ae677dd3315835cb2\n    /* \"contracts/RPSLS.sol\":1060:1118  allowedPlayers[0xAb8483F64d9C6d1EcF9b849Ae677dD3315835cb2] */\n  0xffffffffffffffffffffffffffffffffffffffff\n  and\n  0xffffffffffffffffffffffffffffffffffffffff\n  and\n  dup2\n  mstore\n  0x20\n  add\n  swap1\n  dup2\n  mstore\n  0x20\n  add\n  0x00\n  keccak256\n  0x00\n    /* \"contracts/RPSLS.sol\":1060:1125  allowedPlayers[0xAb8483F64d9C6d1EcF9b849Ae677dD3315835cb2] = true */\n  0x0100\n  exp\n  dup2\n  sload\n  dup2\n  0xff\n  mul\n  not\n  and\n  swap1\n  dup4\n  iszero\n  iszero\n  mul\n  or\n  swap1\n  sstore\n  pop\n    /* \"contracts/RPSLS.sol\":1197:1201  true */\n  0x01\n    /* \"contracts/RPSLS.sol\":1136:1150  allowedPlayers */\n  0x0c\n    /* \"contracts/RPSLS.sol\":1136:1194  allowedPlayers[0x4B20993Bc481177ec7E8f571ceCaE8A9e22C02db] */\n  0x00\n    /* \"contracts/RPSLS.sol\":1151:1193  0x4B20993Bc481177ec7E8f571ceCaE8A9e22C02db */\n  0x4b20993bc481177ec7e8f571cecae8a9e22c02db\n    /* \"contracts/RPSLS.sol\":1136:1194  allowedPlayers[0x4B20993Bc481177ec7E8f571ceCaE8A9e22C02db] */\n  0xffffffffffffffffffffffffffffffffffffffff\n  and\n  0xffffffffffffffffffffffffffffffffffffffff\n  and\n  dup2\n  mstore\n  0x20\n  add\n  swap1\n  dup2\n  mstore\n  0x20\n  add\n  0x00\n  keccak256\n  0x00\n    /* \"contracts/RPSLS.sol\":1136:1201  allowedPlayers[0x4B20993Bc481177ec7E8f571ceCaE8A9e22C02db] = true */\n  0x0100\n  exp\n  dup2\n  sload\n  dup2\n  0xff\n  mul\n  not\n  and\n  swap1\n  dup4\n  iszero\n  iszero\n  mul\n  or\n  swap1\n  sstore\n  pop\n    /* \"contracts/RPSLS.sol\":1273:1277  true */\n  0x01\n    /* \"contracts/RPSLS.sol\":1212:1226  allowedPlayers */\n  0x0c\n    /* \"contracts/RPSLS.sol\":1212:1270  allowedPlayers[0x78731D3Ca6b7E34aC0F824c42a7cC18A495cabaB] */\n  0x00\n    /* \"contracts/RPSLS.sol\":1227:1269  0x78731D3Ca6b7E34aC0F824c42a7cC18A495cabaB */\n  0x78731d3ca6b7e34ac0f824c42a7cc18a495cabab\n    /* \"contracts/RPSLS.sol\":1212:1270  allowedPlayers[0x78731D3Ca6b7E34aC0F824c42a7cC18A495cabaB] */\n  0xffffffffffffffffffffffffffffffffffffffff\n  and\n  0xffffffffffffffffffffffffffffffffffffffff\n  and\n  dup2\n  mstore\n  0x20\n  add\n  swap1\n  dup2\n  mstore\n  0x20\n  add\n  0x00\n  keccak256\n  0x00\n    /* \"contracts/RPSLS.sol\":1212:1277  allowedPlayers[0x78731D3Ca6b7E34aC0F824c42a7cC18A495cabaB] = true */\n  0x0100\n  exp\n  dup2\n  sload\n  dup2\n  0xff\n  mul\n  not\n  and\n  swap1\n  dup4\n  iszero\n  iszero\n  mul\n  or\n  swap1\n  sstore\n  pop\n    /* \"contracts/RPSLS.sol\":885:1285  constructor(address _commitReveal) {... */\n  pop\n    /* \"contracts/RPSLS.sol\":155:4967  contract RPSLS is TimeUnit {... */\n  jump(tag_6)\n    /* \"#utility.yul\":88:205   */\ntag_8:\n    /* \"#utility.yul\":197:198   */\n  0x00\n    /* \"#utility.yul\":194:195   */\n  dup1\n    /* \"#utility.yul\":187:199   */\n  revert\n    /* \"#utility.yul\":334:460   */\ntag_10:\n    /* \"#utility.yul\":371:378   */\n  0x00\n    /* \"#utility.yul\":411:453   */\n  0xffffffffffffffffffffffffffffffffffffffff\n    /* \"#utility.yul\":404:409   */\n  dup3\n    /* \"#utility.yul\":400:454   */\n  and\n    /* \"#utility.yul\":389:454   */\n  swap1\n  pop\n    /* \"#utility.yul\":334:460   */\n  swap2\n  swap1\n  pop\n  jump\t// out\n    /* \"#utility.yul\":466:562   */\ntag_11:\n    /* \"#utility.yul\":503:510   */\n  0x00\n    /* \"#utility.yul\":532:556   */\n  tag_20\n    /* \"#utility.yul\":550:555   */\n  dup3\n    /* \"#utility.yul\":532:556   */\n  tag_10\n  jump\t// in\ntag_20:\n    /* \"#utility.yul\":521:556   */\n  swap1\n  pop\n    /* \"#utility.yul\":466:562   */\n  swap2\n  swap1\n  pop\n  jump\t// out\n    /* \"#utility.yul\":568:690   */\ntag_12:\n    /* \"#utility.yul\":641:665   */\n  tag_22\n    /* \"#utility.yul\":659:664   */\n  dup2\n    /* \"#utility.yul\":641:665   */\n  tag_11\n  jump\t// in\ntag_22:\n    /* \"#utility.yul\":634:639   */\n  dup2\n    /* \"#utility.yul\":631:666   */\n  eq\n    /* \"#utility.yul\":621:684   */\n  tag_23\n  jumpi\n    /* \"#utility.yul\":680:681   */\n  0x00\n    /* \"#utility.yul\":677:678   */\n  dup1\n    /* \"#utility.yul\":670:682   */\n  revert\n    /* \"#utility.yul\":621:684   */\ntag_23:\n    /* \"#utility.yul\":568:690   */\n  pop\n  jump\t// out\n    /* \"#utility.yul\":696:839   */\ntag_13:\n    /* \"#utility.yul\":753:758   */\n  0x00\n    /* \"#utility.yul\":784:790   */\n  dup2\n    /* \"#utility.yul\":778:791   */\n  mload\n    /* \"#utility.yul\":769:791   */\n  swap1\n  pop\n    /* \"#utility.yul\":800:833   */\n  tag_25\n    /* \"#utility.yul\":827:832   */\n  dup2\n    /* \"#utility.yul\":800:833   */\n  tag_12\n  jump\t// in\ntag_25:\n    /* \"#utility.yul\":696:839   */\n  swap3\n  swap2\n  pop\n  pop\n  jump\t// out\n    /* \"#utility.yul\":845:1196   */\ntag_3:\n    /* \"#utility.yul\":915:921   */\n  0x00\n    /* \"#utility.yul\":964:966   */\n  0x20\n    /* \"#utility.yul\":952:961   */\n  dup3\n    /* \"#utility.yul\":943:950   */\n  dup5\n    /* \"#utility.yul\":939:962   */\n  sub\n    /* \"#utility.yul\":935:967   */\n  slt\n    /* \"#utility.yul\":932:1051   */\n  iszero\n  tag_27\n  jumpi\n    /* \"#utility.yul\":970:1049   */\n  tag_28\n  tag_8\n  jump\t// in\ntag_28:\n    /* \"#utility.yul\":932:1051   */\ntag_27:\n    /* \"#utility.yul\":1090:1091   */\n  0x00\n    /* \"#utility.yul\":1115:1179   */\n  tag_29\n    /* \"#utility.yul\":1171:1178   */\n  dup5\n    /* \"#utility.yul\":1162:1168   */\n  dup3\n    /* \"#utility.yul\":1151:1160   */\n  dup6\n    /* \"#utility.yul\":1147:1169   */\n  add\n    /* \"#utility.yul\":1115:1179   */\n  tag_13\n  jump\t// in\ntag_29:\n    /* \"#utility.yul\":1105:1179   */\n  swap2\n  pop\n    /* \"#utility.yul\":1061:1189   */\n  pop\n    /* \"#utility.yul\":845:1196   */\n  swap3\n  swap2\n  pop\n  pop\n  jump\t// out\n    /* \"contracts/RPSLS.sol\":155:4967  contract RPSLS is TimeUnit {... */\ntag_6:\n  dataSize(sub_0)\n  dup1\n  dataOffset(sub_0)\n  0x00\n  codecopy\n  0x00\n  return\nstop\n\nsub_0: assembly {\n        /* \"contracts/RPSLS.sol\":155:4967  contract RPSLS is TimeUnit {... */\n      mstore(0x40, 0x80)\n      jumpi(tag_1, lt(calldatasize, 0x04))\n      shr(0xe0, calldataload(0x00))\n      dup1\n      0xa63f7c53\n      gt\n      tag_13\n      jumpi\n      dup1\n      0xa63f7c53\n      eq\n      tag_7\n      jumpi\n      dup1\n      0xbc06b8cd\n      eq\n      tag_8\n      jumpi\n      dup1\n      0xbf474766\n      eq\n      tag_9\n      jumpi\n      dup1\n      0xd1f9c24d\n      eq\n      tag_10\n      jumpi\n      dup1\n      0xd97c8416\n      eq\n      tag_11\n      jumpi\n      dup1\n      0xe84ebc29\n      eq\n      tag_12\n      jumpi\n      jump(tag_1)\n    tag_13:\n      dup1\n      0x60b663bb\n      eq\n      tag_2\n      jumpi\n      dup1\n      0x78e97925\n      eq\n      tag_3\n      jumpi\n      dup1\n      0x8c10bb96\n      eq\n      tag_4\n      jumpi\n      dup1\n      0x9c15d1a2\n      eq\n      tag_5\n      jumpi\n      dup1\n      0x9d7b3f2d\n      eq\n      tag_6\n      jumpi\n    tag_1:\n      0x00\n      dup1\n      revert\n        /* \"contracts/RPSLS.sol\":568:591  Game public currentGame */\n    tag_2:\n      callvalue\n      dup1\n      iszero\n      tag_14\n      jumpi\n      0x00\n      dup1\n      revert\n    tag_14:\n      pop\n      tag_15\n      tag_16\n      jump\t// in\n    tag_15:\n      mload(0x40)\n      tag_17\n      swap4\n      swap3\n      swap2\n      swap1\n      tag_18\n      jump\t// in\n    tag_17:\n      mload(0x40)\n      dup1\n      swap2\n      sub\n      swap1\n      return\n        /* \"contracts/TimeUnit.sol\":307:331  uint256 public startTime */\n    tag_3:\n      callvalue\n      dup1\n      iszero\n      tag_19\n      jumpi\n      0x00\n      dup1\n      revert\n    tag_19:\n      pop\n      tag_20\n      tag_21\n      jump\t// in\n    tag_20:\n      mload(0x40)\n      tag_22\n      swap2\n      swap1\n      tag_23\n      jump\t// in\n    tag_22:\n      mload(0x40)\n      dup1\n      swap2\n      sub\n      swap1\n      return\n        /* \"contracts/RPSLS.sol\":2338:3123  function revealChoice(uint256 choice, bytes32 nonce) external {... */\n    tag_4:\n      callvalue\n      dup1\n      iszero\n      tag_24\n      jumpi\n      0x00\n      dup1\n      revert\n    tag_24:\n      pop\n      tag_25\n      0x04\n      dup1\n      calldatasize\n      sub\n      dup2\n      add\n      swap1\n      tag_26\n      swap2\n      swap1\n      tag_27\n      jump\t// in\n    tag_26:\n      tag_28\n      jump\t// in\n    tag_25:\n      stop\n        /* \"contracts/RPSLS.sol\":3935:4848  function withdrawTimeout() external {... */\n    tag_5:\n      callvalue\n      dup1\n      iszero\n      tag_29\n      jumpi\n      0x00\n      dup1\n      revert\n    tag_29:\n      pop\n      tag_30\n      tag_31\n      jump\t// in\n    tag_30:\n      stop\n        /* \"contracts/RPSLS.sol\":189:221  CommitReveal public commitReveal */\n    tag_6:\n      callvalue\n      dup1\n      iszero\n      tag_32\n      jumpi\n      0x00\n      dup1\n      revert\n    tag_32:\n      pop\n      tag_33\n      tag_34\n      jump\t// in\n    tag_33:\n      mload(0x40)\n      tag_35\n      swap2\n      swap1\n      tag_36\n      jump\t// in\n    tag_35:\n      mload(0x40)\n      dup1\n      swap2\n      sub\n      swap1\n      return\n        /* \"contracts/TimeUnit.sol\":379:452  function setStartTime() public { ... */\n    tag_7:\n      callvalue\n      dup1\n      iszero\n      tag_37\n      jumpi\n      0x00\n      dup1\n      revert\n    tag_37:\n      pop\n      tag_38\n      tag_39\n      jump\t// in\n    tag_38:\n      stop\n        /* \"contracts/TimeUnit.sol\":576:683  function elapsedSeconds() public view returns (uint256) { ... */\n    tag_8:\n      callvalue\n      dup1\n      iszero\n      tag_40\n      jumpi\n      0x00\n      dup1\n      revert\n    tag_40:\n      pop\n      tag_41\n      tag_42\n      jump\t// in\n    tag_41:\n      mload(0x40)\n      tag_43\n      swap2\n      swap1\n      tag_23\n      jump\t// in\n    tag_43:\n      mload(0x40)\n      dup1\n      swap2\n      sub\n      swap1\n      return\n        /* \"contracts/RPSLS.sol\":1413:2330  function joinGame(bytes32 commitHash) external payable onlyAllowed {... */\n    tag_9:\n      tag_44\n      0x04\n      dup1\n      calldatasize\n      sub\n      dup2\n      add\n      swap1\n      tag_45\n      swap2\n      swap1\n      tag_46\n      jump\t// in\n    tag_45:\n      tag_47\n      jump\t// in\n    tag_44:\n      stop\n        /* \"contracts/RPSLS.sol\":293:319  GameState public gameState */\n    tag_10:\n      callvalue\n      dup1\n      iszero\n      tag_48\n      jumpi\n      0x00\n      dup1\n      revert\n    tag_48:\n      pop\n      tag_49\n      tag_50\n      jump\t// in\n    tag_49:\n      mload(0x40)\n      tag_51\n      swap2\n      swap1\n      tag_52\n      jump\t// in\n    tag_51:\n      mload(0x40)\n      dup1\n      swap2\n      sub\n      swap1\n      return\n        /* \"contracts/TimeUnit.sol\":799:1082  function elapsedMinutes() public view returns (uint256) { ... */\n    tag_11:\n      callvalue\n      dup1\n      iszero\n      tag_53\n      jumpi\n      0x00\n      dup1\n      revert\n    tag_53:\n      pop\n      tag_54\n      tag_55\n      jump\t// in\n    tag_54:\n      mload(0x40)\n      tag_56\n      swap2\n      swap1\n      tag_23\n      jump\t// in\n    tag_56:\n      mload(0x40)\n      dup1\n      swap2\n      sub\n      swap1\n      return\n        /* \"contracts/RPSLS.sol\":598:644  mapping(address => bool) public allowedPlayers */\n    tag_12:\n      callvalue\n      dup1\n      iszero\n      tag_57\n      jumpi\n      0x00\n      dup1\n      revert\n    tag_57:\n      pop\n      tag_58\n      0x04\n      dup1\n      calldatasize\n      sub\n      dup2\n      add\n      swap1\n      tag_59\n      swap2\n      swap1\n      tag_60\n      jump\t// in\n    tag_59:\n      tag_61\n      jump\t// in\n    tag_58:\n      mload(0x40)\n      tag_62\n      swap2\n      swap1\n      tag_63\n      jump\t// in\n    tag_62:\n      mload(0x40)\n      dup1\n      swap2\n      sub\n      swap1\n      return\n        /* \"contracts/RPSLS.sol\":568:591  Game public currentGame */\n    tag_16:\n      0x02\n      dup1\n      0x06\n      add\n      sload\n      swap1\n      dup1\n      0x07\n      add\n      sload\n      swap1\n      dup1\n      0x08\n      add\n      sload\n      swap1\n      pop\n      dup4\n      jump\t// out\n        /* \"contracts/TimeUnit.sol\":307:331  uint256 public startTime */\n    tag_21:\n      sload(0x00)\n      dup2\n      jump\t// out\n        /* \"contracts/RPSLS.sol\":2338:3123  function revealChoice(uint256 choice, bytes32 nonce) external {... */\n    tag_28:\n        /* \"contracts/RPSLS.sol\":2432:2453  GameState.RevealPhase */\n      0x02\n        /* \"contracts/RPSLS.sol\":2419:2453  gameState == GameState.RevealPhase */\n      dup1\n      dup2\n      gt\n      iszero\n      tag_65\n      jumpi\n      tag_66\n      tag_67\n      jump\t// in\n    tag_66:\n    tag_65:\n        /* \"contracts/RPSLS.sol\":2419:2428  gameState */\n      0x01\n      0x14\n      swap1\n      sload\n      swap1\n      0x0100\n      exp\n      swap1\n      div\n      0xff\n      and\n        /* \"contracts/RPSLS.sol\":2419:2453  gameState == GameState.RevealPhase */\n      0x02\n      dup2\n      gt\n      iszero\n      tag_68\n      jumpi\n      tag_69\n      tag_67\n      jump\t// in\n    tag_69:\n    tag_68:\n      eq\n        /* \"contracts/RPSLS.sol\":2411:2477  require(gameState == GameState.RevealPhase, \"Not in reveal phase\") */\n      tag_70\n      jumpi\n      mload(0x40)\n      0x08c379a000000000000000000000000000000000000000000000000000000000\n      dup2\n      mstore\n      0x04\n      add\n      tag_71\n      swap1\n      tag_72\n      jump\t// in\n    tag_71:\n      mload(0x40)\n      dup1\n      swap2\n      sub\n      swap1\n      revert\n    tag_70:\n        /* \"contracts/RPSLS.sol\":2505:2506  5 */\n      0x05\n        /* \"contracts/RPSLS.sol\":2496:2502  choice */\n      dup3\n        /* \"contracts/RPSLS.sol\":2496:2506  choice < 5 */\n      lt\n        /* \"contracts/RPSLS.sol\":2488:2525  require(choice < 5, \"Invalid choice\") */\n      tag_73\n      jumpi\n      mload(0x40)\n      0x08c379a000000000000000000000000000000000000000000000000000000000\n      dup2\n      mstore\n      0x04\n      add\n      tag_74\n      swap1\n      tag_75\n      jump\t// in\n    tag_74:\n      mload(0x40)\n      dup1\n      swap2\n      sub\n      swap1\n      revert\n    tag_73:\n        /* \"contracts/RPSLS.sol\":2546:2565  uint256 playerIndex */\n      0x00\n        /* \"contracts/RPSLS.sol\":2594:2604  msg.sender */\n      caller\n        /* \"contracts/RPSLS.sol\":2568:2604  currentGame.players[0] == msg.sender */\n      0xffffffffffffffffffffffffffffffffffffffff\n      and\n        /* \"contracts/RPSLS.sol\":2568:2579  currentGame */\n      0x02\n        /* \"contracts/RPSLS.sol\":2568:2587  currentGame.players */\n      0x00\n      add\n        /* \"contracts/RPSLS.sol\":2588:2589  0 */\n      0x00\n        /* \"contracts/RPSLS.sol\":2568:2590  currentGame.players[0] */\n      0x02\n      dup2\n      lt\n      tag_76\n      jumpi\n      tag_77\n      tag_78\n      jump\t// in\n    tag_77:\n    tag_76:\n      add\n      0x00\n      swap1\n      sload\n      swap1\n      0x0100\n      exp\n      swap1\n      div\n      0xffffffffffffffffffffffffffffffffffffffff\n      and\n        /* \"contracts/RPSLS.sol\":2568:2604  currentGame.players[0] == msg.sender */\n      0xffffffffffffffffffffffffffffffffffffffff\n      and\n      eq\n        /* \"contracts/RPSLS.sol\":2568:2612  currentGame.players[0] == msg.sender ? 0 : 1 */\n      tag_80\n      jumpi\n        /* \"contracts/RPSLS.sol\":2611:2612  1 */\n      0x01\n        /* \"contracts/RPSLS.sol\":2568:2612  currentGame.players[0] == msg.sender ? 0 : 1 */\n      jump(tag_81)\n    tag_80:\n        /* \"contracts/RPSLS.sol\":2607:2608  0 */\n      0x00\n        /* \"contracts/RPSLS.sol\":2568:2612  currentGame.players[0] == msg.sender ? 0 : 1 */\n    tag_81:\n        /* \"contracts/RPSLS.sol\":2546:2612  uint256 playerIndex = currentGame.players[0] == msg.sender ? 0 : 1 */\n      0xff\n      and\n      swap1\n      pop\n        /* \"contracts/RPSLS.sol\":2632:2643  currentGame */\n      0x02\n        /* \"contracts/RPSLS.sol\":2632:2652  currentGame.revealed */\n      0x09\n      add\n        /* \"contracts/RPSLS.sol\":2653:2664  playerIndex */\n      dup2\n        /* \"contracts/RPSLS.sol\":2632:2665  currentGame.revealed[playerIndex] */\n      0x02\n      dup2\n      lt\n      tag_82\n      jumpi\n      tag_83\n      tag_78\n      jump\t// in\n    tag_83:\n    tag_82:\n      0x20\n      swap2\n      dup3\n      dup3\n      div\n      add\n      swap2\n      swap1\n      mod\n      swap1\n      sload\n      swap1\n      0x0100\n      exp\n      swap1\n      div\n      0xff\n      and\n        /* \"contracts/RPSLS.sol\":2631:2665  !currentGame.revealed[playerIndex] */\n      iszero\n        /* \"contracts/RPSLS.sol\":2623:2686  require(!currentGame.revealed[playerIndex], \"Already revealed\") */\n      tag_85\n      jumpi\n      mload(0x40)\n      0x08c379a000000000000000000000000000000000000000000000000000000000\n      dup2\n      mstore\n      0x04\n      add\n      tag_86\n      swap1\n      tag_87\n      jump\t// in\n    tag_86:\n      mload(0x40)\n      dup1\n      swap2\n      sub\n      swap1\n      revert\n    tag_85:\n        /* \"contracts/RPSLS.sol\":2707:2727  bytes32 computedHash */\n      0x00\n        /* \"contracts/RPSLS.sol\":2730:2760  Convert.getHash(choice, nonce) */\n      tag_88\n        /* \"contracts/RPSLS.sol\":2746:2752  choice */\n      dup5\n        /* \"contracts/RPSLS.sol\":2754:2759  nonce */\n      dup5\n        /* \"contracts/RPSLS.sol\":2730:2745  Convert.getHash */\n      tag_89\n        /* \"contracts/RPSLS.sol\":2730:2760  Convert.getHash(choice, nonce) */\n      jump\t// in\n    tag_88:\n        /* \"contracts/RPSLS.sol\":2707:2760  bytes32 computedHash = Convert.getHash(choice, nonce) */\n      swap1\n      pop\n        /* \"contracts/RPSLS.sol\":2795:2806  currentGame */\n      0x02\n        /* \"contracts/RPSLS.sol\":2795:2814  currentGame.commits */\n      dup1\n      add\n        /* \"contracts/RPSLS.sol\":2815:2826  playerIndex */\n      dup3\n        /* \"contracts/RPSLS.sol\":2795:2827  currentGame.commits[playerIndex] */\n      0x02\n      dup2\n      lt\n      tag_90\n      jumpi\n      tag_91\n      tag_78\n      jump\t// in\n    tag_91:\n    tag_90:\n      add\n      sload\n        /* \"contracts/RPSLS.sol\":2779:2791  computedHash */\n      dup2\n        /* \"contracts/RPSLS.sol\":2779:2827  computedHash == currentGame.commits[playerIndex] */\n      eq\n        /* \"contracts/RPSLS.sol\":2771:2846  require(computedHash == currentGame.commits[playerIndex], \"Invalid reveal\") */\n      tag_93\n      jumpi\n      mload(0x40)\n      0x08c379a000000000000000000000000000000000000000000000000000000000\n      dup2\n      mstore\n      0x04\n      add\n      tag_94\n      swap1\n      tag_95\n      jump\t// in\n    tag_94:\n      mload(0x40)\n      dup1\n      swap2\n      sub\n      swap1\n      revert\n    tag_93:\n        /* \"contracts/RPSLS.sol\":2902:2908  choice */\n      dup4\n        /* \"contracts/RPSLS.sol\":2867:2878  currentGame */\n      0x02\n        /* \"contracts/RPSLS.sol\":2867:2886  currentGame.choices */\n      0x04\n      add\n        /* \"contracts/RPSLS.sol\":2887:2898  playerIndex */\n      dup4\n        /* \"contracts/RPSLS.sol\":2867:2899  currentGame.choices[playerIndex] */\n      0x02\n      dup2\n      lt\n      tag_96\n      jumpi\n      tag_97\n      tag_78\n      jump\t// in\n    tag_97:\n    tag_96:\n      add\n        /* \"contracts/RPSLS.sol\":2867:2908  currentGame.choices[playerIndex] = choice */\n      dup2\n      swap1\n      sstore\n      pop\n        /* \"contracts/RPSLS.sol\":2955:2959  true */\n      0x01\n        /* \"contracts/RPSLS.sol\":2919:2930  currentGame */\n      0x02\n        /* \"contracts/RPSLS.sol\":2919:2939  currentGame.revealed */\n      0x09\n      add\n        /* \"contracts/RPSLS.sol\":2940:2951  playerIndex */\n      dup4\n        /* \"contracts/RPSLS.sol\":2919:2952  currentGame.revealed[playerIndex] */\n      0x02\n      dup2\n      lt\n      tag_99\n      jumpi\n      tag_100\n      tag_78\n      jump\t// in\n    tag_100:\n    tag_99:\n      0x20\n      swap2\n      dup3\n      dup3\n      div\n      add\n      swap2\n      swap1\n      mod\n        /* \"contracts/RPSLS.sol\":2919:2959  currentGame.revealed[playerIndex] = true */\n      0x0100\n      exp\n      dup2\n      sload\n      dup2\n      0xff\n      mul\n      not\n      and\n      swap1\n      dup4\n      iszero\n      iszero\n      mul\n      or\n      swap1\n      sstore\n      pop\n        /* \"contracts/RPSLS.sol\":2983:2994  currentGame */\n      0x02\n        /* \"contracts/RPSLS.sol\":2983:3003  currentGame.revealed */\n      0x09\n      add\n        /* \"contracts/RPSLS.sol\":3004:3005  0 */\n      0x00\n        /* \"contracts/RPSLS.sol\":2983:3006  currentGame.revealed[0] */\n      0x02\n      dup2\n      lt\n      tag_102\n      jumpi\n      tag_103\n      tag_78\n      jump\t// in\n    tag_103:\n    tag_102:\n      0x20\n      swap2\n      dup3\n      dup3\n      div\n      add\n      swap2\n      swap1\n      mod\n      swap1\n      sload\n      swap1\n      0x0100\n      exp\n      swap1\n      div\n      0xff\n      and\n        /* \"contracts/RPSLS.sol\":2983:3033  currentGame.revealed[0] && currentGame.revealed[1] */\n      dup1\n      iszero\n      tag_105\n      jumpi\n      pop\n        /* \"contracts/RPSLS.sol\":3010:3021  currentGame */\n      0x02\n        /* \"contracts/RPSLS.sol\":3010:3030  currentGame.revealed */\n      0x09\n      add\n        /* \"contracts/RPSLS.sol\":3031:3032  1 */\n      0x01\n        /* \"contracts/RPSLS.sol\":3010:3033  currentGame.revealed[1] */\n      0x02\n      dup2\n      lt\n      tag_106\n      jumpi\n      tag_107\n      tag_78\n      jump\t// in\n    tag_107:\n    tag_106:\n      0x20\n      swap2\n      dup3\n      dup3\n      div\n      add\n      swap2\n      swap1\n      mod\n      swap1\n      sload\n      swap1\n      0x0100\n      exp\n      swap1\n      div\n      0xff\n      and\n        /* \"contracts/RPSLS.sol\":2983:3033  currentGame.revealed[0] && currentGame.revealed[1] */\n    tag_105:\n        /* \"contracts/RPSLS.sol\":2980:3080  if(currentGame.revealed[0] && currentGame.revealed[1]) {... */\n      iszero\n      tag_109\n      jumpi\n        /* \"contracts/RPSLS.sol\":3050:3068  _determineWinner() */\n      tag_110\n        /* \"contracts/RPSLS.sol\":3050:3066  _determineWinner */\n      tag_111\n        /* \"contracts/RPSLS.sol\":3050:3068  _determineWinner() */\n      jump\t// in\n    tag_110:\n        /* \"contracts/RPSLS.sol\":2980:3080  if(currentGame.revealed[0] && currentGame.revealed[1]) {... */\n    tag_109:\n        /* \"contracts/RPSLS.sol\":3104:3114  msg.sender */\n      caller\n        /* \"contracts/RPSLS.sol\":3095:3115  Revealed(msg.sender) */\n      0xffffffffffffffffffffffffffffffffffffffff\n      and\n      0xb43a48f4b5fe1b13780390dc7b039206c4f81535c0fda507c687d7e921eb18bb\n      mload(0x40)\n      mload(0x40)\n      dup1\n      swap2\n      sub\n      swap1\n      log2\n        /* \"contracts/RPSLS.sol\":2400:3123  {... */\n      pop\n      pop\n        /* \"contracts/RPSLS.sol\":2338:3123  function revealChoice(uint256 choice, bytes32 nonce) external {... */\n      pop\n      pop\n      jump\t// out\n        /* \"contracts/RPSLS.sol\":3935:4848  function withdrawTimeout() external {... */\n    tag_31:\n        /* \"contracts/RPSLS.sol\":4008:4019  currentGame */\n      0x02\n        /* \"contracts/RPSLS.sol\":4008:4034  currentGame.commitDeadline */\n      0x07\n      add\n      sload\n        /* \"contracts/RPSLS.sol\":3990:4005  block.timestamp */\n      timestamp\n        /* \"contracts/RPSLS.sol\":3990:4034  block.timestamp > currentGame.commitDeadline */\n      gt\n        /* \"contracts/RPSLS.sol\":3990:4099  block.timestamp > currentGame.commitDeadline || ... */\n      dup1\n      tag_113\n      jumpi\n      pop\n        /* \"contracts/RPSLS.sol\":4073:4084  currentGame */\n      0x02\n        /* \"contracts/RPSLS.sol\":4073:4099  currentGame.revealDeadline */\n      0x08\n      add\n      sload\n        /* \"contracts/RPSLS.sol\":4055:4070  block.timestamp */\n      timestamp\n        /* \"contracts/RPSLS.sol\":4055:4099  block.timestamp > currentGame.revealDeadline */\n      gt\n        /* \"contracts/RPSLS.sol\":3990:4099  block.timestamp > currentGame.commitDeadline || ... */\n    tag_113:\n        /* \"contracts/RPSLS.sol\":3982:4113  require(block.timestamp > currentGame.commitDeadline || ... */\n      tag_114\n      jumpi\n      mload(0x40)\n      0x08c379a000000000000000000000000000000000000000000000000000000000\n      dup2\n      mstore\n      0x04\n      add\n      tag_115\n      swap1\n      tag_116\n      jump\t// in\n    tag_115:\n      mload(0x40)\n      dup1\n      swap2\n      sub\n      swap1\n      revert\n    tag_114:\n        /* \"contracts/RPSLS.sol\":4150:4171  GameState.CommitPhase */\n      0x01\n        /* \"contracts/RPSLS.sol\":4137:4171  gameState == GameState.CommitPhase */\n      0x02\n      dup2\n      gt\n      iszero\n      tag_117\n      jumpi\n      tag_118\n      tag_67\n      jump\t// in\n    tag_118:\n    tag_117:\n        /* \"contracts/RPSLS.sol\":4137:4146  gameState */\n      0x01\n      0x14\n      swap1\n      sload\n      swap1\n      0x0100\n      exp\n      swap1\n      div\n      0xff\n      and\n        /* \"contracts/RPSLS.sol\":4137:4171  gameState == GameState.CommitPhase */\n      0x02\n      dup2\n      gt\n      iszero\n      tag_119\n      jumpi\n      tag_120\n      tag_67\n      jump\t// in\n    tag_120:\n    tag_119:\n      sub\n        /* \"contracts/RPSLS.sol\":4134:4783  if(gameState == GameState.CommitPhase) {... */\n      tag_121\n      jumpi\n        /* \"contracts/RPSLS.sol\":4196:4207  currentGame */\n      0x02\n        /* \"contracts/RPSLS.sol\":4196:4215  currentGame.players */\n      0x00\n      add\n        /* \"contracts/RPSLS.sol\":4216:4217  0 */\n      0x00\n        /* \"contracts/RPSLS.sol\":4196:4218  currentGame.players[0] */\n      0x02\n      dup2\n      lt\n      tag_122\n      jumpi\n      tag_123\n      tag_78\n      jump\t// in\n    tag_123:\n    tag_122:\n      add\n      0x00\n      swap1\n      sload\n      swap1\n      0x0100\n      exp\n      swap1\n      div\n      0xffffffffffffffffffffffffffffffffffffffff\n      and\n        /* \"contracts/RPSLS.sol\":4188:4228  payable(currentGame.players[0]).transfer */\n      0xffffffffffffffffffffffffffffffffffffffff\n      and\n        /* \"contracts/RPSLS.sol\":4188:4247  payable(currentGame.players[0]).transfer(currentGame.stake) */\n      0x08fc\n        /* \"contracts/RPSLS.sol\":4229:4240  currentGame */\n      0x02\n        /* \"contracts/RPSLS.sol\":4229:4246  currentGame.stake */\n      0x06\n      add\n      sload\n        /* \"contracts/RPSLS.sol\":4188:4247  payable(currentGame.players[0]).transfer(currentGame.stake) */\n      swap1\n      dup2\n      iszero\n      mul\n      swap1\n      mload(0x40)\n      0x00\n      mload(0x40)\n      dup1\n      dup4\n      sub\n      dup2\n      dup6\n      dup9\n      dup9\n      call\n      swap4\n      pop\n      pop\n      pop\n      pop\n      iszero\n      dup1\n      iszero\n      tag_126\n      jumpi\n      returndatasize\n      0x00\n      dup1\n      returndatacopy\n      revert(0x00, returndatasize)\n    tag_126:\n      pop\n        /* \"contracts/RPSLS.sol\":4134:4783  if(gameState == GameState.CommitPhase) {... */\n      jump(tag_127)\n    tag_121:\n        /* \"contracts/RPSLS.sol\":4283:4294  currentGame */\n      0x02\n        /* \"contracts/RPSLS.sol\":4283:4303  currentGame.revealed */\n      0x09\n      add\n        /* \"contracts/RPSLS.sol\":4304:4305  0 */\n      0x00\n        /* \"contracts/RPSLS.sol\":4283:4306  currentGame.revealed[0] */\n      0x02\n      dup2\n      lt\n      tag_128\n      jumpi\n      tag_129\n      tag_78\n      jump\t// in\n    tag_129:\n    tag_128:\n      0x20\n      swap2\n      dup3\n      dup3\n      div\n      add\n      swap2\n      swap1\n      mod\n      swap1\n      sload\n      swap1\n      0x0100\n      exp\n      swap1\n      div\n      0xff\n      and\n        /* \"contracts/RPSLS.sol\":4283:4334  currentGame.revealed[0] && !currentGame.revealed[1] */\n      dup1\n      iszero\n      tag_131\n      jumpi\n      pop\n        /* \"contracts/RPSLS.sol\":4311:4322  currentGame */\n      0x02\n        /* \"contracts/RPSLS.sol\":4311:4331  currentGame.revealed */\n      0x09\n      add\n        /* \"contracts/RPSLS.sol\":4332:4333  1 */\n      0x01\n        /* \"contracts/RPSLS.sol\":4311:4334  currentGame.revealed[1] */\n      0x02\n      dup2\n      lt\n      tag_132\n      jumpi\n      tag_133\n      tag_78\n      jump\t// in\n    tag_133:\n    tag_132:\n      0x20\n      swap2\n      dup3\n      dup3\n      div\n      add\n      swap2\n      swap1\n      mod\n      swap1\n      sload\n      swap1\n      0x0100\n      exp\n      swap1\n      div\n      0xff\n      and\n        /* \"contracts/RPSLS.sol\":4310:4334  !currentGame.revealed[1] */\n      iszero\n        /* \"contracts/RPSLS.sol\":4283:4334  currentGame.revealed[0] && !currentGame.revealed[1] */\n    tag_131:\n        /* \"contracts/RPSLS.sol\":4280:4772  if(currentGame.revealed[0] && !currentGame.revealed[1]) {... */\n      iszero\n      tag_135\n      jumpi\n        /* \"contracts/RPSLS.sol\":4363:4374  currentGame */\n      0x02\n        /* \"contracts/RPSLS.sol\":4363:4382  currentGame.players */\n      0x00\n      add\n        /* \"contracts/RPSLS.sol\":4383:4384  0 */\n      0x00\n        /* \"contracts/RPSLS.sol\":4363:4385  currentGame.players[0] */\n      0x02\n      dup2\n      lt\n      tag_136\n      jumpi\n      tag_137\n      tag_78\n      jump\t// in\n    tag_137:\n    tag_136:\n      add\n      0x00\n      swap1\n      sload\n      swap1\n      0x0100\n      exp\n      swap1\n      div\n      0xffffffffffffffffffffffffffffffffffffffff\n      and\n        /* \"contracts/RPSLS.sol\":4355:4395  payable(currentGame.players[0]).transfer */\n      0xffffffffffffffffffffffffffffffffffffffff\n      and\n        /* \"contracts/RPSLS.sol\":4355:4418  payable(currentGame.players[0]).transfer(address(this).balance) */\n      0x08fc\n        /* \"contracts/RPSLS.sol\":4396:4417  address(this).balance */\n      selfbalance\n        /* \"contracts/RPSLS.sol\":4355:4418  payable(currentGame.players[0]).transfer(address(this).balance) */\n      swap1\n      dup2\n      iszero\n      mul\n      swap1\n      mload(0x40)\n      0x00\n      mload(0x40)\n      dup1\n      dup4\n      sub\n      dup2\n      dup6\n      dup9\n      dup9\n      call\n      swap4\n      pop\n      pop\n      pop\n      pop\n      iszero\n      dup1\n      iszero\n      tag_140\n      jumpi\n      returndatasize\n      0x00\n      dup1\n      returndatacopy\n      revert(0x00, returndatasize)\n    tag_140:\n      pop\n        /* \"contracts/RPSLS.sol\":4280:4772  if(currentGame.revealed[0] && !currentGame.revealed[1]) {... */\n      jump(tag_141)\n    tag_135:\n        /* \"contracts/RPSLS.sol\":4443:4454  currentGame */\n      0x02\n        /* \"contracts/RPSLS.sol\":4443:4463  currentGame.revealed */\n      0x09\n      add\n        /* \"contracts/RPSLS.sol\":4464:4465  1 */\n      0x01\n        /* \"contracts/RPSLS.sol\":4443:4466  currentGame.revealed[1] */\n      0x02\n      dup2\n      lt\n      tag_142\n      jumpi\n      tag_143\n      tag_78\n      jump\t// in\n    tag_143:\n    tag_142:\n      0x20\n      swap2\n      dup3\n      dup3\n      div\n      add\n      swap2\n      swap1\n      mod\n      swap1\n      sload\n      swap1\n      0x0100\n      exp\n      swap1\n      div\n      0xff\n      and\n        /* \"contracts/RPSLS.sol\":4443:4494  currentGame.revealed[1] && !currentGame.revealed[0] */\n      dup1\n      iszero\n      tag_145\n      jumpi\n      pop\n        /* \"contracts/RPSLS.sol\":4471:4482  currentGame */\n      0x02\n        /* \"contracts/RPSLS.sol\":4471:4491  currentGame.revealed */\n      0x09\n      add\n        /* \"contracts/RPSLS.sol\":4492:4493  0 */\n      0x00\n        /* \"contracts/RPSLS.sol\":4471:4494  currentGame.revealed[0] */\n      0x02\n      dup2\n      lt\n      tag_146\n      jumpi\n      tag_147\n      tag_78\n      jump\t// in\n    tag_147:\n    tag_146:\n      0x20\n      swap2\n      dup3\n      dup3\n      div\n      add\n      swap2\n      swap1\n      mod\n      swap1\n      sload\n      swap1\n      0x0100\n      exp\n      swap1\n      div\n      0xff\n      and\n        /* \"contracts/RPSLS.sol\":4470:4494  !currentGame.revealed[0] */\n      iszero\n        /* \"contracts/RPSLS.sol\":4443:4494  currentGame.revealed[1] && !currentGame.revealed[0] */\n    tag_145:\n        /* \"contracts/RPSLS.sol\":4440:4772  if(currentGame.revealed[1] && !currentGame.revealed[0]) {... */\n      iszero\n      tag_149\n      jumpi\n        /* \"contracts/RPSLS.sol\":4523:4534  currentGame */\n      0x02\n        /* \"contracts/RPSLS.sol\":4523:4542  currentGame.players */\n      0x00\n      add\n        /* \"contracts/RPSLS.sol\":4543:4544  1 */\n      0x01\n        /* \"contracts/RPSLS.sol\":4523:4545  currentGame.players[1] */\n      0x02\n      dup2\n      lt\n      tag_150\n      jumpi\n      tag_151\n      tag_78\n      jump\t// in\n    tag_151:\n    tag_150:\n      add\n      0x00\n      swap1\n      sload\n      swap1\n      0x0100\n      exp\n      swap1\n      div\n      0xffffffffffffffffffffffffffffffffffffffff\n      and\n        /* \"contracts/RPSLS.sol\":4515:4555  payable(currentGame.players[1]).transfer */\n      0xffffffffffffffffffffffffffffffffffffffff\n      and\n        /* \"contracts/RPSLS.sol\":4515:4578  payable(currentGame.players[1]).transfer(address(this).balance) */\n      0x08fc\n        /* \"contracts/RPSLS.sol\":4556:4577  address(this).balance */\n      selfbalance\n        /* \"contracts/RPSLS.sol\":4515:4578  payable(currentGame.players[1]).transfer(address(this).balance) */\n      swap1\n      dup2\n      iszero\n      mul\n      swap1\n      mload(0x40)\n      0x00\n      mload(0x40)\n      dup1\n      dup4\n      sub\n      dup2\n      dup6\n      dup9\n      dup9\n      call\n      swap4\n      pop\n      pop\n      pop\n      pop\n      iszero\n      dup1\n      iszero\n      tag_154\n      jumpi\n      returndatasize\n      0x00\n      dup1\n      returndatacopy\n      revert(0x00, returndatasize)\n    tag_154:\n      pop\n        /* \"contracts/RPSLS.sol\":4440:4772  if(currentGame.revealed[1] && !currentGame.revealed[0]) {... */\n      jump(tag_155)\n    tag_149:\n        /* \"contracts/RPSLS.sol\":4627:4638  currentGame */\n      0x02\n        /* \"contracts/RPSLS.sol\":4627:4646  currentGame.players */\n      0x00\n      add\n        /* \"contracts/RPSLS.sol\":4647:4648  0 */\n      0x00\n        /* \"contracts/RPSLS.sol\":4627:4649  currentGame.players[0] */\n      0x02\n      dup2\n      lt\n      tag_156\n      jumpi\n      tag_157\n      tag_78\n      jump\t// in\n    tag_157:\n    tag_156:\n      add\n      0x00\n      swap1\n      sload\n      swap1\n      0x0100\n      exp\n      swap1\n      div\n      0xffffffffffffffffffffffffffffffffffffffff\n      and\n        /* \"contracts/RPSLS.sol\":4619:4659  payable(currentGame.players[0]).transfer */\n      0xffffffffffffffffffffffffffffffffffffffff\n      and\n        /* \"contracts/RPSLS.sol\":4619:4678  payable(currentGame.players[0]).transfer(currentGame.stake) */\n      0x08fc\n        /* \"contracts/RPSLS.sol\":4660:4671  currentGame */\n      0x02\n        /* \"contracts/RPSLS.sol\":4660:4677  currentGame.stake */\n      0x06\n      add\n      sload\n        /* \"contracts/RPSLS.sol\":4619:4678  payable(currentGame.players[0]).transfer(currentGame.stake) */\n      swap1\n      dup2\n      iszero\n      mul\n      swap1\n      mload(0x40)\n      0x00\n      mload(0x40)\n      dup1\n      dup4\n      sub\n      dup2\n      dup6\n      dup9\n      dup9\n      call\n      swap4\n      pop\n      pop\n      pop\n      pop\n      iszero\n      dup1\n      iszero\n      tag_160\n      jumpi\n      returndatasize\n      0x00\n      dup1\n      returndatacopy\n      revert(0x00, returndatasize)\n    tag_160:\n      pop\n        /* \"contracts/RPSLS.sol\":4705:4716  currentGame */\n      0x02\n        /* \"contracts/RPSLS.sol\":4705:4724  currentGame.players */\n      0x00\n      add\n        /* \"contracts/RPSLS.sol\":4725:4726  1 */\n      0x01\n        /* \"contracts/RPSLS.sol\":4705:4727  currentGame.players[1] */\n      0x02\n      dup2\n      lt\n      tag_161\n      jumpi\n      tag_162\n      tag_78\n      jump\t// in\n    tag_162:\n    tag_161:\n      add\n      0x00\n      swap1\n      sload\n      swap1\n      0x0100\n      exp\n      swap1\n      div\n      0xffffffffffffffffffffffffffffffffffffffff\n      and\n        /* \"contracts/RPSLS.sol\":4697:4737  payable(currentGame.players[1]).transfer */\n      0xffffffffffffffffffffffffffffffffffffffff\n      and\n        /* \"contracts/RPSLS.sol\":4697:4756  payable(currentGame.players[1]).transfer(currentGame.stake) */\n      0x08fc\n        /* \"contracts/RPSLS.sol\":4738:4749  currentGame */\n      0x02\n        /* \"contracts/RPSLS.sol\":4738:4755  currentGame.stake */\n      0x06\n      add\n      sload\n        /* \"contracts/RPSLS.sol\":4697:4756  payable(currentGame.players[1]).transfer(currentGame.stake) */\n      swap1\n      dup2\n      iszero\n      mul\n      swap1\n      mload(0x40)\n      0x00\n      mload(0x40)\n      dup1\n      dup4\n      sub\n      dup2\n      dup6\n      dup9\n      dup9\n      call\n      swap4\n      pop\n      pop\n      pop\n      pop\n      iszero\n      dup1\n      iszero\n      tag_165\n      jumpi\n      returndatasize\n      0x00\n      dup1\n      returndatacopy\n      revert(0x00, returndatasize)\n    tag_165:\n      pop\n        /* \"contracts/RPSLS.sol\":4440:4772  if(currentGame.revealed[1] && !currentGame.revealed[0]) {... */\n    tag_155:\n        /* \"contracts/RPSLS.sol\":4280:4772  if(currentGame.revealed[0] && !currentGame.revealed[1]) {... */\n    tag_141:\n        /* \"contracts/RPSLS.sol\":4134:4783  if(gameState == GameState.CommitPhase) {... */\n    tag_127:\n        /* \"contracts/RPSLS.sol\":4806:4816  msg.sender */\n      caller\n        /* \"contracts/RPSLS.sol\":4798:4817  Timeout(msg.sender) */\n      0xffffffffffffffffffffffffffffffffffffffff\n      and\n      0x71b8d288b6b795cd40378095d6a9c6466eb4a081c0238dfd691b0b1f5868f180\n      mload(0x40)\n      mload(0x40)\n      dup1\n      swap2\n      sub\n      swap1\n      log2\n        /* \"contracts/RPSLS.sol\":4828:4840  _resetGame() */\n      tag_166\n        /* \"contracts/RPSLS.sol\":4828:4838  _resetGame */\n      tag_167\n        /* \"contracts/RPSLS.sol\":4828:4840  _resetGame() */\n      jump\t// in\n    tag_166:\n        /* \"contracts/RPSLS.sol\":3935:4848  function withdrawTimeout() external {... */\n      jump\t// out\n        /* \"contracts/RPSLS.sol\":189:221  CommitReveal public commitReveal */\n    tag_34:\n      0x01\n      0x00\n      swap1\n      sload\n      swap1\n      0x0100\n      exp\n      swap1\n      div\n      0xffffffffffffffffffffffffffffffffffffffff\n      and\n      dup2\n      jump\t// out\n        /* \"contracts/TimeUnit.sol\":379:452  function setStartTime() public { ... */\n    tag_39:\n        /* \"contracts/TimeUnit.sol\":430:445  block.timestamp */\n      timestamp\n        /* \"contracts/TimeUnit.sol\":418:427  startTime */\n      0x00\n        /* \"contracts/TimeUnit.sol\":418:445  startTime = block.timestamp */\n      dup2\n      swap1\n      sstore\n      pop\n        /* \"contracts/TimeUnit.sol\":379:452  function setStartTime() public { ... */\n      jump\t// out\n        /* \"contracts/TimeUnit.sol\":576:683  function elapsedSeconds() public view returns (uint256) { ... */\n    tag_42:\n        /* \"contracts/TimeUnit.sol\":623:630  uint256 */\n      0x00\n        /* \"contracts/TimeUnit.sol\":666:675  startTime */\n      dup1\n      sload\n        /* \"contracts/TimeUnit.sol\":648:663  block.timestamp */\n      timestamp\n        /* \"contracts/TimeUnit.sol\":648:675  block.timestamp - startTime */\n      tag_170\n      swap2\n      swap1\n      tag_171\n      jump\t// in\n    tag_170:\n        /* \"contracts/TimeUnit.sol\":640:676  return (block.timestamp - startTime) */\n      swap1\n      pop\n        /* \"contracts/TimeUnit.sol\":576:683  function elapsedSeconds() public view returns (uint256) { ... */\n      swap1\n      jump\t// out\n        /* \"contracts/RPSLS.sol\":1413:2330  function joinGame(bytes32 commitHash) external payable onlyAllowed {... */\n    tag_47:\n        /* \"contracts/RPSLS.sol\":1335:1349  allowedPlayers */\n      0x0c\n        /* \"contracts/RPSLS.sol\":1335:1361  allowedPlayers[msg.sender] */\n      0x00\n        /* \"contracts/RPSLS.sol\":1350:1360  msg.sender */\n      caller\n        /* \"contracts/RPSLS.sol\":1335:1361  allowedPlayers[msg.sender] */\n      0xffffffffffffffffffffffffffffffffffffffff\n      and\n      0xffffffffffffffffffffffffffffffffffffffff\n      and\n      dup2\n      mstore\n      0x20\n      add\n      swap1\n      dup2\n      mstore\n      0x20\n      add\n      0x00\n      keccak256\n      0x00\n      swap1\n      sload\n      swap1\n      0x0100\n      exp\n      swap1\n      div\n      0xff\n      and\n        /* \"contracts/RPSLS.sol\":1327:1385  require(allowedPlayers[msg.sender], \"Address not allowed\") */\n      tag_173\n      jumpi\n      mload(0x40)\n      0x08c379a000000000000000000000000000000000000000000000000000000000\n      dup2\n      mstore\n      0x04\n      add\n      tag_174\n      swap1\n      tag_175\n      jump\t// in\n    tag_174:\n      mload(0x40)\n      dup1\n      swap2\n      sub\n      swap1\n      revert\n    tag_173:\n        /* \"contracts/RPSLS.sol\":1512:1519  1 ether */\n      0x0de0b6b3a7640000\n        /* \"contracts/RPSLS.sol\":1499:1508  msg.value */\n      callvalue\n        /* \"contracts/RPSLS.sol\":1499:1519  msg.value == 1 ether */\n      eq\n        /* \"contracts/RPSLS.sol\":1491:1543  require(msg.value == 1 ether, \"Stake must be 1 ETH\") */\n      tag_177\n      jumpi\n      mload(0x40)\n      0x08c379a000000000000000000000000000000000000000000000000000000000\n      dup2\n      mstore\n      0x04\n      add\n      tag_178\n      swap1\n      tag_179\n      jump\t// in\n    tag_178:\n      mload(0x40)\n      dup1\n      swap2\n      sub\n      swap1\n      revert\n    tag_177:\n        /* \"contracts/RPSLS.sol\":1596:1597  0 */\n      0x00\n        /* \"contracts/RPSLS.sol\":1562:1598  currentGame.players[0] == address(0) */\n      0xffffffffffffffffffffffffffffffffffffffff\n      and\n        /* \"contracts/RPSLS.sol\":1562:1573  currentGame */\n      0x02\n        /* \"contracts/RPSLS.sol\":1562:1581  currentGame.players */\n      0x00\n      add\n        /* \"contracts/RPSLS.sol\":1582:1583  0 */\n      0x00\n        /* \"contracts/RPSLS.sol\":1562:1584  currentGame.players[0] */\n      0x02\n      dup2\n      lt\n      tag_180\n      jumpi\n      tag_181\n      tag_78\n      jump\t// in\n    tag_181:\n    tag_180:\n      add\n      0x00\n      swap1\n      sload\n      swap1\n      0x0100\n      exp\n      swap1\n      div\n      0xffffffffffffffffffffffffffffffffffffffff\n      and\n        /* \"contracts/RPSLS.sol\":1562:1598  currentGame.players[0] == address(0) */\n      0xffffffffffffffffffffffffffffffffffffffff\n      and\n      eq\n        /* \"contracts/RPSLS.sol\":1562:1655  currentGame.players[0] == address(0) || ... */\n      dup1\n      tag_183\n      jumpi\n      pop\n        /* \"contracts/RPSLS.sol\":1653:1654  0 */\n      0x00\n        /* \"contracts/RPSLS.sol\":1619:1655  currentGame.players[1] == address(0) */\n      0xffffffffffffffffffffffffffffffffffffffff\n      and\n        /* \"contracts/RPSLS.sol\":1619:1630  currentGame */\n      0x02\n        /* \"contracts/RPSLS.sol\":1619:1638  currentGame.players */\n      0x00\n      add\n        /* \"contracts/RPSLS.sol\":1639:1640  1 */\n      0x01\n        /* \"contracts/RPSLS.sol\":1619:1641  currentGame.players[1] */\n      0x02\n      dup2\n      lt\n      tag_184\n      jumpi\n      tag_185\n      tag_78\n      jump\t// in\n    tag_185:\n    tag_184:\n      add\n      0x00\n      swap1\n      sload\n      swap1\n      0x0100\n      exp\n      swap1\n      div\n      0xffffffffffffffffffffffffffffffffffffffff\n      and\n        /* \"contracts/RPSLS.sol\":1619:1655  currentGame.players[1] == address(0) */\n      0xffffffffffffffffffffffffffffffffffffffff\n      and\n      eq\n        /* \"contracts/RPSLS.sol\":1562:1655  currentGame.players[0] == address(0) || ... */\n    tag_183:\n        /* \"contracts/RPSLS.sol\":1554:1669  require(currentGame.players[0] == address(0) || ... */\n      tag_187\n      jumpi\n      mload(0x40)\n      0x08c379a000000000000000000000000000000000000000000000000000000000\n      dup2\n      mstore\n      0x04\n      add\n      tag_188\n      swap1\n      tag_189\n      jump\t// in\n    tag_188:\n      mload(0x40)\n      dup1\n      swap2\n      sub\n      swap1\n      revert\n    tag_187:\n        /* \"contracts/RPSLS.sol\":1727:1728  0 */\n      0x00\n        /* \"contracts/RPSLS.sol\":1693:1729  currentGame.players[0] == address(0) */\n      0xffffffffffffffffffffffffffffffffffffffff\n      and\n        /* \"contracts/RPSLS.sol\":1693:1704  currentGame */\n      0x02\n        /* \"contracts/RPSLS.sol\":1693:1712  currentGame.players */\n      0x00\n      add\n        /* \"contracts/RPSLS.sol\":1713:1714  0 */\n      0x00\n        /* \"contracts/RPSLS.sol\":1693:1715  currentGame.players[0] */\n      0x02\n      dup2\n      lt\n      tag_190\n      jumpi\n      tag_191\n      tag_78\n      jump\t// in\n    tag_191:\n    tag_190:\n      add\n      0x00\n      swap1\n      sload\n      swap1\n      0x0100\n      exp\n      swap1\n      div\n      0xffffffffffffffffffffffffffffffffffffffff\n      and\n        /* \"contracts/RPSLS.sol\":1693:1729  currentGame.players[0] == address(0) */\n      0xffffffffffffffffffffffffffffffffffffffff\n      and\n      sub\n        /* \"contracts/RPSLS.sol\":1690:2286  if(currentGame.players[0] == address(0)) {... */\n      tag_193\n      jumpi\n        /* \"contracts/RPSLS.sol\":1771:1781  msg.sender */\n      caller\n        /* \"contracts/RPSLS.sol\":1746:1757  currentGame */\n      0x02\n        /* \"contracts/RPSLS.sol\":1746:1765  currentGame.players */\n      0x00\n      add\n        /* \"contracts/RPSLS.sol\":1766:1767  0 */\n      0x00\n        /* \"contracts/RPSLS.sol\":1746:1768  currentGame.players[0] */\n      0x02\n      dup2\n      lt\n      tag_194\n      jumpi\n      tag_195\n      tag_78\n      jump\t// in\n    tag_195:\n    tag_194:\n      add\n      0x00\n        /* \"contracts/RPSLS.sol\":1746:1781  currentGame.players[0] = msg.sender */\n      0x0100\n      exp\n      dup2\n      sload\n      dup2\n      0xffffffffffffffffffffffffffffffffffffffff\n      mul\n      not\n      and\n      swap1\n      dup4\n      0xffffffffffffffffffffffffffffffffffffffff\n      and\n      mul\n      or\n      swap1\n      sstore\n      pop\n        /* \"contracts/RPSLS.sol\":1821:1831  commitHash */\n      dup1\n        /* \"contracts/RPSLS.sol\":1796:1807  currentGame */\n      0x02\n        /* \"contracts/RPSLS.sol\":1796:1815  currentGame.commits */\n      dup1\n      add\n        /* \"contracts/RPSLS.sol\":1816:1817  0 */\n      0x00\n        /* \"contracts/RPSLS.sol\":1796:1818  currentGame.commits[0] */\n      0x02\n      dup2\n      lt\n      tag_197\n      jumpi\n      tag_198\n      tag_78\n      jump\t// in\n    tag_198:\n    tag_197:\n      add\n        /* \"contracts/RPSLS.sol\":1796:1831  currentGame.commits[0] = commitHash */\n      dup2\n      swap1\n      sstore\n      pop\n        /* \"contracts/RPSLS.sol\":1866:1875  msg.value */\n      callvalue\n        /* \"contracts/RPSLS.sol\":1846:1857  currentGame */\n      0x02\n        /* \"contracts/RPSLS.sol\":1846:1863  currentGame.stake */\n      0x06\n      add\n        /* \"contracts/RPSLS.sol\":1846:1875  currentGame.stake = msg.value */\n      dup2\n      swap1\n      sstore\n      pop\n        /* \"contracts/RPSLS.sol\":1937:1946  5 minutes */\n      0x012c\n        /* \"contracts/RPSLS.sol\":1919:1934  block.timestamp */\n      timestamp\n        /* \"contracts/RPSLS.sol\":1919:1946  block.timestamp + 5 minutes */\n      tag_200\n      swap2\n      swap1\n      tag_201\n      jump\t// in\n    tag_200:\n        /* \"contracts/RPSLS.sol\":1890:1901  currentGame */\n      0x02\n        /* \"contracts/RPSLS.sol\":1890:1916  currentGame.commitDeadline */\n      0x07\n      add\n        /* \"contracts/RPSLS.sol\":1890:1946  currentGame.commitDeadline = block.timestamp + 5 minutes */\n      dup2\n      swap1\n      sstore\n      pop\n        /* \"contracts/RPSLS.sol\":1973:1994  GameState.CommitPhase */\n      0x01\n        /* \"contracts/RPSLS.sol\":1961:1970  gameState */\n      dup1\n      0x14\n        /* \"contracts/RPSLS.sol\":1961:1994  gameState = GameState.CommitPhase */\n      0x0100\n      exp\n      dup2\n      sload\n      dup2\n      0xff\n      mul\n      not\n      and\n      swap1\n      dup4\n      0x02\n      dup2\n      gt\n      iszero\n      tag_202\n      jumpi\n      tag_203\n      tag_67\n      jump\t// in\n    tag_203:\n    tag_202:\n      mul\n      or\n      swap1\n      sstore\n      pop\n        /* \"contracts/RPSLS.sol\":2026:2036  msg.sender */\n      caller\n        /* \"contracts/RPSLS.sol\":2014:2037  GameStarted(msg.sender) */\n      0xffffffffffffffffffffffffffffffffffffffff\n      and\n      0x67cf7f1535e1c1323fe4e76266f7d55f0c1f67fdf449db65e014f9d35881514d\n      mload(0x40)\n      mload(0x40)\n      dup1\n      swap2\n      sub\n      swap1\n      log2\n        /* \"contracts/RPSLS.sol\":1690:2286  if(currentGame.players[0] == address(0)) {... */\n      jump(tag_204)\n    tag_193:\n        /* \"contracts/RPSLS.sol\":2095:2105  msg.sender */\n      caller\n        /* \"contracts/RPSLS.sol\":2070:2081  currentGame */\n      0x02\n        /* \"contracts/RPSLS.sol\":2070:2089  currentGame.players */\n      0x00\n      add\n        /* \"contracts/RPSLS.sol\":2090:2091  1 */\n      0x01\n        /* \"contracts/RPSLS.sol\":2070:2092  currentGame.players[1] */\n      0x02\n      dup2\n      lt\n      tag_205\n      jumpi\n      tag_206\n      tag_78\n      jump\t// in\n    tag_206:\n    tag_205:\n      add\n      0x00\n        /* \"contracts/RPSLS.sol\":2070:2105  currentGame.players[1] = msg.sender */\n      0x0100\n      exp\n      dup2\n      sload\n      dup2\n      0xffffffffffffffffffffffffffffffffffffffff\n      mul\n      not\n      and\n      swap1\n      dup4\n      0xffffffffffffffffffffffffffffffffffffffff\n      and\n      mul\n      or\n      swap1\n      sstore\n      pop\n        /* \"contracts/RPSLS.sol\":2145:2155  commitHash */\n      dup1\n        /* \"contracts/RPSLS.sol\":2120:2131  currentGame */\n      0x02\n        /* \"contracts/RPSLS.sol\":2120:2139  currentGame.commits */\n      dup1\n      add\n        /* \"contracts/RPSLS.sol\":2140:2141  1 */\n      0x01\n        /* \"contracts/RPSLS.sol\":2120:2142  currentGame.commits[1] */\n      0x02\n      dup2\n      lt\n      tag_208\n      jumpi\n      tag_209\n      tag_78\n      jump\t// in\n    tag_209:\n    tag_208:\n      add\n        /* \"contracts/RPSLS.sol\":2120:2155  currentGame.commits[1] = commitHash */\n      dup2\n      swap1\n      sstore\n      pop\n        /* \"contracts/RPSLS.sol\":2217:2226  5 minutes */\n      0x012c\n        /* \"contracts/RPSLS.sol\":2199:2214  block.timestamp */\n      timestamp\n        /* \"contracts/RPSLS.sol\":2199:2226  block.timestamp + 5 minutes */\n      tag_211\n      swap2\n      swap1\n      tag_201\n      jump\t// in\n    tag_211:\n        /* \"contracts/RPSLS.sol\":2170:2181  currentGame */\n      0x02\n        /* \"contracts/RPSLS.sol\":2170:2196  currentGame.revealDeadline */\n      0x08\n      add\n        /* \"contracts/RPSLS.sol\":2170:2226  currentGame.revealDeadline = block.timestamp + 5 minutes */\n      dup2\n      swap1\n      sstore\n      pop\n        /* \"contracts/RPSLS.sol\":2253:2274  GameState.RevealPhase */\n      0x02\n        /* \"contracts/RPSLS.sol\":2241:2250  gameState */\n      0x01\n      0x14\n        /* \"contracts/RPSLS.sol\":2241:2274  gameState = GameState.RevealPhase */\n      0x0100\n      exp\n      dup2\n      sload\n      dup2\n      0xff\n      mul\n      not\n      and\n      swap1\n      dup4\n      0x02\n      dup2\n      gt\n      iszero\n      tag_212\n      jumpi\n      tag_213\n      tag_67\n      jump\t// in\n    tag_213:\n    tag_212:\n      mul\n      or\n      swap1\n      sstore\n      pop\n        /* \"contracts/RPSLS.sol\":1690:2286  if(currentGame.players[0] == address(0)) {... */\n    tag_204:\n        /* \"contracts/RPSLS.sol\":2311:2321  msg.sender */\n      caller\n        /* \"contracts/RPSLS.sol\":2301:2322  Committed(msg.sender) */\n      0xffffffffffffffffffffffffffffffffffffffff\n      and\n      0x385d85909904c479680cfb49104dd25dd686a79a13b842e5ab5f1fab8fa0fb2a\n      mload(0x40)\n      mload(0x40)\n      dup1\n      swap2\n      sub\n      swap1\n      log2\n        /* \"contracts/RPSLS.sol\":1413:2330  function joinGame(bytes32 commitHash) external payable onlyAllowed {... */\n      pop\n      jump\t// out\n        /* \"contracts/RPSLS.sol\":293:319  GameState public gameState */\n    tag_50:\n      0x01\n      0x14\n      swap1\n      sload\n      swap1\n      0x0100\n      exp\n      swap1\n      div\n      0xff\n      and\n      dup2\n      jump\t// out\n        /* \"contracts/TimeUnit.sol\":799:1082  function elapsedMinutes() public view returns (uint256) { ... */\n    tag_55:\n        /* \"contracts/TimeUnit.sol\":846:853  uint256 */\n      0x00\n        /* \"contracts/TimeUnit.sol\":1066:1075  1 minutes */\n      0x3c\n        /* \"contracts/TimeUnit.sol\":1053:1062  startTime */\n      sload(0x00)\n        /* \"contracts/TimeUnit.sol\":1035:1050  block.timestamp */\n      timestamp\n        /* \"contracts/TimeUnit.sol\":1035:1062  block.timestamp - startTime */\n      tag_215\n      swap2\n      swap1\n      tag_171\n      jump\t// in\n    tag_215:\n        /* \"contracts/TimeUnit.sol\":1034:1075  (block.timestamp - startTime) / 1 minutes */\n      tag_216\n      swap2\n      swap1\n      tag_217\n      jump\t// in\n    tag_216:\n        /* \"contracts/TimeUnit.sol\":1027:1075  return (block.timestamp - startTime) / 1 minutes */\n      swap1\n      pop\n        /* \"contracts/TimeUnit.sol\":799:1082  function elapsedMinutes() public view returns (uint256) { ... */\n      swap1\n      jump\t// out\n        /* \"contracts/RPSLS.sol\":598:644  mapping(address => bool) public allowedPlayers */\n    tag_61:\n      mstore(0x20, 0x0c)\n      dup1\n      0x00\n      mstore\n      keccak256(0x00, 0x40)\n      0x00\n      swap2\n      pop\n      sload\n      swap1\n      0x0100\n      exp\n      swap1\n      div\n      0xff\n      and\n      dup2\n      jump\t// out\n        /* \"contracts/Convert.sol\":95:243  function getHash(uint256 choice, bytes32 nonce) internal pure returns (bytes32) {... */\n    tag_89:\n        /* \"contracts/Convert.sol\":166:173  bytes32 */\n      0x00\n        /* \"contracts/Convert.sol\":220:226  choice */\n      dup3\n        /* \"contracts/Convert.sol\":228:233  nonce */\n      dup3\n        /* \"contracts/Convert.sol\":203:234  abi.encodePacked(choice, nonce) */\n      add(0x20, mload(0x40))\n      tag_219\n      swap3\n      swap2\n      swap1\n      tag_220\n      jump\t// in\n    tag_219:\n      mload(0x40)\n      0x20\n      dup2\n      dup4\n      sub\n      sub\n      dup2\n      mstore\n      swap1\n      0x40\n      mstore\n        /* \"contracts/Convert.sol\":193:235  keccak256(abi.encodePacked(choice, nonce)) */\n      dup1\n      mload\n      swap1\n      0x20\n      add\n      keccak256\n        /* \"contracts/Convert.sol\":186:235  return keccak256(abi.encodePacked(choice, nonce)) */\n      swap1\n      pop\n        /* \"contracts/Convert.sol\":95:243  function getHash(uint256 choice, bytes32 nonce) internal pure returns (bytes32) {... */\n      swap3\n      swap2\n      pop\n      pop\n      jump\t// out\n        /* \"contracts/RPSLS.sol\":3131:3927  function _determineWinner() private {... */\n    tag_111:\n        /* \"contracts/RPSLS.sol\":3178:3194  uint256 p0Choice */\n      0x00\n        /* \"contracts/RPSLS.sol\":3197:3208  currentGame */\n      0x02\n        /* \"contracts/RPSLS.sol\":3197:3216  currentGame.choices */\n      0x04\n      add\n        /* \"contracts/RPSLS.sol\":3217:3218  0 */\n      0x00\n        /* \"contracts/RPSLS.sol\":3197:3219  currentGame.choices[0] */\n      0x02\n      dup2\n      lt\n      tag_222\n      jumpi\n      tag_223\n      tag_78\n      jump\t// in\n    tag_223:\n    tag_222:\n      add\n      sload\n        /* \"contracts/RPSLS.sol\":3178:3219  uint256 p0Choice = currentGame.choices[0] */\n      swap1\n      pop\n        /* \"contracts/RPSLS.sol\":3230:3246  uint256 p1Choice */\n      0x00\n        /* \"contracts/RPSLS.sol\":3249:3260  currentGame */\n      0x02\n        /* \"contracts/RPSLS.sol\":3249:3268  currentGame.choices */\n      0x04\n      add\n        /* \"contracts/RPSLS.sol\":3269:3270  1 */\n      0x01\n        /* \"contracts/RPSLS.sol\":3249:3271  currentGame.choices[1] */\n      0x02\n      dup2\n      lt\n      tag_225\n      jumpi\n      tag_226\n      tag_78\n      jump\t// in\n    tag_226:\n    tag_225:\n      add\n      sload\n        /* \"contracts/RPSLS.sol\":3230:3271  uint256 p1Choice = currentGame.choices[1] */\n      swap1\n      pop\n        /* \"contracts/RPSLS.sol\":3282:3315  address payable[2] memory players */\n      0x00\n        /* \"contracts/RPSLS.sol\":3282:3421  address payable[2] memory players = [... */\n      mload(0x40)\n      dup1\n      0x40\n      add\n      0x40\n      mstore\n      dup1\n        /* \"contracts/RPSLS.sol\":3341:3352  currentGame */\n      0x02\n        /* \"contracts/RPSLS.sol\":3341:3360  currentGame.players */\n      0x00\n      add\n        /* \"contracts/RPSLS.sol\":3361:3362  0 */\n      0x00\n        /* \"contracts/RPSLS.sol\":3341:3363  currentGame.players[0] */\n      0x02\n      dup2\n      lt\n      tag_228\n      jumpi\n      tag_229\n      tag_78\n      jump\t// in\n    tag_229:\n    tag_228:\n      add\n      0x00\n      swap1\n      sload\n      swap1\n      0x0100\n      exp\n      swap1\n      div\n      0xffffffffffffffffffffffffffffffffffffffff\n      and\n        /* \"contracts/RPSLS.sol\":3282:3421  address payable[2] memory players = [... */\n      0xffffffffffffffffffffffffffffffffffffffff\n      and\n      0xffffffffffffffffffffffffffffffffffffffff\n      and\n      dup2\n      mstore\n      0x20\n      add\n        /* \"contracts/RPSLS.sol\":3387:3398  currentGame */\n      0x02\n        /* \"contracts/RPSLS.sol\":3387:3406  currentGame.players */\n      0x00\n      add\n        /* \"contracts/RPSLS.sol\":3407:3408  1 */\n      0x01\n        /* \"contracts/RPSLS.sol\":3387:3409  currentGame.players[1] */\n      0x02\n      dup2\n      lt\n      tag_231\n      jumpi\n      tag_232\n      tag_78\n      jump\t// in\n    tag_232:\n    tag_231:\n      add\n      0x00\n      swap1\n      sload\n      swap1\n      0x0100\n      exp\n      swap1\n      div\n      0xffffffffffffffffffffffffffffffffffffffff\n      and\n        /* \"contracts/RPSLS.sol\":3282:3421  address payable[2] memory players = [... */\n      0xffffffffffffffffffffffffffffffffffffffff\n      and\n      0xffffffffffffffffffffffffffffffffffffffff\n      and\n      dup2\n      mstore\n      pop\n      swap1\n      pop\n        /* \"contracts/RPSLS.sol\":3434:3448  uint256 result */\n      0x00\n        /* \"contracts/RPSLS.sol\":3479:3480  5 */\n      0x05\n        /* \"contracts/RPSLS.sol\":3474:3475  5 */\n      dup1\n        /* \"contracts/RPSLS.sol\":3463:3471  p1Choice */\n      dup5\n        /* \"contracts/RPSLS.sol\":3452:3460  p0Choice */\n      dup7\n        /* \"contracts/RPSLS.sol\":3452:3471  p0Choice - p1Choice */\n      tag_234\n      swap2\n      swap1\n      tag_171\n      jump\t// in\n    tag_234:\n        /* \"contracts/RPSLS.sol\":3452:3475  p0Choice - p1Choice + 5 */\n      tag_235\n      swap2\n      swap1\n      tag_201\n      jump\t// in\n    tag_235:\n        /* \"contracts/RPSLS.sol\":3451:3480  (p0Choice - p1Choice + 5) % 5 */\n      tag_236\n      swap2\n      swap1\n      tag_237\n      jump\t// in\n    tag_236:\n        /* \"contracts/RPSLS.sol\":3434:3480  uint256 result = (p0Choice - p1Choice + 5) % 5 */\n      swap1\n      pop\n        /* \"contracts/RPSLS.sol\":3504:3505  1 */\n      0x01\n        /* \"contracts/RPSLS.sol\":3494:3500  result */\n      dup2\n        /* \"contracts/RPSLS.sol\":3494:3505  result == 1 */\n      eq\n        /* \"contracts/RPSLS.sol\":3494:3520  result == 1 || result == 3 */\n      dup1\n      tag_238\n      jumpi\n      pop\n        /* \"contracts/RPSLS.sol\":3519:3520  3 */\n      0x03\n        /* \"contracts/RPSLS.sol\":3509:3515  result */\n      dup2\n        /* \"contracts/RPSLS.sol\":3509:3520  result == 3 */\n      eq\n        /* \"contracts/RPSLS.sol\":3494:3520  result == 1 || result == 3 */\n    tag_238:\n        /* \"contracts/RPSLS.sol\":3491:3897  if(result == 1 || result == 3) {... */\n      iszero\n      tag_239\n      jumpi\n        /* \"contracts/RPSLS.sol\":3537:3544  players */\n      dup2\n        /* \"contracts/RPSLS.sol\":3545:3546  0 */\n      0x00\n        /* \"contracts/RPSLS.sol\":3537:3547  players[0] */\n      0x02\n      dup2\n      lt\n      tag_240\n      jumpi\n      tag_241\n      tag_78\n      jump\t// in\n    tag_241:\n    tag_240:\n      0x20\n      mul\n      add\n      mload\n        /* \"contracts/RPSLS.sol\":3537:3556  players[0].transfer */\n      0xffffffffffffffffffffffffffffffffffffffff\n      and\n        /* \"contracts/RPSLS.sol\":3537:3579  players[0].transfer(address(this).balance) */\n      0x08fc\n        /* \"contracts/RPSLS.sol\":3557:3578  address(this).balance */\n      selfbalance\n        /* \"contracts/RPSLS.sol\":3537:3579  players[0].transfer(address(this).balance) */\n      swap1\n      dup2\n      iszero\n      mul\n      swap1\n      mload(0x40)\n      0x00\n      mload(0x40)\n      dup1\n      dup4\n      sub\n      dup2\n      dup6\n      dup9\n      dup9\n      call\n      swap4\n      pop\n      pop\n      pop\n      pop\n      iszero\n      dup1\n      iszero\n      tag_243\n      jumpi\n      returndatasize\n      0x00\n      dup1\n      returndatacopy\n      revert(0x00, returndatasize)\n    tag_243:\n      pop\n        /* \"contracts/RPSLS.sol\":3606:3613  players */\n      dup2\n        /* \"contracts/RPSLS.sol\":3614:3615  0 */\n      0x00\n        /* \"contracts/RPSLS.sol\":3606:3616  players[0] */\n      0x02\n      dup2\n      lt\n      tag_244\n      jumpi\n      tag_245\n      tag_78\n      jump\t// in\n    tag_245:\n    tag_244:\n      0x20\n      mul\n      add\n      mload\n        /* \"contracts/RPSLS.sol\":3599:3617  Winner(players[0]) */\n      0xffffffffffffffffffffffffffffffffffffffff\n      and\n      0x745c90b656b4aafe296c8ca35aeacfe56cb96c90e1d320e5da643fff1051b6c0\n      mload(0x40)\n      mload(0x40)\n      dup1\n      swap2\n      sub\n      swap1\n      log2\n        /* \"contracts/RPSLS.sol\":3491:3897  if(result == 1 || result == 3) {... */\n      jump(tag_246)\n    tag_239:\n        /* \"contracts/RPSLS.sol\":3648:3649  2 */\n      0x02\n        /* \"contracts/RPSLS.sol\":3638:3644  result */\n      dup2\n        /* \"contracts/RPSLS.sol\":3638:3649  result == 2 */\n      eq\n        /* \"contracts/RPSLS.sol\":3638:3664  result == 2 || result == 4 */\n      dup1\n      tag_247\n      jumpi\n      pop\n        /* \"contracts/RPSLS.sol\":3663:3664  4 */\n      0x04\n        /* \"contracts/RPSLS.sol\":3653:3659  result */\n      dup2\n        /* \"contracts/RPSLS.sol\":3653:3664  result == 4 */\n      eq\n        /* \"contracts/RPSLS.sol\":3638:3664  result == 2 || result == 4 */\n    tag_247:\n        /* \"contracts/RPSLS.sol\":3635:3897  if(result == 2 || result == 4) {... */\n      iszero\n      tag_248\n      jumpi\n        /* \"contracts/RPSLS.sol\":3681:3688  players */\n      dup2\n        /* \"contracts/RPSLS.sol\":3689:3690  1 */\n      0x01\n        /* \"contracts/RPSLS.sol\":3681:3691  players[1] */\n      0x02\n      dup2\n      lt\n      tag_249\n      jumpi\n      tag_250\n      tag_78\n      jump\t// in\n    tag_250:\n    tag_249:\n      0x20\n      mul\n      add\n      mload\n        /* \"contracts/RPSLS.sol\":3681:3700  players[1].transfer */\n      0xffffffffffffffffffffffffffffffffffffffff\n      and\n        /* \"contracts/RPSLS.sol\":3681:3723  players[1].transfer(address(this).balance) */\n      0x08fc\n        /* \"contracts/RPSLS.sol\":3701:3722  address(this).balance */\n      selfbalance\n        /* \"contracts/RPSLS.sol\":3681:3723  players[1].transfer(address(this).balance) */\n      swap1\n      dup2\n      iszero\n      mul\n      swap1\n      mload(0x40)\n      0x00\n      mload(0x40)\n      dup1\n      dup4\n      sub\n      dup2\n      dup6\n      dup9\n      dup9\n      call\n      swap4\n      pop\n      pop\n      pop\n      pop\n      iszero\n      dup1\n      iszero\n      tag_252\n      jumpi\n      returndatasize\n      0x00\n      dup1\n      returndatacopy\n      revert(0x00, returndatasize)\n    tag_252:\n      pop\n        /* \"contracts/RPSLS.sol\":3750:3757  players */\n      dup2\n        /* \"contracts/RPSLS.sol\":3758:3759  1 */\n      0x01\n        /* \"contracts/RPSLS.sol\":3750:3760  players[1] */\n      0x02\n      dup2\n      lt\n      tag_253\n      jumpi\n      tag_254\n      tag_78\n      jump\t// in\n    tag_254:\n    tag_253:\n      0x20\n      mul\n      add\n      mload\n        /* \"contracts/RPSLS.sol\":3743:3761  Winner(players[1]) */\n      0xffffffffffffffffffffffffffffffffffffffff\n      and\n      0x745c90b656b4aafe296c8ca35aeacfe56cb96c90e1d320e5da643fff1051b6c0\n      mload(0x40)\n      mload(0x40)\n      dup1\n      swap2\n      sub\n      swap1\n      log2\n        /* \"contracts/RPSLS.sol\":3635:3897  if(result == 2 || result == 4) {... */\n      jump(tag_255)\n    tag_248:\n        /* \"contracts/RPSLS.sol\":3794:3801  players */\n      dup2\n        /* \"contracts/RPSLS.sol\":3802:3803  0 */\n      0x00\n        /* \"contracts/RPSLS.sol\":3794:3804  players[0] */\n      0x02\n      dup2\n      lt\n      tag_256\n      jumpi\n      tag_257\n      tag_78\n      jump\t// in\n    tag_257:\n    tag_256:\n      0x20\n      mul\n      add\n      mload\n        /* \"contracts/RPSLS.sol\":3794:3813  players[0].transfer */\n      0xffffffffffffffffffffffffffffffffffffffff\n      and\n        /* \"contracts/RPSLS.sol\":3794:3832  players[0].transfer(currentGame.stake) */\n      0x08fc\n        /* \"contracts/RPSLS.sol\":3814:3825  currentGame */\n      0x02\n        /* \"contracts/RPSLS.sol\":3814:3831  currentGame.stake */\n      0x06\n      add\n      sload\n        /* \"contracts/RPSLS.sol\":3794:3832  players[0].transfer(currentGame.stake) */\n      swap1\n      dup2\n      iszero\n      mul\n      swap1\n      mload(0x40)\n      0x00\n      mload(0x40)\n      dup1\n      dup4\n      sub\n      dup2\n      dup6\n      dup9\n      dup9\n      call\n      swap4\n      pop\n      pop\n      pop\n      pop\n      iszero\n      dup1\n      iszero\n      tag_259\n      jumpi\n      returndatasize\n      0x00\n      dup1\n      returndatacopy\n      revert(0x00, returndatasize)\n    tag_259:\n      pop\n        /* \"contracts/RPSLS.sol\":3847:3854  players */\n      dup2\n        /* \"contracts/RPSLS.sol\":3855:3856  1 */\n      0x01\n        /* \"contracts/RPSLS.sol\":3847:3857  players[1] */\n      0x02\n      dup2\n      lt\n      tag_260\n      jumpi\n      tag_261\n      tag_78\n      jump\t// in\n    tag_261:\n    tag_260:\n      0x20\n      mul\n      add\n      mload\n        /* \"contracts/RPSLS.sol\":3847:3866  players[1].transfer */\n      0xffffffffffffffffffffffffffffffffffffffff\n      and\n        /* \"contracts/RPSLS.sol\":3847:3885  players[1].transfer(currentGame.stake) */\n      0x08fc\n        /* \"contracts/RPSLS.sol\":3867:3878  currentGame */\n      0x02\n        /* \"contracts/RPSLS.sol\":3867:3884  currentGame.stake */\n      0x06\n      add\n      sload\n        /* \"contracts/RPSLS.sol\":3847:3885  players[1].transfer(currentGame.stake) */\n      swap1\n      dup2\n      iszero\n      mul\n      swap1\n      mload(0x40)\n      0x00\n      mload(0x40)\n      dup1\n      dup4\n      sub\n      dup2\n      dup6\n      dup9\n      dup9\n      call\n      swap4\n      pop\n      pop\n      pop\n      pop\n      iszero\n      dup1\n      iszero\n      tag_263\n      jumpi\n      returndatasize\n      0x00\n      dup1\n      returndatacopy\n      revert(0x00, returndatasize)\n    tag_263:\n      pop\n        /* \"contracts/RPSLS.sol\":3635:3897  if(result == 2 || result == 4) {... */\n    tag_255:\n        /* \"contracts/RPSLS.sol\":3491:3897  if(result == 1 || result == 3) {... */\n    tag_246:\n        /* \"contracts/RPSLS.sol\":3907:3919  _resetGame() */\n      tag_264\n        /* \"contracts/RPSLS.sol\":3907:3917  _resetGame */\n      tag_167\n        /* \"contracts/RPSLS.sol\":3907:3919  _resetGame() */\n      jump\t// in\n    tag_264:\n        /* \"contracts/RPSLS.sol\":3167:3927  {... */\n      pop\n      pop\n      pop\n      pop\n        /* \"contracts/RPSLS.sol\":3131:3927  function _determineWinner() private {... */\n      jump\t// out\n        /* \"contracts/RPSLS.sol\":4856:4964  function _resetGame() private {... */\n    tag_167:\n        /* \"contracts/RPSLS.sol\":4904:4915  currentGame */\n      0x02\n      0x00\n        /* \"contracts/RPSLS.sol\":4897:4915  delete currentGame */\n      dup1\n      dup3\n      add\n      0x00\n      tag_266\n      swap2\n      swap1\n      tag_267\n      jump\t// in\n    tag_266:\n      0x02\n      dup3\n      add\n      0x00\n      tag_268\n      swap2\n      swap1\n      tag_269\n      jump\t// in\n    tag_268:\n      0x04\n      dup3\n      add\n      0x00\n      tag_270\n      swap2\n      swap1\n      tag_271\n      jump\t// in\n    tag_270:\n      0x06\n      dup3\n      add\n      0x00\n      swap1\n      sstore\n      0x07\n      dup3\n      add\n      0x00\n      swap1\n      sstore\n      0x08\n      dup3\n      add\n      0x00\n      swap1\n      sstore\n      0x09\n      dup3\n      add\n      0x00\n      tag_272\n      swap2\n      swap1\n      tag_273\n      jump\t// in\n    tag_272:\n      pop\n      pop\n        /* \"contracts/RPSLS.sol\":4938:4956  GameState.Inactive */\n      0x00\n        /* \"contracts/RPSLS.sol\":4926:4935  gameState */\n      0x01\n      0x14\n        /* \"contracts/RPSLS.sol\":4926:4956  gameState = GameState.Inactive */\n      0x0100\n      exp\n      dup2\n      sload\n      dup2\n      0xff\n      mul\n      not\n      and\n      swap1\n      dup4\n      0x02\n      dup2\n      gt\n      iszero\n      tag_274\n      jumpi\n      tag_275\n      tag_67\n      jump\t// in\n    tag_275:\n    tag_274:\n      mul\n      or\n      swap1\n      sstore\n      pop\n        /* \"contracts/RPSLS.sol\":4856:4964  function _resetGame() private {... */\n      jump\t// out\n    tag_267:\n      pop\n      0x00\n      dup2\n      sstore\n      0x01\n      add\n      0x00\n      swap1\n      sstore\n      jump\t// out\n    tag_269:\n      pop\n      0x00\n      dup2\n      sstore\n      0x01\n      add\n      0x00\n      swap1\n      sstore\n      jump\t// out\n    tag_271:\n      pop\n      0x00\n      dup2\n      sstore\n      0x01\n      add\n      0x00\n      swap1\n      sstore\n      jump\t// out\n    tag_273:\n      pop\n      0x00\n      swap1\n      sstore\n      jump\t// out\n        /* \"#utility.yul\":7:84   */\n    tag_276:\n        /* \"#utility.yul\":44:51   */\n      0x00\n        /* \"#utility.yul\":73:78   */\n      dup2\n        /* \"#utility.yul\":62:78   */\n      swap1\n      pop\n        /* \"#utility.yul\":7:84   */\n      swap2\n      swap1\n      pop\n      jump\t// out\n        /* \"#utility.yul\":90:208   */\n    tag_277:\n        /* \"#utility.yul\":177:201   */\n      tag_327\n        /* \"#utility.yul\":195:200   */\n      dup2\n        /* \"#utility.yul\":177:201   */\n      tag_276\n      jump\t// in\n    tag_327:\n        /* \"#utility.yul\":172:175   */\n      dup3\n        /* \"#utility.yul\":165:202   */\n      mstore\n        /* \"#utility.yul\":90:208   */\n      pop\n      pop\n      jump\t// out\n        /* \"#utility.yul\":214:656   */\n    tag_18:\n        /* \"#utility.yul\":363:367   */\n      0x00\n        /* \"#utility.yul\":401:403   */\n      0x60\n        /* \"#utility.yul\":390:399   */\n      dup3\n        /* \"#utility.yul\":386:404   */\n      add\n        /* \"#utility.yul\":378:404   */\n      swap1\n      pop\n        /* \"#utility.yul\":414:485   */\n      tag_329\n        /* \"#utility.yul\":482:483   */\n      0x00\n        /* \"#utility.yul\":471:480   */\n      dup4\n        /* \"#utility.yul\":467:484   */\n      add\n        /* \"#utility.yul\":458:464   */\n      dup7\n        /* \"#utility.yul\":414:485   */\n      tag_277\n      jump\t// in\n    tag_329:\n        /* \"#utility.yul\":495:567   */\n      tag_330\n        /* \"#utility.yul\":563:565   */\n      0x20\n        /* \"#utility.yul\":552:561   */\n      dup4\n        /* \"#utility.yul\":548:566   */\n      add\n        /* \"#utility.yul\":539:545   */\n      dup6\n        /* \"#utility.yul\":495:567   */\n      tag_277\n      jump\t// in\n    tag_330:\n        /* \"#utility.yul\":577:649   */\n      tag_331\n        /* \"#utility.yul\":645:647   */\n      0x40\n        /* \"#utility.yul\":634:643   */\n      dup4\n        /* \"#utility.yul\":630:648   */\n      add\n        /* \"#utility.yul\":621:627   */\n      dup5\n        /* \"#utility.yul\":577:649   */\n      tag_277\n      jump\t// in\n    tag_331:\n        /* \"#utility.yul\":214:656   */\n      swap5\n      swap4\n      pop\n      pop\n      pop\n      pop\n      jump\t// out\n        /* \"#utility.yul\":662:884   */\n    tag_23:\n        /* \"#utility.yul\":755:759   */\n      0x00\n        /* \"#utility.yul\":793:795   */\n      0x20\n        /* \"#utility.yul\":782:791   */\n      dup3\n        /* \"#utility.yul\":778:796   */\n      add\n        /* \"#utility.yul\":770:796   */\n      swap1\n      pop\n        /* \"#utility.yul\":806:877   */\n      tag_333\n        /* \"#utility.yul\":874:875   */\n      0x00\n        /* \"#utility.yul\":863:872   */\n      dup4\n        /* \"#utility.yul\":859:876   */\n      add\n        /* \"#utility.yul\":850:856   */\n      dup5\n        /* \"#utility.yul\":806:877   */\n      tag_277\n      jump\t// in\n    tag_333:\n        /* \"#utility.yul\":662:884   */\n      swap3\n      swap2\n      pop\n      pop\n      jump\t// out\n        /* \"#utility.yul\":971:1088   */\n    tag_279:\n        /* \"#utility.yul\":1080:1081   */\n      0x00\n        /* \"#utility.yul\":1077:1078   */\n      dup1\n        /* \"#utility.yul\":1070:1082   */\n      revert\n        /* \"#utility.yul\":1217:1339   */\n    tag_281:\n        /* \"#utility.yul\":1290:1314   */\n      tag_338\n        /* \"#utility.yul\":1308:1313   */\n      dup2\n        /* \"#utility.yul\":1290:1314   */\n      tag_276\n      jump\t// in\n    tag_338:\n        /* \"#utility.yul\":1283:1288   */\n      dup2\n        /* \"#utility.yul\":1280:1315   */\n      eq\n        /* \"#utility.yul\":1270:1333   */\n      tag_339\n      jumpi\n        /* \"#utility.yul\":1329:1330   */\n      0x00\n        /* \"#utility.yul\":1326:1327   */\n      dup1\n        /* \"#utility.yul\":1319:1331   */\n      revert\n        /* \"#utility.yul\":1270:1333   */\n    tag_339:\n        /* \"#utility.yul\":1217:1339   */\n      pop\n      jump\t// out\n        /* \"#utility.yul\":1345:1484   */\n    tag_282:\n        /* \"#utility.yul\":1391:1396   */\n      0x00\n        /* \"#utility.yul\":1429:1435   */\n      dup2\n        /* \"#utility.yul\":1416:1436   */\n      calldataload\n        /* \"#utility.yul\":1407:1436   */\n      swap1\n      pop\n        /* \"#utility.yul\":1445:1478   */\n      tag_341\n        /* \"#utility.yul\":1472:1477   */\n      dup2\n        /* \"#utility.yul\":1445:1478   */\n      tag_281\n      jump\t// in\n    tag_341:\n        /* \"#utility.yul\":1345:1484   */\n      swap3\n      swap2\n      pop\n      pop\n      jump\t// out\n        /* \"#utility.yul\":1490:1567   */\n    tag_283:\n        /* \"#utility.yul\":1527:1534   */\n      0x00\n        /* \"#utility.yul\":1556:1561   */\n      dup2\n        /* \"#utility.yul\":1545:1561   */\n      swap1\n      pop\n        /* \"#utility.yul\":1490:1567   */\n      swap2\n      swap1\n      pop\n      jump\t// out\n        /* \"#utility.yul\":1573:1695   */\n    tag_284:\n        /* \"#utility.yul\":1646:1670   */\n      tag_344\n        /* \"#utility.yul\":1664:1669   */\n      dup2\n        /* \"#utility.yul\":1646:1670   */\n      tag_283\n      jump\t// in\n    tag_344:\n        /* \"#utility.yul\":1639:1644   */\n      dup2\n        /* \"#utility.yul\":1636:1671   */\n      eq\n        /* \"#utility.yul\":1626:1689   */\n      tag_345\n      jumpi\n        /* \"#utility.yul\":1685:1686   */\n      0x00\n        /* \"#utility.yul\":1682:1683   */\n      dup1\n        /* \"#utility.yul\":1675:1687   */\n      revert\n        /* \"#utility.yul\":1626:1689   */\n    tag_345:\n        /* \"#utility.yul\":1573:1695   */\n      pop\n      jump\t// out\n        /* \"#utility.yul\":1701:1840   */\n    tag_285:\n        /* \"#utility.yul\":1747:1752   */\n      0x00\n        /* \"#utility.yul\":1785:1791   */\n      dup2\n        /* \"#utility.yul\":1772:1792   */\n      calldataload\n        /* \"#utility.yul\":1763:1792   */\n      swap1\n      pop\n        /* \"#utility.yul\":1801:1834   */\n      tag_347\n        /* \"#utility.yul\":1828:1833   */\n      dup2\n        /* \"#utility.yul\":1801:1834   */\n      tag_284\n      jump\t// in\n    tag_347:\n        /* \"#utility.yul\":1701:1840   */\n      swap3\n      swap2\n      pop\n      pop\n      jump\t// out\n        /* \"#utility.yul\":1846:2320   */\n    tag_27:\n        /* \"#utility.yul\":1914:1920   */\n      0x00\n        /* \"#utility.yul\":1922:1928   */\n      dup1\n        /* \"#utility.yul\":1971:1973   */\n      0x40\n        /* \"#utility.yul\":1959:1968   */\n      dup4\n        /* \"#utility.yul\":1950:1957   */\n      dup6\n        /* \"#utility.yul\":1946:1969   */\n      sub\n        /* \"#utility.yul\":1942:1974   */\n      slt\n        /* \"#utility.yul\":1939:2058   */\n      iszero\n      tag_349\n      jumpi\n        /* \"#utility.yul\":1977:2056   */\n      tag_350\n      tag_279\n      jump\t// in\n    tag_350:\n        /* \"#utility.yul\":1939:2058   */\n    tag_349:\n        /* \"#utility.yul\":2097:2098   */\n      0x00\n        /* \"#utility.yul\":2122:2175   */\n      tag_351\n        /* \"#utility.yul\":2167:2174   */\n      dup6\n        /* \"#utility.yul\":2158:2164   */\n      dup3\n        /* \"#utility.yul\":2147:2156   */\n      dup7\n        /* \"#utility.yul\":2143:2165   */\n      add\n        /* \"#utility.yul\":2122:2175   */\n      tag_282\n      jump\t// in\n    tag_351:\n        /* \"#utility.yul\":2112:2175   */\n      swap3\n      pop\n        /* \"#utility.yul\":2068:2185   */\n      pop\n        /* \"#utility.yul\":2224:2226   */\n      0x20\n        /* \"#utility.yul\":2250:2303   */\n      tag_352\n        /* \"#utility.yul\":2295:2302   */\n      dup6\n        /* \"#utility.yul\":2286:2292   */\n      dup3\n        /* \"#utility.yul\":2275:2284   */\n      dup7\n        /* \"#utility.yul\":2271:2293   */\n      add\n        /* \"#utility.yul\":2250:2303   */\n      tag_285\n      jump\t// in\n    tag_352:\n        /* \"#utility.yul\":2240:2303   */\n      swap2\n      pop\n        /* \"#utility.yul\":2195:2313   */\n      pop\n        /* \"#utility.yul\":1846:2320   */\n      swap3\n      pop\n      swap3\n      swap1\n      pop\n      jump\t// out\n        /* \"#utility.yul\":2326:2452   */\n    tag_286:\n        /* \"#utility.yul\":2363:2370   */\n      0x00\n        /* \"#utility.yul\":2403:2445   */\n      0xffffffffffffffffffffffffffffffffffffffff\n        /* \"#utility.yul\":2396:2401   */\n      dup3\n        /* \"#utility.yul\":2392:2446   */\n      and\n        /* \"#utility.yul\":2381:2446   */\n      swap1\n      pop\n        /* \"#utility.yul\":2326:2452   */\n      swap2\n      swap1\n      pop\n      jump\t// out\n        /* \"#utility.yul\":2458:2518   */\n    tag_287:\n        /* \"#utility.yul\":2486:2489   */\n      0x00\n        /* \"#utility.yul\":2507:2512   */\n      dup2\n        /* \"#utility.yul\":2500:2512   */\n      swap1\n      pop\n        /* \"#utility.yul\":2458:2518   */\n      swap2\n      swap1\n      pop\n      jump\t// out\n        /* \"#utility.yul\":2524:2666   */\n    tag_288:\n        /* \"#utility.yul\":2574:2583   */\n      0x00\n        /* \"#utility.yul\":2607:2660   */\n      tag_356\n        /* \"#utility.yul\":2625:2659   */\n      tag_357\n        /* \"#utility.yul\":2634:2658   */\n      tag_358\n        /* \"#utility.yul\":2652:2657   */\n      dup5\n        /* \"#utility.yul\":2634:2658   */\n      tag_286\n      jump\t// in\n    tag_358:\n        /* \"#utility.yul\":2625:2659   */\n      tag_287\n      jump\t// in\n    tag_357:\n        /* \"#utility.yul\":2607:2660   */\n      tag_286\n      jump\t// in\n    tag_356:\n        /* \"#utility.yul\":2594:2660   */\n      swap1\n      pop\n        /* \"#utility.yul\":2524:2666   */\n      swap2\n      swap1\n      pop\n      jump\t// out\n        /* \"#utility.yul\":2672:2798   */\n    tag_289:\n        /* \"#utility.yul\":2722:2731   */\n      0x00\n        /* \"#utility.yul\":2755:2792   */\n      tag_360\n        /* \"#utility.yul\":2786:2791   */\n      dup3\n        /* \"#utility.yul\":2755:2792   */\n      tag_288\n      jump\t// in\n    tag_360:\n        /* \"#utility.yul\":2742:2792   */\n      swap1\n      pop\n        /* \"#utility.yul\":2672:2798   */\n      swap2\n      swap1\n      pop\n      jump\t// out\n        /* \"#utility.yul\":2804:2949   */\n    tag_290:\n        /* \"#utility.yul\":2873:2882   */\n      0x00\n        /* \"#utility.yul\":2906:2943   */\n      tag_362\n        /* \"#utility.yul\":2937:2942   */\n      dup3\n        /* \"#utility.yul\":2906:2943   */\n      tag_289\n      jump\t// in\n    tag_362:\n        /* \"#utility.yul\":2893:2943   */\n      swap1\n      pop\n        /* \"#utility.yul\":2804:2949   */\n      swap2\n      swap1\n      pop\n      jump\t// out\n        /* \"#utility.yul\":2955:3124   */\n    tag_291:\n        /* \"#utility.yul\":3061:3117   */\n      tag_364\n        /* \"#utility.yul\":3111:3116   */\n      dup2\n        /* \"#utility.yul\":3061:3117   */\n      tag_290\n      jump\t// in\n    tag_364:\n        /* \"#utility.yul\":3056:3059   */\n      dup3\n        /* \"#utility.yul\":3049:3118   */\n      mstore\n        /* \"#utility.yul\":2955:3124   */\n      pop\n      pop\n      jump\t// out\n        /* \"#utility.yul\":3130:3390   */\n    tag_36:\n        /* \"#utility.yul\":3242:3246   */\n      0x00\n        /* \"#utility.yul\":3280:3282   */\n      0x20\n        /* \"#utility.yul\":3269:3278   */\n      dup3\n        /* \"#utility.yul\":3265:3283   */\n      add\n        /* \"#utility.yul\":3257:3283   */\n      swap1\n      pop\n        /* \"#utility.yul\":3293:3383   */\n      tag_366\n        /* \"#utility.yul\":3380:3381   */\n      0x00\n        /* \"#utility.yul\":3369:3378   */\n      dup4\n        /* \"#utility.yul\":3365:3382   */\n      add\n        /* \"#utility.yul\":3356:3362   */\n      dup5\n        /* \"#utility.yul\":3293:3383   */\n      tag_291\n      jump\t// in\n    tag_366:\n        /* \"#utility.yul\":3130:3390   */\n      swap3\n      swap2\n      pop\n      pop\n      jump\t// out\n        /* \"#utility.yul\":3396:3725   */\n    tag_46:\n        /* \"#utility.yul\":3455:3461   */\n      0x00\n        /* \"#utility.yul\":3504:3506   */\n      0x20\n        /* \"#utility.yul\":3492:3501   */\n      dup3\n        /* \"#utility.yul\":3483:3490   */\n      dup5\n        /* \"#utility.yul\":3479:3502   */\n      sub\n        /* \"#utility.yul\":3475:3507   */\n      slt\n        /* \"#utility.yul\":3472:3591   */\n      iszero\n      tag_368\n      jumpi\n        /* \"#utility.yul\":3510:3589   */\n      tag_369\n      tag_279\n      jump\t// in\n    tag_369:\n        /* \"#utility.yul\":3472:3591   */\n    tag_368:\n        /* \"#utility.yul\":3630:3631   */\n      0x00\n        /* \"#utility.yul\":3655:3708   */\n      tag_370\n        /* \"#utility.yul\":3700:3707   */\n      dup5\n        /* \"#utility.yul\":3691:3697   */\n      dup3\n        /* \"#utility.yul\":3680:3689   */\n      dup6\n        /* \"#utility.yul\":3676:3698   */\n      add\n        /* \"#utility.yul\":3655:3708   */\n      tag_285\n      jump\t// in\n    tag_370:\n        /* \"#utility.yul\":3645:3708   */\n      swap2\n      pop\n        /* \"#utility.yul\":3601:3718   */\n      pop\n        /* \"#utility.yul\":3396:3725   */\n      swap3\n      swap2\n      pop\n      pop\n      jump\t// out\n        /* \"#utility.yul\":3731:3911   */\n    tag_67:\n        /* \"#utility.yul\":3779:3856   */\n      0x4e487b7100000000000000000000000000000000000000000000000000000000\n        /* \"#utility.yul\":3776:3777   */\n      0x00\n        /* \"#utility.yul\":3769:3857   */\n      mstore\n        /* \"#utility.yul\":3876:3880   */\n      0x21\n        /* \"#utility.yul\":3873:3874   */\n      0x04\n        /* \"#utility.yul\":3866:3881   */\n      mstore\n        /* \"#utility.yul\":3900:3904   */\n      0x24\n        /* \"#utility.yul\":3897:3898   */\n      0x00\n        /* \"#utility.yul\":3890:3905   */\n      revert\n        /* \"#utility.yul\":3917:4035   */\n    tag_292:\n        /* \"#utility.yul\":4003:4004   */\n      0x03\n        /* \"#utility.yul\":3996:4001   */\n      dup2\n        /* \"#utility.yul\":3993:4005   */\n      lt\n        /* \"#utility.yul\":3983:4029   */\n      tag_373\n      jumpi\n        /* \"#utility.yul\":4009:4027   */\n      tag_374\n      tag_67\n      jump\t// in\n    tag_374:\n        /* \"#utility.yul\":3983:4029   */\n    tag_373:\n        /* \"#utility.yul\":3917:4035   */\n      pop\n      jump\t// out\n        /* \"#utility.yul\":4041:4178   */\n    tag_293:\n        /* \"#utility.yul\":4091:4098   */\n      0x00\n        /* \"#utility.yul\":4120:4125   */\n      dup2\n        /* \"#utility.yul\":4109:4125   */\n      swap1\n      pop\n        /* \"#utility.yul\":4126:4172   */\n      tag_376\n        /* \"#utility.yul\":4166:4171   */\n      dup3\n        /* \"#utility.yul\":4126:4172   */\n      tag_292\n      jump\t// in\n    tag_376:\n        /* \"#utility.yul\":4041:4178   */\n      swap2\n      swap1\n      pop\n      jump\t// out\n        /* \"#utility.yul\":4184:4321   */\n    tag_294:\n        /* \"#utility.yul\":4245:4254   */\n      0x00\n        /* \"#utility.yul\":4278:4315   */\n      tag_378\n        /* \"#utility.yul\":4309:4314   */\n      dup3\n        /* \"#utility.yul\":4278:4315   */\n      tag_293\n      jump\t// in\n    tag_378:\n        /* \"#utility.yul\":4265:4315   */\n      swap1\n      pop\n        /* \"#utility.yul\":4184:4321   */\n      swap2\n      swap1\n      pop\n      jump\t// out\n        /* \"#utility.yul\":4327:4480   */\n    tag_295:\n        /* \"#utility.yul\":4425:4473   */\n      tag_380\n        /* \"#utility.yul\":4467:4472   */\n      dup2\n        /* \"#utility.yul\":4425:4473   */\n      tag_294\n      jump\t// in\n    tag_380:\n        /* \"#utility.yul\":4420:4423   */\n      dup3\n        /* \"#utility.yul\":4413:4474   */\n      mstore\n        /* \"#utility.yul\":4327:4480   */\n      pop\n      pop\n      jump\t// out\n        /* \"#utility.yul\":4486:4730   */\n    tag_52:\n        /* \"#utility.yul\":4590:4594   */\n      0x00\n        /* \"#utility.yul\":4628:4630   */\n      0x20\n        /* \"#utility.yul\":4617:4626   */\n      dup3\n        /* \"#utility.yul\":4613:4631   */\n      add\n        /* \"#utility.yul\":4605:4631   */\n      swap1\n      pop\n        /* \"#utility.yul\":4641:4723   */\n      tag_382\n        /* \"#utility.yul\":4720:4721   */\n      0x00\n        /* \"#utility.yul\":4709:4718   */\n      dup4\n        /* \"#utility.yul\":4705:4722   */\n      add\n        /* \"#utility.yul\":4696:4702   */\n      dup5\n        /* \"#utility.yul\":4641:4723   */\n      tag_295\n      jump\t// in\n    tag_382:\n        /* \"#utility.yul\":4486:4730   */\n      swap3\n      swap2\n      pop\n      pop\n      jump\t// out\n        /* \"#utility.yul\":4736:4832   */\n    tag_296:\n        /* \"#utility.yul\":4773:4780   */\n      0x00\n        /* \"#utility.yul\":4802:4826   */\n      tag_384\n        /* \"#utility.yul\":4820:4825   */\n      dup3\n        /* \"#utility.yul\":4802:4826   */\n      tag_286\n      jump\t// in\n    tag_384:\n        /* \"#utility.yul\":4791:4826   */\n      swap1\n      pop\n        /* \"#utility.yul\":4736:4832   */\n      swap2\n      swap1\n      pop\n      jump\t// out\n        /* \"#utility.yul\":4838:4960   */\n    tag_297:\n        /* \"#utility.yul\":4911:4935   */\n      tag_386\n        /* \"#utility.yul\":4929:4934   */\n      dup2\n        /* \"#utility.yul\":4911:4935   */\n      tag_296\n      jump\t// in\n    tag_386:\n        /* \"#utility.yul\":4904:4909   */\n      dup2\n        /* \"#utility.yul\":4901:4936   */\n      eq\n        /* \"#utility.yul\":4891:4954   */\n      tag_387\n      jumpi\n        /* \"#utility.yul\":4950:4951   */\n      0x00\n        /* \"#utility.yul\":4947:4948   */\n      dup1\n        /* \"#utility.yul\":4940:4952   */\n      revert\n        /* \"#utility.yul\":4891:4954   */\n    tag_387:\n        /* \"#utility.yul\":4838:4960   */\n      pop\n      jump\t// out\n        /* \"#utility.yul\":4966:5105   */\n    tag_298:\n        /* \"#utility.yul\":5012:5017   */\n      0x00\n        /* \"#utility.yul\":5050:5056   */\n      dup2\n        /* \"#utility.yul\":5037:5057   */\n      calldataload\n        /* \"#utility.yul\":5028:5057   */\n      swap1\n      pop\n        /* \"#utility.yul\":5066:5099   */\n      tag_389\n        /* \"#utility.yul\":5093:5098   */\n      dup2\n        /* \"#utility.yul\":5066:5099   */\n      tag_297\n      jump\t// in\n    tag_389:\n        /* \"#utility.yul\":4966:5105   */\n      swap3\n      swap2\n      pop\n      pop\n      jump\t// out\n        /* \"#utility.yul\":5111:5440   */\n    tag_60:\n        /* \"#utility.yul\":5170:5176   */\n      0x00\n        /* \"#utility.yul\":5219:5221   */\n      0x20\n        /* \"#utility.yul\":5207:5216   */\n      dup3\n        /* \"#utility.yul\":5198:5205   */\n      dup5\n        /* \"#utility.yul\":5194:5217   */\n      sub\n        /* \"#utility.yul\":5190:5222   */\n      slt\n        /* \"#utility.yul\":5187:5306   */\n      iszero\n      tag_391\n      jumpi\n        /* \"#utility.yul\":5225:5304   */\n      tag_392\n      tag_279\n      jump\t// in\n    tag_392:\n        /* \"#utility.yul\":5187:5306   */\n    tag_391:\n        /* \"#utility.yul\":5345:5346   */\n      0x00\n        /* \"#utility.yul\":5370:5423   */\n      tag_393\n        /* \"#utility.yul\":5415:5422   */\n      dup5\n        /* \"#utility.yul\":5406:5412   */\n      dup3\n        /* \"#utility.yul\":5395:5404   */\n      dup6\n        /* \"#utility.yul\":5391:5413   */\n      add\n        /* \"#utility.yul\":5370:5423   */\n      tag_298\n      jump\t// in\n    tag_393:\n        /* \"#utility.yul\":5360:5423   */\n      swap2\n      pop\n        /* \"#utility.yul\":5316:5433   */\n      pop\n        /* \"#utility.yul\":5111:5440   */\n      swap3\n      swap2\n      pop\n      pop\n      jump\t// out\n        /* \"#utility.yul\":5446:5536   */\n    tag_299:\n        /* \"#utility.yul\":5480:5487   */\n      0x00\n        /* \"#utility.yul\":5523:5528   */\n      dup2\n        /* \"#utility.yul\":5516:5529   */\n      iszero\n        /* \"#utility.yul\":5509:5530   */\n      iszero\n        /* \"#utility.yul\":5498:5530   */\n      swap1\n      pop\n        /* \"#utility.yul\":5446:5536   */\n      swap2\n      swap1\n      pop\n      jump\t// out\n        /* \"#utility.yul\":5542:5651   */\n    tag_300:\n        /* \"#utility.yul\":5623:5644   */\n      tag_396\n        /* \"#utility.yul\":5638:5643   */\n      dup2\n        /* \"#utility.yul\":5623:5644   */\n      tag_299\n      jump\t// in\n    tag_396:\n        /* \"#utility.yul\":5618:5621   */\n      dup3\n        /* \"#utility.yul\":5611:5645   */\n      mstore\n        /* \"#utility.yul\":5542:5651   */\n      pop\n      pop\n      jump\t// out\n        /* \"#utility.yul\":5657:5867   */\n    tag_63:\n        /* \"#utility.yul\":5744:5748   */\n      0x00\n        /* \"#utility.yul\":5782:5784   */\n      0x20\n        /* \"#utility.yul\":5771:5780   */\n      dup3\n        /* \"#utility.yul\":5767:5785   */\n      add\n        /* \"#utility.yul\":5759:5785   */\n      swap1\n      pop\n        /* \"#utility.yul\":5795:5860   */\n      tag_398\n        /* \"#utility.yul\":5857:5858   */\n      0x00\n        /* \"#utility.yul\":5846:5855   */\n      dup4\n        /* \"#utility.yul\":5842:5859   */\n      add\n        /* \"#utility.yul\":5833:5839   */\n      dup5\n        /* \"#utility.yul\":5795:5860   */\n      tag_300\n      jump\t// in\n    tag_398:\n        /* \"#utility.yul\":5657:5867   */\n      swap3\n      swap2\n      pop\n      pop\n      jump\t// out\n        /* \"#utility.yul\":5873:6042   */\n    tag_301:\n        /* \"#utility.yul\":5957:5968   */\n      0x00\n        /* \"#utility.yul\":5991:5997   */\n      dup3\n        /* \"#utility.yul\":5986:5989   */\n      dup3\n        /* \"#utility.yul\":5979:5998   */\n      mstore\n        /* \"#utility.yul\":6031:6035   */\n      0x20\n        /* \"#utility.yul\":6026:6029   */\n      dup3\n        /* \"#utility.yul\":6022:6036   */\n      add\n        /* \"#utility.yul\":6007:6036   */\n      swap1\n      pop\n        /* \"#utility.yul\":5873:6042   */\n      swap3\n      swap2\n      pop\n      pop\n      jump\t// out\n        /* \"#utility.yul\":6048:6217   */\n    tag_302:\n        /* \"#utility.yul\":6188:6209   */\n      0x4e6f7420696e2072657665616c20706861736500000000000000000000000000\n        /* \"#utility.yul\":6184:6185   */\n      0x00\n        /* \"#utility.yul\":6176:6182   */\n      dup3\n        /* \"#utility.yul\":6172:6186   */\n      add\n        /* \"#utility.yul\":6165:6210   */\n      mstore\n        /* \"#utility.yul\":6048:6217   */\n      pop\n      jump\t// out\n        /* \"#utility.yul\":6223:6589   */\n    tag_303:\n        /* \"#utility.yul\":6365:6368   */\n      0x00\n        /* \"#utility.yul\":6386:6453   */\n      tag_402\n        /* \"#utility.yul\":6450:6452   */\n      0x13\n        /* \"#utility.yul\":6445:6448   */\n      dup4\n        /* \"#utility.yul\":6386:6453   */\n      tag_301\n      jump\t// in\n    tag_402:\n        /* \"#utility.yul\":6379:6453   */\n      swap2\n      pop\n        /* \"#utility.yul\":6462:6555   */\n      tag_403\n        /* \"#utility.yul\":6551:6554   */\n      dup3\n        /* \"#utility.yul\":6462:6555   */\n      tag_302\n      jump\t// in\n    tag_403:\n        /* \"#utility.yul\":6580:6582   */\n      0x20\n        /* \"#utility.yul\":6575:6578   */\n      dup3\n        /* \"#utility.yul\":6571:6583   */\n      add\n        /* \"#utility.yul\":6564:6583   */\n      swap1\n      pop\n        /* \"#utility.yul\":6223:6589   */\n      swap2\n      swap1\n      pop\n      jump\t// out\n        /* \"#utility.yul\":6595:7014   */\n    tag_72:\n        /* \"#utility.yul\":6761:6765   */\n      0x00\n        /* \"#utility.yul\":6799:6801   */\n      0x20\n        /* \"#utility.yul\":6788:6797   */\n      dup3\n        /* \"#utility.yul\":6784:6802   */\n      add\n        /* \"#utility.yul\":6776:6802   */\n      swap1\n      pop\n        /* \"#utility.yul\":6848:6857   */\n      dup2\n        /* \"#utility.yul\":6842:6846   */\n      dup2\n        /* \"#utility.yul\":6838:6858   */\n      sub\n        /* \"#utility.yul\":6834:6835   */\n      0x00\n        /* \"#utility.yul\":6823:6832   */\n      dup4\n        /* \"#utility.yul\":6819:6836   */\n      add\n        /* \"#utility.yul\":6812:6859   */\n      mstore\n        /* \"#utility.yul\":6876:7007   */\n      tag_405\n        /* \"#utility.yul\":7002:7006   */\n      dup2\n        /* \"#utility.yul\":6876:7007   */\n      tag_303\n      jump\t// in\n    tag_405:\n        /* \"#utility.yul\":6868:7007   */\n      swap1\n      pop\n        /* \"#utility.yul\":6595:7014   */\n      swap2\n      swap1\n      pop\n      jump\t// out\n        /* \"#utility.yul\":7020:7184   */\n    tag_304:\n        /* \"#utility.yul\":7160:7176   */\n      0x496e76616c69642063686f696365000000000000000000000000000000000000\n        /* \"#utility.yul\":7156:7157   */\n      0x00\n        /* \"#utility.yul\":7148:7154   */\n      dup3\n        /* \"#utility.yul\":7144:7158   */\n      add\n        /* \"#utility.yul\":7137:7177   */\n      mstore\n        /* \"#utility.yul\":7020:7184   */\n      pop\n      jump\t// out\n        /* \"#utility.yul\":7190:7556   */\n    tag_305:\n        /* \"#utility.yul\":7332:7335   */\n      0x00\n        /* \"#utility.yul\":7353:7420   */\n      tag_408\n        /* \"#utility.yul\":7417:7419   */\n      0x0e\n        /* \"#utility.yul\":7412:7415   */\n      dup4\n        /* \"#utility.yul\":7353:7420   */\n      tag_301\n      jump\t// in\n    tag_408:\n        /* \"#utility.yul\":7346:7420   */\n      swap2\n      pop\n        /* \"#utility.yul\":7429:7522   */\n      tag_409\n        /* \"#utility.yul\":7518:7521   */\n      dup3\n        /* \"#utility.yul\":7429:7522   */\n      tag_304\n      jump\t// in\n    tag_409:\n        /* \"#utility.yul\":7547:7549   */\n      0x20\n        /* \"#utility.yul\":7542:7545   */\n      dup3\n        /* \"#utility.yul\":7538:7550   */\n      add\n        /* \"#utility.yul\":7531:7550   */\n      swap1\n      pop\n        /* \"#utility.yul\":7190:7556   */\n      swap2\n      swap1\n      pop\n      jump\t// out\n        /* \"#utility.yul\":7562:7981   */\n    tag_75:\n        /* \"#utility.yul\":7728:7732   */\n      0x00\n        /* \"#utility.yul\":7766:7768   */\n      0x20\n        /* \"#utility.yul\":7755:7764   */\n      dup3\n        /* \"#utility.yul\":7751:7769   */\n      add\n        /* \"#utility.yul\":7743:7769   */\n      swap1\n      pop\n        /* \"#utility.yul\":7815:7824   */\n      dup2\n        /* \"#utility.yul\":7809:7813   */\n      dup2\n        /* \"#utility.yul\":7805:7825   */\n      sub\n        /* \"#utility.yul\":7801:7802   */\n      0x00\n        /* \"#utility.yul\":7790:7799   */\n      dup4\n        /* \"#utility.yul\":7786:7803   */\n      add\n        /* \"#utility.yul\":7779:7826   */\n      mstore\n        /* \"#utility.yul\":7843:7974   */\n      tag_411\n        /* \"#utility.yul\":7969:7973   */\n      dup2\n        /* \"#utility.yul\":7843:7974   */\n      tag_305\n      jump\t// in\n    tag_411:\n        /* \"#utility.yul\":7835:7974   */\n      swap1\n      pop\n        /* \"#utility.yul\":7562:7981   */\n      swap2\n      swap1\n      pop\n      jump\t// out\n        /* \"#utility.yul\":7987:8167   */\n    tag_78:\n        /* \"#utility.yul\":8035:8112   */\n      0x4e487b7100000000000000000000000000000000000000000000000000000000\n        /* \"#utility.yul\":8032:8033   */\n      0x00\n        /* \"#utility.yul\":8025:8113   */\n      mstore\n        /* \"#utility.yul\":8132:8136   */\n      0x32\n        /* \"#utility.yul\":8129:8130   */\n      0x04\n        /* \"#utility.yul\":8122:8137   */\n      mstore\n        /* \"#utility.yul\":8156:8160   */\n      0x24\n        /* \"#utility.yul\":8153:8154   */\n      0x00\n        /* \"#utility.yul\":8146:8161   */\n      revert\n        /* \"#utility.yul\":8173:8339   */\n    tag_306:\n        /* \"#utility.yul\":8313:8331   */\n      0x416c72656164792072657665616c656400000000000000000000000000000000\n        /* \"#utility.yul\":8309:8310   */\n      0x00\n        /* \"#utility.yul\":8301:8307   */\n      dup3\n        /* \"#utility.yul\":8297:8311   */\n      add\n        /* \"#utility.yul\":8290:8332   */\n      mstore\n        /* \"#utility.yul\":8173:8339   */\n      pop\n      jump\t// out\n        /* \"#utility.yul\":8345:8711   */\n    tag_307:\n        /* \"#utility.yul\":8487:8490   */\n      0x00\n        /* \"#utility.yul\":8508:8575   */\n      tag_415\n        /* \"#utility.yul\":8572:8574   */\n      0x10\n        /* \"#utility.yul\":8567:8570   */\n      dup4\n        /* \"#utility.yul\":8508:8575   */\n      tag_301\n      jump\t// in\n    tag_415:\n        /* \"#utility.yul\":8501:8575   */\n      swap2\n      pop\n        /* \"#utility.yul\":8584:8677   */\n      tag_416\n        /* \"#utility.yul\":8673:8676   */\n      dup3\n        /* \"#utility.yul\":8584:8677   */\n      tag_306\n      jump\t// in\n    tag_416:\n        /* \"#utility.yul\":8702:8704   */\n      0x20\n        /* \"#utility.yul\":8697:8700   */\n      dup3\n        /* \"#utility.yul\":8693:8705   */\n      add\n        /* \"#utility.yul\":8686:8705   */\n      swap1\n      pop\n        /* \"#utility.yul\":8345:8711   */\n      swap2\n      swap1\n      pop\n      jump\t// out\n        /* \"#utility.yul\":8717:9136   */\n    tag_87:\n        /* \"#utility.yul\":8883:8887   */\n      0x00\n        /* \"#utility.yul\":8921:8923   */\n      0x20\n        /* \"#utility.yul\":8910:8919   */\n      dup3\n        /* \"#utility.yul\":8906:8924   */\n      add\n        /* \"#utility.yul\":8898:8924   */\n      swap1\n      pop\n        /* \"#utility.yul\":8970:8979   */\n      dup2\n        /* \"#utility.yul\":8964:8968   */\n      dup2\n        /* \"#utility.yul\":8960:8980   */\n      sub\n        /* \"#utility.yul\":8956:8957   */\n      0x00\n        /* \"#utility.yul\":8945:8954   */\n      dup4\n        /* \"#utility.yul\":8941:8958   */\n      add\n        /* \"#utility.yul\":8934:8981   */\n      mstore\n        /* \"#utility.yul\":8998:9129   */\n      tag_418\n        /* \"#utility.yul\":9124:9128   */\n      dup2\n        /* \"#utility.yul\":8998:9129   */\n      tag_307\n      jump\t// in\n    tag_418:\n        /* \"#utility.yul\":8990:9129   */\n      swap1\n      pop\n        /* \"#utility.yul\":8717:9136   */\n      swap2\n      swap1\n      pop\n      jump\t// out\n        /* \"#utility.yul\":9142:9306   */\n    tag_308:\n        /* \"#utility.yul\":9282:9298   */\n      0x496e76616c69642072657665616c000000000000000000000000000000000000\n        /* \"#utility.yul\":9278:9279   */\n      0x00\n        /* \"#utility.yul\":9270:9276   */\n      dup3\n        /* \"#utility.yul\":9266:9280   */\n      add\n        /* \"#utility.yul\":9259:9299   */\n      mstore\n        /* \"#utility.yul\":9142:9306   */\n      pop\n      jump\t// out\n        /* \"#utility.yul\":9312:9678   */\n    tag_309:\n        /* \"#utility.yul\":9454:9457   */\n      0x00\n        /* \"#utility.yul\":9475:9542   */\n      tag_421\n        /* \"#utility.yul\":9539:9541   */\n      0x0e\n        /* \"#utility.yul\":9534:9537   */\n      dup4\n        /* \"#utility.yul\":9475:9542   */\n      tag_301\n      jump\t// in\n    tag_421:\n        /* \"#utility.yul\":9468:9542   */\n      swap2\n      pop\n        /* \"#utility.yul\":9551:9644   */\n      tag_422\n        /* \"#utility.yul\":9640:9643   */\n      dup3\n        /* \"#utility.yul\":9551:9644   */\n      tag_308\n      jump\t// in\n    tag_422:\n        /* \"#utility.yul\":9669:9671   */\n      0x20\n        /* \"#utility.yul\":9664:9667   */\n      dup3\n        /* \"#utility.yul\":9660:9672   */\n      add\n        /* \"#utility.yul\":9653:9672   */\n      swap1\n      pop\n        /* \"#utility.yul\":9312:9678   */\n      swap2\n      swap1\n      pop\n      jump\t// out\n        /* \"#utility.yul\":9684:10103   */\n    tag_95:\n        /* \"#utility.yul\":9850:9854   */\n      0x00\n        /* \"#utility.yul\":9888:9890   */\n      0x20\n        /* \"#utility.yul\":9877:9886   */\n      dup3\n        /* \"#utility.yul\":9873:9891   */\n      add\n        /* \"#utility.yul\":9865:9891   */\n      swap1\n      pop\n        /* \"#utility.yul\":9937:9946   */\n      dup2\n        /* \"#utility.yul\":9931:9935   */\n      dup2\n        /* \"#utility.yul\":9927:9947   */\n      sub\n        /* \"#utility.yul\":9923:9924   */\n      0x00\n        /* \"#utility.yul\":9912:9921   */\n      dup4\n        /* \"#utility.yul\":9908:9925   */\n      add\n        /* \"#utility.yul\":9901:9948   */\n      mstore\n        /* \"#utility.yul\":9965:10096   */\n      tag_424\n        /* \"#utility.yul\":10091:10095   */\n      dup2\n        /* \"#utility.yul\":9965:10096   */\n      tag_309\n      jump\t// in\n    tag_424:\n        /* \"#utility.yul\":9957:10096   */\n      swap1\n      pop\n        /* \"#utility.yul\":9684:10103   */\n      swap2\n      swap1\n      pop\n      jump\t// out\n        /* \"#utility.yul\":10109:10268   */\n    tag_310:\n        /* \"#utility.yul\":10249:10260   */\n      0x546f6f206561726c790000000000000000000000000000000000000000000000\n        /* \"#utility.yul\":10245:10246   */\n      0x00\n        /* \"#utility.yul\":10237:10243   */\n      dup3\n        /* \"#utility.yul\":10233:10247   */\n      add\n        /* \"#utility.yul\":10226:10261   */\n      mstore\n        /* \"#utility.yul\":10109:10268   */\n      pop\n      jump\t// out\n        /* \"#utility.yul\":10274:10639   */\n    tag_311:\n        /* \"#utility.yul\":10416:10419   */\n      0x00\n        /* \"#utility.yul\":10437:10503   */\n      tag_427\n        /* \"#utility.yul\":10501:10502   */\n      0x09\n        /* \"#utility.yul\":10496:10499   */\n      dup4\n        /* \"#utility.yul\":10437:10503   */\n      tag_301\n      jump\t// in\n    tag_427:\n        /* \"#utility.yul\":10430:10503   */\n      swap2\n      pop\n        /* \"#utility.yul\":10512:10605   */\n      tag_428\n        /* \"#utility.yul\":10601:10604   */\n      dup3\n        /* \"#utility.yul\":10512:10605   */\n      tag_310\n      jump\t// in\n    tag_428:\n        /* \"#utility.yul\":10630:10632   */\n      0x20\n        /* \"#utility.yul\":10625:10628   */\n      dup3\n        /* \"#utility.yul\":10621:10633   */\n      add\n        /* \"#utility.yul\":10614:10633   */\n      swap1\n      pop\n        /* \"#utility.yul\":10274:10639   */\n      swap2\n      swap1\n      pop\n      jump\t// out\n        /* \"#utility.yul\":10645:11064   */\n    tag_116:\n        /* \"#utility.yul\":10811:10815   */\n      0x00\n        /* \"#utility.yul\":10849:10851   */\n      0x20\n        /* \"#utility.yul\":10838:10847   */\n      dup3\n        /* \"#utility.yul\":10834:10852   */\n      add\n        /* \"#utility.yul\":10826:10852   */\n      swap1\n      pop\n        /* \"#utility.yul\":10898:10907   */\n      dup2\n        /* \"#utility.yul\":10892:10896   */\n      dup2\n        /* \"#utility.yul\":10888:10908   */\n      sub\n        /* \"#utility.yul\":10884:10885   */\n      0x00\n        /* \"#utility.yul\":10873:10882   */\n      dup4\n        /* \"#utility.yul\":10869:10886   */\n      add\n        /* \"#utility.yul\":10862:10909   */\n      mstore\n        /* \"#utility.yul\":10926:11057   */\n      tag_430\n        /* \"#utility.yul\":11052:11056   */\n      dup2\n        /* \"#utility.yul\":10926:11057   */\n      tag_311\n      jump\t// in\n    tag_430:\n        /* \"#utility.yul\":10918:11057   */\n      swap1\n      pop\n        /* \"#utility.yul\":10645:11064   */\n      swap2\n      swap1\n      pop\n      jump\t// out\n        /* \"#utility.yul\":11070:11250   */\n    tag_312:\n        /* \"#utility.yul\":11118:11195   */\n      0x4e487b7100000000000000000000000000000000000000000000000000000000\n        /* \"#utility.yul\":11115:11116   */\n      0x00\n        /* \"#utility.yul\":11108:11196   */\n      mstore\n        /* \"#utility.yul\":11215:11219   */\n      0x11\n        /* \"#utility.yul\":11212:11213   */\n      0x04\n        /* \"#utility.yul\":11205:11220   */\n      mstore\n        /* \"#utility.yul\":11239:11243   */\n      0x24\n        /* \"#utility.yul\":11236:11237   */\n      0x00\n        /* \"#utility.yul\":11229:11244   */\n      revert\n        /* \"#utility.yul\":11256:11450   */\n    tag_171:\n        /* \"#utility.yul\":11296:11300   */\n      0x00\n        /* \"#utility.yul\":11316:11336   */\n      tag_433\n        /* \"#utility.yul\":11334:11335   */\n      dup3\n        /* \"#utility.yul\":11316:11336   */\n      tag_276\n      jump\t// in\n    tag_433:\n        /* \"#utility.yul\":11311:11336   */\n      swap2\n      pop\n        /* \"#utility.yul\":11350:11370   */\n      tag_434\n        /* \"#utility.yul\":11368:11369   */\n      dup4\n        /* \"#utility.yul\":11350:11370   */\n      tag_276\n      jump\t// in\n    tag_434:\n        /* \"#utility.yul\":11345:11370   */\n      swap3\n      pop\n        /* \"#utility.yul\":11394:11395   */\n      dup3\n        /* \"#utility.yul\":11391:11392   */\n      dup3\n        /* \"#utility.yul\":11387:11396   */\n      sub\n        /* \"#utility.yul\":11379:11396   */\n      swap1\n      pop\n        /* \"#utility.yul\":11418:11419   */\n      dup2\n        /* \"#utility.yul\":11412:11416   */\n      dup2\n        /* \"#utility.yul\":11409:11420   */\n      gt\n        /* \"#utility.yul\":11406:11443   */\n      iszero\n      tag_435\n      jumpi\n        /* \"#utility.yul\":11423:11441   */\n      tag_436\n      tag_312\n      jump\t// in\n    tag_436:\n        /* \"#utility.yul\":11406:11443   */\n    tag_435:\n        /* \"#utility.yul\":11256:11450   */\n      swap3\n      swap2\n      pop\n      pop\n      jump\t// out\n        /* \"#utility.yul\":11456:11625   */\n    tag_313:\n        /* \"#utility.yul\":11596:11617   */\n      0x41646472657373206e6f7420616c6c6f77656400000000000000000000000000\n        /* \"#utility.yul\":11592:11593   */\n      0x00\n        /* \"#utility.yul\":11584:11590   */\n      dup3\n        /* \"#utility.yul\":11580:11594   */\n      add\n        /* \"#utility.yul\":11573:11618   */\n      mstore\n        /* \"#utility.yul\":11456:11625   */\n      pop\n      jump\t// out\n        /* \"#utility.yul\":11631:11997   */\n    tag_314:\n        /* \"#utility.yul\":11773:11776   */\n      0x00\n        /* \"#utility.yul\":11794:11861   */\n      tag_439\n        /* \"#utility.yul\":11858:11860   */\n      0x13\n        /* \"#utility.yul\":11853:11856   */\n      dup4\n        /* \"#utility.yul\":11794:11861   */\n      tag_301\n      jump\t// in\n    tag_439:\n        /* \"#utility.yul\":11787:11861   */\n      swap2\n      pop\n        /* \"#utility.yul\":11870:11963   */\n      tag_440\n        /* \"#utility.yul\":11959:11962   */\n      dup3\n        /* \"#utility.yul\":11870:11963   */\n      tag_313\n      jump\t// in\n    tag_440:\n        /* \"#utility.yul\":11988:11990   */\n      0x20\n        /* \"#utility.yul\":11983:11986   */\n      dup3\n        /* \"#utility.yul\":11979:11991   */\n      add\n        /* \"#utility.yul\":11972:11991   */\n      swap1\n      pop\n        /* \"#utility.yul\":11631:11997   */\n      swap2\n      swap1\n      pop\n      jump\t// out\n        /* \"#utility.yul\":12003:12422   */\n    tag_175:\n        /* \"#utility.yul\":12169:12173   */\n      0x00\n        /* \"#utility.yul\":12207:12209   */\n      0x20\n        /* \"#utility.yul\":12196:12205   */\n      dup3\n        /* \"#utility.yul\":12192:12210   */\n      add\n        /* \"#utility.yul\":12184:12210   */\n      swap1\n      pop\n        /* \"#utility.yul\":12256:12265   */\n      dup2\n        /* \"#utility.yul\":12250:12254   */\n      dup2\n        /* \"#utility.yul\":12246:12266   */\n      sub\n        /* \"#utility.yul\":12242:12243   */\n      0x00\n        /* \"#utility.yul\":12231:12240   */\n      dup4\n        /* \"#utility.yul\":12227:12244   */\n      add\n        /* \"#utility.yul\":12220:12267   */\n      mstore\n        /* \"#utility.yul\":12284:12415   */\n      tag_442\n        /* \"#utility.yul\":12410:12414   */\n      dup2\n        /* \"#utility.yul\":12284:12415   */\n      tag_314\n      jump\t// in\n    tag_442:\n        /* \"#utility.yul\":12276:12415   */\n      swap1\n      pop\n        /* \"#utility.yul\":12003:12422   */\n      swap2\n      swap1\n      pop\n      jump\t// out\n        /* \"#utility.yul\":12428:12597   */\n    tag_315:\n        /* \"#utility.yul\":12568:12589   */\n      0x5374616b65206d75737420626520312045544800000000000000000000000000\n        /* \"#utility.yul\":12564:12565   */\n      0x00\n        /* \"#utility.yul\":12556:12562   */\n      dup3\n        /* \"#utility.yul\":12552:12566   */\n      add\n        /* \"#utility.yul\":12545:12590   */\n      mstore\n        /* \"#utility.yul\":12428:12597   */\n      pop\n      jump\t// out\n        /* \"#utility.yul\":12603:12969   */\n    tag_316:\n        /* \"#utility.yul\":12745:12748   */\n      0x00\n        /* \"#utility.yul\":12766:12833   */\n      tag_445\n        /* \"#utility.yul\":12830:12832   */\n      0x13\n        /* \"#utility.yul\":12825:12828   */\n      dup4\n        /* \"#utility.yul\":12766:12833   */\n      tag_301\n      jump\t// in\n    tag_445:\n        /* \"#utility.yul\":12759:12833   */\n      swap2\n      pop\n        /* \"#utility.yul\":12842:12935   */\n      tag_446\n        /* \"#utility.yul\":12931:12934   */\n      dup3\n        /* \"#utility.yul\":12842:12935   */\n      tag_315\n      jump\t// in\n    tag_446:\n        /* \"#utility.yul\":12960:12962   */\n      0x20\n        /* \"#utility.yul\":12955:12958   */\n      dup3\n        /* \"#utility.yul\":12951:12963   */\n      add\n        /* \"#utility.yul\":12944:12963   */\n      swap1\n      pop\n        /* \"#utility.yul\":12603:12969   */\n      swap2\n      swap1\n      pop\n      jump\t// out\n        /* \"#utility.yul\":12975:13394   */\n    tag_179:\n        /* \"#utility.yul\":13141:13145   */\n      0x00\n        /* \"#utility.yul\":13179:13181   */\n      0x20\n        /* \"#utility.yul\":13168:13177   */\n      dup3\n        /* \"#utility.yul\":13164:13182   */\n      add\n        /* \"#utility.yul\":13156:13182   */\n      swap1\n      pop\n        /* \"#utility.yul\":13228:13237   */\n      dup2\n        /* \"#utility.yul\":13222:13226   */\n      dup2\n        /* \"#utility.yul\":13218:13238   */\n      sub\n        /* \"#utility.yul\":13214:13215   */\n      0x00\n        /* \"#utility.yul\":13203:13212   */\n      dup4\n        /* \"#utility.yul\":13199:13216   */\n      add\n        /* \"#utility.yul\":13192:13239   */\n      mstore\n        /* \"#utility.yul\":13256:13387   */\n      tag_448\n        /* \"#utility.yul\":13382:13386   */\n      dup2\n        /* \"#utility.yul\":13256:13387   */\n      tag_316\n      jump\t// in\n    tag_448:\n        /* \"#utility.yul\":13248:13387   */\n      swap1\n      pop\n        /* \"#utility.yul\":12975:13394   */\n      swap2\n      swap1\n      pop\n      jump\t// out\n        /* \"#utility.yul\":13400:13559   */\n    tag_317:\n        /* \"#utility.yul\":13540:13551   */\n      0x47616d652066756c6c0000000000000000000000000000000000000000000000\n        /* \"#utility.yul\":13536:13537   */\n      0x00\n        /* \"#utility.yul\":13528:13534   */\n      dup3\n        /* \"#utility.yul\":13524:13538   */\n      add\n        /* \"#utility.yul\":13517:13552   */\n      mstore\n        /* \"#utility.yul\":13400:13559   */\n      pop\n      jump\t// out\n        /* \"#utility.yul\":13565:13930   */\n    tag_318:\n        /* \"#utility.yul\":13707:13710   */\n      0x00\n        /* \"#utility.yul\":13728:13794   */\n      tag_451\n        /* \"#utility.yul\":13792:13793   */\n      0x09\n        /* \"#utility.yul\":13787:13790   */\n      dup4\n        /* \"#utility.yul\":13728:13794   */\n      tag_301\n      jump\t// in\n    tag_451:\n        /* \"#utility.yul\":13721:13794   */\n      swap2\n      pop\n        /* \"#utility.yul\":13803:13896   */\n      tag_452\n        /* \"#utility.yul\":13892:13895   */\n      dup3\n        /* \"#utility.yul\":13803:13896   */\n      tag_317\n      jump\t// in\n    tag_452:\n        /* \"#utility.yul\":13921:13923   */\n      0x20\n        /* \"#utility.yul\":13916:13919   */\n      dup3\n        /* \"#utility.yul\":13912:13924   */\n      add\n        /* \"#utility.yul\":13905:13924   */\n      swap1\n      pop\n        /* \"#utility.yul\":13565:13930   */\n      swap2\n      swap1\n      pop\n      jump\t// out\n        /* \"#utility.yul\":13936:14355   */\n    tag_189:\n        /* \"#utility.yul\":14102:14106   */\n      0x00\n        /* \"#utility.yul\":14140:14142   */\n      0x20\n        /* \"#utility.yul\":14129:14138   */\n      dup3\n        /* \"#utility.yul\":14125:14143   */\n      add\n        /* \"#utility.yul\":14117:14143   */\n      swap1\n      pop\n        /* \"#utility.yul\":14189:14198   */\n      dup2\n        /* \"#utility.yul\":14183:14187   */\n      dup2\n        /* \"#utility.yul\":14179:14199   */\n      sub\n        /* \"#utility.yul\":14175:14176   */\n      0x00\n        /* \"#utility.yul\":14164:14173   */\n      dup4\n        /* \"#utility.yul\":14160:14177   */\n      add\n        /* \"#utility.yul\":14153:14200   */\n      mstore\n        /* \"#utility.yul\":14217:14348   */\n      tag_454\n        /* \"#utility.yul\":14343:14347   */\n      dup2\n        /* \"#utility.yul\":14217:14348   */\n      tag_318\n      jump\t// in\n    tag_454:\n        /* \"#utility.yul\":14209:14348   */\n      swap1\n      pop\n        /* \"#utility.yul\":13936:14355   */\n      swap2\n      swap1\n      pop\n      jump\t// out\n        /* \"#utility.yul\":14361:14552   */\n    tag_201:\n        /* \"#utility.yul\":14401:14404   */\n      0x00\n        /* \"#utility.yul\":14420:14440   */\n      tag_456\n        /* \"#utility.yul\":14438:14439   */\n      dup3\n        /* \"#utility.yul\":14420:14440   */\n      tag_276\n      jump\t// in\n    tag_456:\n        /* \"#utility.yul\":14415:14440   */\n      swap2\n      pop\n        /* \"#utility.yul\":14454:14474   */\n      tag_457\n        /* \"#utility.yul\":14472:14473   */\n      dup4\n        /* \"#utility.yul\":14454:14474   */\n      tag_276\n      jump\t// in\n    tag_457:\n        /* \"#utility.yul\":14449:14474   */\n      swap3\n      pop\n        /* \"#utility.yul\":14497:14498   */\n      dup3\n        /* \"#utility.yul\":14494:14495   */\n      dup3\n        /* \"#utility.yul\":14490:14499   */\n      add\n        /* \"#utility.yul\":14483:14499   */\n      swap1\n      pop\n        /* \"#utility.yul\":14518:14521   */\n      dup1\n        /* \"#utility.yul\":14515:14516   */\n      dup3\n        /* \"#utility.yul\":14512:14522   */\n      gt\n        /* \"#utility.yul\":14509:14545   */\n      iszero\n      tag_458\n      jumpi\n        /* \"#utility.yul\":14525:14543   */\n      tag_459\n      tag_312\n      jump\t// in\n    tag_459:\n        /* \"#utility.yul\":14509:14545   */\n    tag_458:\n        /* \"#utility.yul\":14361:14552   */\n      swap3\n      swap2\n      pop\n      pop\n      jump\t// out\n        /* \"#utility.yul\":14558:14738   */\n    tag_319:\n        /* \"#utility.yul\":14606:14683   */\n      0x4e487b7100000000000000000000000000000000000000000000000000000000\n        /* \"#utility.yul\":14603:14604   */\n      0x00\n        /* \"#utility.yul\":14596:14684   */\n      mstore\n        /* \"#utility.yul\":14703:14707   */\n      0x12\n        /* \"#utility.yul\":14700:14701   */\n      0x04\n        /* \"#utility.yul\":14693:14708   */\n      mstore\n        /* \"#utility.yul\":14727:14731   */\n      0x24\n        /* \"#utility.yul\":14724:14725   */\n      0x00\n        /* \"#utility.yul\":14717:14732   */\n      revert\n        /* \"#utility.yul\":14744:14929   */\n    tag_217:\n        /* \"#utility.yul\":14784:14785   */\n      0x00\n        /* \"#utility.yul\":14801:14821   */\n      tag_462\n        /* \"#utility.yul\":14819:14820   */\n      dup3\n        /* \"#utility.yul\":14801:14821   */\n      tag_276\n      jump\t// in\n    tag_462:\n        /* \"#utility.yul\":14796:14821   */\n      swap2\n      pop\n        /* \"#utility.yul\":14835:14855   */\n      tag_463\n        /* \"#utility.yul\":14853:14854   */\n      dup4\n        /* \"#utility.yul\":14835:14855   */\n      tag_276\n      jump\t// in\n    tag_463:\n        /* \"#utility.yul\":14830:14855   */\n      swap3\n      pop\n        /* \"#utility.yul\":14874:14875   */\n      dup3\n        /* \"#utility.yul\":14864:14899   */\n      tag_464\n      jumpi\n        /* \"#utility.yul\":14879:14897   */\n      tag_465\n      tag_319\n      jump\t// in\n    tag_465:\n        /* \"#utility.yul\":14864:14899   */\n    tag_464:\n        /* \"#utility.yul\":14921:14922   */\n      dup3\n        /* \"#utility.yul\":14918:14919   */\n      dup3\n        /* \"#utility.yul\":14914:14923   */\n      div\n        /* \"#utility.yul\":14909:14923   */\n      swap1\n      pop\n        /* \"#utility.yul\":14744:14929   */\n      swap3\n      swap2\n      pop\n      pop\n      jump\t// out\n        /* \"#utility.yul\":14935:15014   */\n    tag_320:\n        /* \"#utility.yul\":14974:14981   */\n      0x00\n        /* \"#utility.yul\":15003:15008   */\n      dup2\n        /* \"#utility.yul\":14992:15008   */\n      swap1\n      pop\n        /* \"#utility.yul\":14935:15014   */\n      swap2\n      swap1\n      pop\n      jump\t// out\n        /* \"#utility.yul\":15020:15177   */\n    tag_321:\n        /* \"#utility.yul\":15125:15170   */\n      tag_468\n        /* \"#utility.yul\":15145:15169   */\n      tag_469\n        /* \"#utility.yul\":15163:15168   */\n      dup3\n        /* \"#utility.yul\":15145:15169   */\n      tag_276\n      jump\t// in\n    tag_469:\n        /* \"#utility.yul\":15125:15170   */\n      tag_320\n      jump\t// in\n    tag_468:\n        /* \"#utility.yul\":15120:15123   */\n      dup3\n        /* \"#utility.yul\":15113:15171   */\n      mstore\n        /* \"#utility.yul\":15020:15177   */\n      pop\n      pop\n      jump\t// out\n        /* \"#utility.yul\":15183:15262   */\n    tag_322:\n        /* \"#utility.yul\":15222:15229   */\n      0x00\n        /* \"#utility.yul\":15251:15256   */\n      dup2\n        /* \"#utility.yul\":15240:15256   */\n      swap1\n      pop\n        /* \"#utility.yul\":15183:15262   */\n      swap2\n      swap1\n      pop\n      jump\t// out\n        /* \"#utility.yul\":15268:15425   */\n    tag_323:\n        /* \"#utility.yul\":15373:15418   */\n      tag_472\n        /* \"#utility.yul\":15393:15417   */\n      tag_473\n        /* \"#utility.yul\":15411:15416   */\n      dup3\n        /* \"#utility.yul\":15393:15417   */\n      tag_283\n      jump\t// in\n    tag_473:\n        /* \"#utility.yul\":15373:15418   */\n      tag_322\n      jump\t// in\n    tag_472:\n        /* \"#utility.yul\":15368:15371   */\n      dup3\n        /* \"#utility.yul\":15361:15419   */\n      mstore\n        /* \"#utility.yul\":15268:15425   */\n      pop\n      pop\n      jump\t// out\n        /* \"#utility.yul\":15431:15828   */\n    tag_220:\n        /* \"#utility.yul\":15571:15574   */\n      0x00\n        /* \"#utility.yul\":15586:15661   */\n      tag_475\n        /* \"#utility.yul\":15657:15660   */\n      dup3\n        /* \"#utility.yul\":15648:15654   */\n      dup6\n        /* \"#utility.yul\":15586:15661   */\n      tag_321\n      jump\t// in\n    tag_475:\n        /* \"#utility.yul\":15686:15688   */\n      0x20\n        /* \"#utility.yul\":15681:15684   */\n      dup3\n        /* \"#utility.yul\":15677:15689   */\n      add\n        /* \"#utility.yul\":15670:15689   */\n      swap2\n      pop\n        /* \"#utility.yul\":15699:15774   */\n      tag_476\n        /* \"#utility.yul\":15770:15773   */\n      dup3\n        /* \"#utility.yul\":15761:15767   */\n      dup5\n        /* \"#utility.yul\":15699:15774   */\n      tag_323\n      jump\t// in\n    tag_476:\n        /* \"#utility.yul\":15799:15801   */\n      0x20\n        /* \"#utility.yul\":15794:15797   */\n      dup3\n        /* \"#utility.yul\":15790:15802   */\n      add\n        /* \"#utility.yul\":15783:15802   */\n      swap2\n      pop\n        /* \"#utility.yul\":15819:15822   */\n      dup2\n        /* \"#utility.yul\":15812:15822   */\n      swap1\n      pop\n        /* \"#utility.yul\":15431:15828   */\n      swap4\n      swap3\n      pop\n      pop\n      pop\n      jump\t// out\n        /* \"#utility.yul\":15834:16010   */\n    tag_237:\n        /* \"#utility.yul\":15866:15867   */\n      0x00\n        /* \"#utility.yul\":15883:15903   */\n      tag_478\n        /* \"#utility.yul\":15901:15902   */\n      dup3\n        /* \"#utility.yul\":15883:15903   */\n      tag_276\n      jump\t// in\n    tag_478:\n        /* \"#utility.yul\":15878:15903   */\n      swap2\n      pop\n        /* \"#utility.yul\":15917:15937   */\n      tag_479\n        /* \"#utility.yul\":15935:15936   */\n      dup4\n        /* \"#utility.yul\":15917:15937   */\n      tag_276\n      jump\t// in\n    tag_479:\n        /* \"#utility.yul\":15912:15937   */\n      swap3\n      pop\n        /* \"#utility.yul\":15956:15957   */\n      dup3\n        /* \"#utility.yul\":15946:15981   */\n      tag_480\n      jumpi\n        /* \"#utility.yul\":15961:15979   */\n      tag_481\n      tag_319\n      jump\t// in\n    tag_481:\n        /* \"#utility.yul\":15946:15981   */\n    tag_480:\n        /* \"#utility.yul\":16002:16003   */\n      dup3\n        /* \"#utility.yul\":15999:16000   */\n      dup3\n        /* \"#utility.yul\":15995:16004   */\n      mod\n        /* \"#utility.yul\":15990:16004   */\n      swap1\n      pop\n        /* \"#utility.yul\":15834:16010   */\n      swap3\n      swap2\n      pop\n      pop\n      jump\t// out\n\n    auxdata: 0xa2646970667358221220c04dda8648808976c9732bd2fe845422c559cfccd054c89c98cdd6227fe1709564736f6c634300081a0033\n}\n",
				"bytecode": {
					"linkReferences": {},
					"object": "608060405234801561000f575f80fd5b50604051611de8380380611de883398181016040528101906100319190610279565b8060015f6101000a81548173ffffffffffffffffffffffffffffffffffffffff021916908373ffffffffffffffffffffffffffffffffffffffff1602179055506001600c5f735b38da6a701c568545dcfcb03fcb875f56beddc473ffffffffffffffffffffffffffffffffffffffff1673ffffffffffffffffffffffffffffffffffffffff1681526020019081526020015f205f6101000a81548160ff0219169083151502179055506001600c5f73ab8483f64d9c6d1ecf9b849ae677dd3315835cb273ffffffffffffffffffffffffffffffffffffffff1673ffffffffffffffffffffffffffffffffffffffff1681526020019081526020015f205f6101000a81548160ff0219169083151502179055506001600c5f734b20993bc481177ec7e8f571cecae8a9e22c02db73ffffffffffffffffffffffffffffffffffffffff1673ffffffffffffffffffffffffffffffffffffffff1681526020019081526020015f205f6101000a81548160ff0219169083151502179055506001600c5f7378731d3ca6b7e34ac0f824c42a7cc18a495cabab73ffffffffffffffffffffffffffffffffffffffff1673ffffffffffffffffffffffffffffffffffffffff1681526020019081526020015f205f6101000a81548160ff021916908315150217905550506102a4565b5f80fd5b5f73ffffffffffffffffffffffffffffffffffffffff82169050919050565b5f6102488261021f565b9050919050565b6102588161023e565b8114610262575f80fd5b50565b5f815190506102738161024f565b92915050565b5f6020828403121561028e5761028d61021b565b5b5f61029b84828501610265565b91505092915050565b611b37806102b15f395ff3fe60806040526004361061009b575f3560e01c8063a63f7c5311610063578063a63f7c531461015d578063bc06b8cd14610173578063bf4747661461019d578063d1f9c24d146101b9578063d97c8416146101e3578063e84ebc291461020d5761009b565b806360b663bb1461009f57806378e97925146100cb5780638c10bb96146100f55780639c15d1a21461011d5780639d7b3f2d14610133575b5f80fd5b3480156100aa575f80fd5b506100b3610249565b6040516100c293929190611329565b60405180910390f35b3480156100d6575f80fd5b506100df610261565b6040516100ec919061135e565b60405180910390f35b348015610100575f80fd5b5061011b600480360381019061011691906113d8565b610266565b005b348015610128575f80fd5b50610131610578565b005b34801561013e575f80fd5b506101476109ad565b6040516101549190611490565b60405180910390f35b348015610168575f80fd5b506101716109d2565b005b34801561017e575f80fd5b506101876109da565b604051610194919061135e565b60405180910390f35b6101b760048036038101906101b291906114a9565b6109ed565b005b3480156101c4575f80fd5b506101cd610e3a565b6040516101da9190611547565b60405180910390f35b3480156101ee575f80fd5b506101f7610e4d565b604051610204919061135e565b60405180910390f35b348015610218575f80fd5b50610233600480360381019061022e919061159b565b610e6c565b60405161024091906115e0565b60405180910390f35b60028060060154908060070154908060080154905083565b5f5481565b600280811115610279576102786114d4565b5b600160149054906101000a900460ff16600281111561029b5761029a6114d4565b5b146102db576040517f08c379a00000000000000000000000000000000000000000000000000000000081526004016102d290611653565b60405180910390fd5b6005821061031e576040517f08c379a0000000000000000000000000000000000000000000000000000000008152600401610315906116bb565b60405180910390fd5b5f3373ffffffffffffffffffffffffffffffffffffffff1660025f015f6002811061034c5761034b6116d9565b5b015f9054906101000a900473ffffffffffffffffffffffffffffffffffffffff1673ffffffffffffffffffffffffffffffffffffffff161461038f576001610391565b5f5b60ff169050600260090181600281106103ad576103ac6116d9565b5b602091828204019190069054906101000a900460ff1615610403576040517f08c379a00000000000000000000000000000000000000000000000000000000081526004016103fa90611750565b60405180910390fd5b5f61040e8484610e89565b9050600280018260028110610426576104256116d9565b5b01548114610469576040517f08c379a0000000000000000000000000000000000000000000000000000000008152600401610460906117b8565b60405180910390fd5b8360026004018360028110610481576104806116d9565b5b018190555060016002600901836002811061049f5761049e6116d9565b5b602091828204019190066101000a81548160ff02191690831515021790555060026009015f600281106104d5576104d46116d9565b5b602091828204019190069054906101000a900460ff1680156105215750600260090160016002811061050a576105096116d9565b5b602091828204019190069054906101000a900460ff165b1561052f5761052e610ebb565b5b3373ffffffffffffffffffffffffffffffffffffffff167fb43a48f4b5fe1b13780390dc7b039206c4f81535c0fda507c687d7e921eb18bb60405160405180910390a250505050565b60026007015442118061058f575060026008015442115b6105ce576040517f08c379a00000000000000000000000000000000000000000000000000000000081526004016105c590611820565b60405180910390fd5b600160028111156105e2576105e16114d4565b5b600160149054906101000a900460ff166002811115610604576106036114d4565b5b0361068d5760025f015f6002811061061f5761061e6116d9565b5b015f9054906101000a900473ffffffffffffffffffffffffffffffffffffffff1673ffffffffffffffffffffffffffffffffffffffff166108fc60026006015490811502906040515f60405180830381858888f19350505050158015610687573d5f803e3d5ffd5b50610960565b60026009015f600281106106a4576106a36116d9565b5b602091828204019190069054906101000a900460ff1680156106f1575060026009016001600281106106d9576106d86116d9565b5b602091828204019190069054906101000a900460ff16155b156107755760025f015f6002811061070c5761070b6116d9565b5b015f9054906101000a900473ffffffffffffffffffffffffffffffffffffffff1673ffffffffffffffffffffffffffffffffffffffff166108fc4790811502906040515f60405180830381858888f1935050505015801561076f573d5f803e3d5ffd5b5061095f565b600260090160016002811061078d5761078c6116d9565b5b602091828204019190069054906101000a900460ff1680156107d9575060026009015f600281106107c1576107c06116d9565b5b602091828204019190069054906101000a900460ff16155b1561085e5760025f016001600281106107f5576107f46116d9565b5b015f9054906101000a900473ffffffffffffffffffffffffffffffffffffffff1673ffffffffffffffffffffffffffffffffffffffff166108fc4790811502906040515f60405180830381858888f19350505050158015610858573d5f803e3d5ffd5b5061095e565b60025f015f60028110610874576108736116d9565b5b015f9054906101000a900473ffffffffffffffffffffffffffffffffffffffff1673ffffffffffffffffffffffffffffffffffffffff166108fc60026006015490811502906040515f60405180830381858888f193505050501580156108dc573d5f803e3d5ffd5b5060025f016001600281106108f4576108f36116d9565b5b015f9054906101000a900473ffffffffffffffffffffffffffffffffffffffff1673ffffffffffffffffffffffffffffffffffffffff166108fc60026006015490811502906040515f60405180830381858888f1935050505015801561095c573d5f803e3d5ffd5b505b5b5b3373ffffffffffffffffffffffffffffffffffffffff167f71b8d288b6b795cd40378095d6a9c6466eb4a081c0238dfd691b0b1f5868f18060405160405180910390a26109ab611266565b565b60015f9054906101000a900473ffffffffffffffffffffffffffffffffffffffff1681565b425f81905550565b5f8054426109e8919061186b565b905090565b600c5f3373ffffffffffffffffffffffffffffffffffffffff1673ffffffffffffffffffffffffffffffffffffffff1681526020019081526020015f205f9054906101000a900460ff16610a76576040517f08c379a0000000000000000000000000000000000000000000000000000000008152600401610a6d906118e8565b60405180910390fd5b670de0b6b3a76400003414610ac0576040517f08c379a0000000000000000000000000000000000000000000000000000000008152600401610ab790611950565b60405180910390fd5b5f73ffffffffffffffffffffffffffffffffffffffff1660025f015f60028110610aed57610aec6116d9565b5b015f9054906101000a900473ffffffffffffffffffffffffffffffffffffffff1673ffffffffffffffffffffffffffffffffffffffff161480610b9257505f73ffffffffffffffffffffffffffffffffffffffff1660025f01600160028110610b5957610b586116d9565b5b015f9054906101000a900473ffffffffffffffffffffffffffffffffffffffff1673ffffffffffffffffffffffffffffffffffffffff16145b610bd1576040517f08c379a0000000000000000000000000000000000000000000000000000000008152600401610bc8906119b8565b60405180910390fd5b5f73ffffffffffffffffffffffffffffffffffffffff1660025f015f60028110610bfe57610bfd6116d9565b5b015f9054906101000a900473ffffffffffffffffffffffffffffffffffffffff1673ffffffffffffffffffffffffffffffffffffffff1603610d3e573360025f015f60028110610c5157610c506116d9565b5b015f6101000a81548173ffffffffffffffffffffffffffffffffffffffff021916908373ffffffffffffffffffffffffffffffffffffffff16021790555080600280015f60028110610ca657610ca56116d9565b5b01819055503460026006018190555061012c42610cc391906119d6565b60026007018190555060018060146101000a81548160ff02191690836002811115610cf157610cf06114d4565b5b02179055503373ffffffffffffffffffffffffffffffffffffffff167f67cf7f1535e1c1323fe4e76266f7d55f0c1f67fdf449db65e014f9d35881514d60405160405180910390a2610df4565b3360025f01600160028110610d5657610d556116d9565b5b015f6101000a81548173ffffffffffffffffffffffffffffffffffffffff021916908373ffffffffffffffffffffffffffffffffffffffff1602179055508060028001600160028110610dac57610dab6116d9565b5b018190555061012c42610dbf91906119d6565b6002600801819055506002600160146101000a81548160ff02191690836002811115610dee57610ded6114d4565b5b02179055505b3373ffffffffffffffffffffffffffffffffffffffff167f385d85909904c479680cfb49104dd25dd686a79a13b842e5ab5f1fab8fa0fb2a60405160405180910390a250565b600160149054906101000a900460ff1681565b5f603c5f5442610e5d919061186b565b610e679190611a36565b905090565b600c602052805f5260405f205f915054906101000a900460ff1681565b5f8282604051602001610e9d929190611aa6565b60405160208183030381529060405280519060200120905092915050565b5f60026004015f60028110610ed357610ed26116d9565b5b015490505f6002600401600160028110610ef057610eef6116d9565b5b015490505f604051806040016040528060025f015f60028110610f1657610f156116d9565b5b015f9054906101000a900473ffffffffffffffffffffffffffffffffffffffff1673ffffffffffffffffffffffffffffffffffffffff1673ffffffffffffffffffffffffffffffffffffffff16815260200160025f01600160028110610f7f57610f7e6116d9565b5b015f9054906101000a900473ffffffffffffffffffffffffffffffffffffffff1673ffffffffffffffffffffffffffffffffffffffff1673ffffffffffffffffffffffffffffffffffffffff1681525090505f6005808486610fe1919061186b565b610feb91906119d6565b610ff59190611ad1565b905060018114806110065750600381145b156110c557815f6002811061101e5761101d6116d9565b5b602002015173ffffffffffffffffffffffffffffffffffffffff166108fc4790811502906040515f60405180830381858888f19350505050158015611065573d5f803e3d5ffd5b50815f60028110611079576110786116d9565b5b602002015173ffffffffffffffffffffffffffffffffffffffff167f745c90b656b4aafe296c8ca35aeacfe56cb96c90e1d320e5da643fff1051b6c060405160405180910390a2611258565b60028114806110d45750600481145b1561119557816001600281106110ed576110ec6116d9565b5b602002015173ffffffffffffffffffffffffffffffffffffffff166108fc4790811502906040515f60405180830381858888f19350505050158015611134573d5f803e3d5ffd5b5081600160028110611149576111486116d9565b5b602002015173ffffffffffffffffffffffffffffffffffffffff167f745c90b656b4aafe296c8ca35aeacfe56cb96c90e1d320e5da643fff1051b6c060405160405180910390a2611257565b815f600281106111a8576111a76116d9565b5b602002015173ffffffffffffffffffffffffffffffffffffffff166108fc60026006015490811502906040515f60405180830381858888f193505050501580156111f4573d5f803e3d5ffd5b5081600160028110611209576112086116d9565b5b602002015173ffffffffffffffffffffffffffffffffffffffff166108fc60026006015490811502906040515f60405180830381858888f19350505050158015611255573d5f803e3d5ffd5b505b5b611260611266565b50505050565b60025f8082015f61127791906112e7565b600282015f61128691906112f3565b600482015f61129591906112ff565b600682015f9055600782015f9055600882015f9055600982015f6112b9919061130b565b50505f600160146101000a81548160ff021916908360028111156112e0576112df6114d4565b5b0217905550565b505f81556001015f9055565b505f81556001015f9055565b505f81556001015f9055565b505f9055565b5f819050919050565b61132381611311565b82525050565b5f60608201905061133c5f83018661131a565b611349602083018561131a565b611356604083018461131a565b949350505050565b5f6020820190506113715f83018461131a565b92915050565b5f80fd5b61138481611311565b811461138e575f80fd5b50565b5f8135905061139f8161137b565b92915050565b5f819050919050565b6113b7816113a5565b81146113c1575f80fd5b50565b5f813590506113d2816113ae565b92915050565b5f80604083850312156113ee576113ed611377565b5b5f6113fb85828601611391565b925050602061140c858286016113c4565b9150509250929050565b5f73ffffffffffffffffffffffffffffffffffffffff82169050919050565b5f819050919050565b5f61145861145361144e84611416565b611435565b611416565b9050919050565b5f6114698261143e565b9050919050565b5f61147a8261145f565b9050919050565b61148a81611470565b82525050565b5f6020820190506114a35f830184611481565b92915050565b5f602082840312156114be576114bd611377565b5b5f6114cb848285016113c4565b91505092915050565b7f4e487b71000000000000000000000000000000000000000000000000000000005f52602160045260245ffd5b60038110611512576115116114d4565b5b50565b5f81905061152282611501565b919050565b5f61153182611515565b9050919050565b61154181611527565b82525050565b5f60208201905061155a5f830184611538565b92915050565b5f61156a82611416565b9050919050565b61157a81611560565b8114611584575f80fd5b50565b5f8135905061159581611571565b92915050565b5f602082840312156115b0576115af611377565b5b5f6115bd84828501611587565b91505092915050565b5f8115159050919050565b6115da816115c6565b82525050565b5f6020820190506115f35f8301846115d1565b92915050565b5f82825260208201905092915050565b7f4e6f7420696e2072657665616c207068617365000000000000000000000000005f82015250565b5f61163d6013836115f9565b915061164882611609565b602082019050919050565b5f6020820190508181035f83015261166a81611631565b9050919050565b7f496e76616c69642063686f6963650000000000000000000000000000000000005f82015250565b5f6116a5600e836115f9565b91506116b082611671565b602082019050919050565b5f6020820190508181035f8301526116d281611699565b9050919050565b7f4e487b71000000000000000000000000000000000000000000000000000000005f52603260045260245ffd5b7f416c72656164792072657665616c6564000000000000000000000000000000005f82015250565b5f61173a6010836115f9565b915061174582611706565b602082019050919050565b5f6020820190508181035f8301526117678161172e565b9050919050565b7f496e76616c69642072657665616c0000000000000000000000000000000000005f82015250565b5f6117a2600e836115f9565b91506117ad8261176e565b602082019050919050565b5f6020820190508181035f8301526117cf81611796565b9050919050565b7f546f6f206561726c7900000000000000000000000000000000000000000000005f82015250565b5f61180a6009836115f9565b9150611815826117d6565b602082019050919050565b5f6020820190508181035f830152611837816117fe565b9050919050565b7f4e487b71000000000000000000000000000000000000000000000000000000005f52601160045260245ffd5b5f61187582611311565b915061188083611311565b92508282039050818111156118985761189761183e565b5b92915050565b7f41646472657373206e6f7420616c6c6f776564000000000000000000000000005f82015250565b5f6118d26013836115f9565b91506118dd8261189e565b602082019050919050565b5f6020820190508181035f8301526118ff816118c6565b9050919050565b7f5374616b65206d757374206265203120455448000000000000000000000000005f82015250565b5f61193a6013836115f9565b915061194582611906565b602082019050919050565b5f6020820190508181035f8301526119678161192e565b9050919050565b7f47616d652066756c6c00000000000000000000000000000000000000000000005f82015250565b5f6119a26009836115f9565b91506119ad8261196e565b602082019050919050565b5f6020820190508181035f8301526119cf81611996565b9050919050565b5f6119e082611311565b91506119eb83611311565b9250828201905080821115611a0357611a0261183e565b5b92915050565b7f4e487b71000000000000000000000000000000000000000000000000000000005f52601260045260245ffd5b5f611a4082611311565b9150611a4b83611311565b925082611a5b57611a5a611a09565b5b828204905092915050565b5f819050919050565b611a80611a7b82611311565b611a66565b82525050565b5f819050919050565b611aa0611a9b826113a5565b611a86565b82525050565b5f611ab18285611a6f565b602082019150611ac18284611a8f565b6020820191508190509392505050565b5f611adb82611311565b9150611ae683611311565b925082611af657611af5611a09565b5b82820690509291505056fea2646970667358221220c04dda8648808976c9732bd2fe845422c559cfccd054c89c98cdd6227fe1709564736f6c634300081a0033",
					"opcodes": "PUSH1 0x80 PUSH1 0x40 MSTORE CALLVALUE DUP1 ISZERO PUSH2 0xF JUMPI PUSH0 DUP1 REVERT JUMPDEST POP PUSH1 0x40 MLOAD PUSH2 0x1DE8 CODESIZE SUB DUP1 PUSH2 0x1DE8 DUP4 CODECOPY DUP2 DUP2 ADD PUSH1 0x40 MSTORE DUP2 ADD SWAP1 PUSH2 0x31 SWAP2 SWAP1 PUSH2 0x279 JUMP JUMPDEST DUP1 PUSH1 0x1 PUSH0 PUSH2 0x100 EXP DUP2 SLOAD DUP2 PUSH20 0xFFFFFFFFFFFFFFFFFFFFFFFFFFFFFFFFFFFFFFFF MUL NOT AND SWAP1 DUP4 PUSH20 0xFFFFFFFFFFFFFFFFFFFFFFFFFFFFFFFFFFFFFFFF AND MUL OR SWAP1 SSTORE POP PUSH1 0x1 PUSH1 0xC PUSH0 PUSH20 0x5B38DA6A701C568545DCFCB03FCB875F56BEDDC4 PUSH20 0xFFFFFFFFFFFFFFFFFFFFFFFFFFFFFFFFFFFFFFFF AND PUSH20 0xFFFFFFFFFFFFFFFFFFFFFFFFFFFFFFFFFFFFFFFF AND DUP2 MSTORE PUSH1 0x20 ADD SWAP1 DUP2 MSTORE PUSH1 0x20 ADD PUSH0 KECCAK256 PUSH0 PUSH2 0x100 EXP DUP2 SLOAD DUP2 PUSH1 0xFF MUL NOT AND SWAP1 DUP4 ISZERO ISZERO MUL OR SWAP1 SSTORE POP PUSH1 0x1 PUSH1 0xC PUSH0 PUSH20 0xAB8483F64D9C6D1ECF9B849AE677DD3315835CB2 PUSH20 0xFFFFFFFFFFFFFFFFFFFFFFFFFFFFFFFFFFFFFFFF AND PUSH20 0xFFFFFFFFFFFFFFFFFFFFFFFFFFFFFFFFFFFFFFFF AND DUP2 MSTORE PUSH1 0x20 ADD SWAP1 DUP2 MSTORE PUSH1 0x20 ADD PUSH0 KECCAK256 PUSH0 PUSH2 0x100 EXP DUP2 SLOAD DUP2 PUSH1 0xFF MUL NOT AND SWAP1 DUP4 ISZERO ISZERO MUL OR SWAP1 SSTORE POP PUSH1 0x1 PUSH1 0xC PUSH0 PUSH20 0x4B20993BC481177EC7E8F571CECAE8A9E22C02DB PUSH20 0xFFFFFFFFFFFFFFFFFFFFFFFFFFFFFFFFFFFFFFFF AND PUSH20 0xFFFFFFFFFFFFFFFFFFFFFFFFFFFFFFFFFFFFFFFF AND DUP2 MSTORE PUSH1 0x20 ADD SWAP1 DUP2 MSTORE PUSH1 0x20 ADD PUSH0 KECCAK256 PUSH0 PUSH2 0x100 EXP DUP2 SLOAD DUP2 PUSH1 0xFF MUL NOT AND SWAP1 DUP4 ISZERO ISZERO MUL OR SWAP1 SSTORE POP PUSH1 0x1 PUSH1 0xC PUSH0 PUSH20 0x78731D3CA6B7E34AC0F824C42A7CC18A495CABAB PUSH20 0xFFFFFFFFFFFFFFFFFFFFFFFFFFFFFFFFFFFFFFFF AND PUSH20 0xFFFFFFFFFFFFFFFFFFFFFFFFFFFFFFFFFFFFFFFF AND DUP2 MSTORE PUSH1 0x20 ADD SWAP1 DUP2 MSTORE PUSH1 0x20 ADD PUSH0 KECCAK256 PUSH0 PUSH2 0x100 EXP DUP2 SLOAD DUP2 PUSH1 0xFF MUL NOT AND SWAP1 DUP4 ISZERO ISZERO MUL OR SWAP1 SSTORE POP POP PUSH2 0x2A4 JUMP JUMPDEST PUSH0 DUP1 REVERT JUMPDEST PUSH0 PUSH20 0xFFFFFFFFFFFFFFFFFFFFFFFFFFFFFFFFFFFFFFFF DUP3 AND SWAP1 POP SWAP2 SWAP1 POP JUMP JUMPDEST PUSH0 PUSH2 0x248 DUP3 PUSH2 0x21F JUMP JUMPDEST SWAP1 POP SWAP2 SWAP1 POP JUMP JUMPDEST PUSH2 0x258 DUP2 PUSH2 0x23E JUMP JUMPDEST DUP2 EQ PUSH2 0x262 JUMPI PUSH0 DUP1 REVERT JUMPDEST POP JUMP JUMPDEST PUSH0 DUP2 MLOAD SWAP1 POP PUSH2 0x273 DUP2 PUSH2 0x24F JUMP JUMPDEST SWAP3 SWAP2 POP POP JUMP JUMPDEST PUSH0 PUSH1 0x20 DUP3 DUP5 SUB SLT ISZERO PUSH2 0x28E JUMPI PUSH2 0x28D PUSH2 0x21B JUMP JUMPDEST JUMPDEST PUSH0 PUSH2 0x29B DUP5 DUP3 DUP6 ADD PUSH2 0x265 JUMP JUMPDEST SWAP2 POP POP SWAP3 SWAP2 POP POP JUMP JUMPDEST PUSH2 0x1B37 DUP1 PUSH2 0x2B1 PUSH0 CODECOPY PUSH0 RETURN INVALID PUSH1 0x80 PUSH1 0x40 MSTORE PUSH1 0x4 CALLDATASIZE LT PUSH2 0x9B JUMPI PUSH0 CALLDATALOAD PUSH1 0xE0 SHR DUP1 PUSH4 0xA63F7C53 GT PUSH2 0x63 JUMPI DUP1 PUSH4 0xA63F7C53 EQ PUSH2 0x15D JUMPI DUP1 PUSH4 0xBC06B8CD EQ PUSH2 0x173 JUMPI DUP1 PUSH4 0xBF474766 EQ PUSH2 0x19D JUMPI DUP1 PUSH4 0xD1F9C24D EQ PUSH2 0x1B9 JUMPI DUP1 PUSH4 0xD97C8416 EQ PUSH2 0x1E3 JUMPI DUP1 PUSH4 0xE84EBC29 EQ PUSH2 0x20D JUMPI PUSH2 0x9B JUMP JUMPDEST DUP1 PUSH4 0x60B663BB EQ PUSH2 0x9F JUMPI DUP1 PUSH4 0x78E97925 EQ PUSH2 0xCB JUMPI DUP1 PUSH4 0x8C10BB96 EQ PUSH2 0xF5 JUMPI DUP1 PUSH4 0x9C15D1A2 EQ PUSH2 0x11D JUMPI DUP1 PUSH4 0x9D7B3F2D EQ PUSH2 0x133 JUMPI JUMPDEST PUSH0 DUP1 REVERT JUMPDEST CALLVALUE DUP1 ISZERO PUSH2 0xAA JUMPI PUSH0 DUP1 REVERT JUMPDEST POP PUSH2 0xB3 PUSH2 0x249 JUMP JUMPDEST PUSH1 0x40 MLOAD PUSH2 0xC2 SWAP4 SWAP3 SWAP2 SWAP1 PUSH2 0x1329 JUMP JUMPDEST PUSH1 0x40 MLOAD DUP1 SWAP2 SUB SWAP1 RETURN JUMPDEST CALLVALUE DUP1 ISZERO PUSH2 0xD6 JUMPI PUSH0 DUP1 REVERT JUMPDEST POP PUSH2 0xDF PUSH2 0x261 JUMP JUMPDEST PUSH1 0x40 MLOAD PUSH2 0xEC SWAP2 SWAP1 PUSH2 0x135E JUMP JUMPDEST PUSH1 0x40 MLOAD DUP1 SWAP2 SUB SWAP1 RETURN JUMPDEST CALLVALUE DUP1 ISZERO PUSH2 0x100 JUMPI PUSH0 DUP1 REVERT JUMPDEST POP PUSH2 0x11B PUSH1 0x4 DUP1 CALLDATASIZE SUB DUP2 ADD SWAP1 PUSH2 0x116 SWAP2 SWAP1 PUSH2 0x13D8 JUMP JUMPDEST PUSH2 0x266 JUMP JUMPDEST STOP JUMPDEST CALLVALUE DUP1 ISZERO PUSH2 0x128 JUMPI PUSH0 DUP1 REVERT JUMPDEST POP PUSH2 0x131 PUSH2 0x578 JUMP JUMPDEST STOP JUMPDEST CALLVALUE DUP1 ISZERO PUSH2 0x13E JUMPI PUSH0 DUP1 REVERT JUMPDEST POP PUSH2 0x147 PUSH2 0x9AD JUMP JUMPDEST PUSH1 0x40 MLOAD PUSH2 0x154 SWAP2 SWAP1 PUSH2 0x1490 JUMP JUMPDEST PUSH1 0x40 MLOAD DUP1 SWAP2 SUB SWAP1 RETURN JUMPDEST CALLVALUE DUP1 ISZERO PUSH2 0x168 JUMPI PUSH0 DUP1 REVERT JUMPDEST POP PUSH2 0x171 PUSH2 0x9D2 JUMP JUMPDEST STOP JUMPDEST CALLVALUE DUP1 ISZERO PUSH2 0x17E JUMPI PUSH0 DUP1 REVERT JUMPDEST POP PUSH2 0x187 PUSH2 0x9DA JUMP JUMPDEST PUSH1 0x40 MLOAD PUSH2 0x194 SWAP2 SWAP1 PUSH2 0x135E JUMP JUMPDEST PUSH1 0x40 MLOAD DUP1 SWAP2 SUB SWAP1 RETURN JUMPDEST PUSH2 0x1B7 PUSH1 0x4 DUP1 CALLDATASIZE SUB DUP2 ADD SWAP1 PUSH2 0x1B2 SWAP2 SWAP1 PUSH2 0x14A9 JUMP JUMPDEST PUSH2 0x9ED JUMP JUMPDEST STOP JUMPDEST CALLVALUE DUP1 ISZERO PUSH2 0x1C4 JUMPI PUSH0 DUP1 REVERT JUMPDEST POP PUSH2 0x1CD PUSH2 0xE3A JUMP JUMPDEST PUSH1 0x40 MLOAD PUSH2 0x1DA SWAP2 SWAP1 PUSH2 0x1547 JUMP JUMPDEST PUSH1 0x40 MLOAD DUP1 SWAP2 SUB SWAP1 RETURN JUMPDEST CALLVALUE DUP1 ISZERO PUSH2 0x1EE JUMPI PUSH0 DUP1 REVERT JUMPDEST POP PUSH2 0x1F7 PUSH2 0xE4D JUMP JUMPDEST PUSH1 0x40 MLOAD PUSH2 0x204 SWAP2 SWAP1 PUSH2 0x135E JUMP JUMPDEST PUSH1 0x40 MLOAD DUP1 SWAP2 SUB SWAP1 RETURN JUMPDEST CALLVALUE DUP1 ISZERO PUSH2 0x218 JUMPI PUSH0 DUP1 REVERT JUMPDEST POP PUSH2 0x233 PUSH1 0x4 DUP1 CALLDATASIZE SUB DUP2 ADD SWAP1 PUSH2 0x22E SWAP2 SWAP1 PUSH2 0x159B JUMP JUMPDEST PUSH2 0xE6C JUMP JUMPDEST PUSH1 0x40 MLOAD PUSH2 0x240 SWAP2 SWAP1 PUSH2 0x15E0 JUMP JUMPDEST PUSH1 0x40 MLOAD DUP1 SWAP2 SUB SWAP1 RETURN JUMPDEST PUSH1 0x2 DUP1 PUSH1 0x6 ADD SLOAD SWAP1 DUP1 PUSH1 0x7 ADD SLOAD SWAP1 DUP1 PUSH1 0x8 ADD SLOAD SWAP1 POP DUP4 JUMP JUMPDEST PUSH0 SLOAD DUP2 JUMP JUMPDEST PUSH1 0x2 DUP1 DUP2 GT ISZERO PUSH2 0x279 JUMPI PUSH2 0x278 PUSH2 0x14D4 JUMP JUMPDEST JUMPDEST PUSH1 0x1 PUSH1 0x14 SWAP1 SLOAD SWAP1 PUSH2 0x100 EXP SWAP1 DIV PUSH1 0xFF AND PUSH1 0x2 DUP2 GT ISZERO PUSH2 0x29B JUMPI PUSH2 0x29A PUSH2 0x14D4 JUMP JUMPDEST JUMPDEST EQ PUSH2 0x2DB JUMPI PUSH1 0x40 MLOAD PUSH32 0x8C379A000000000000000000000000000000000000000000000000000000000 DUP2 MSTORE PUSH1 0x4 ADD PUSH2 0x2D2 SWAP1 PUSH2 0x1653 JUMP JUMPDEST PUSH1 0x40 MLOAD DUP1 SWAP2 SUB SWAP1 REVERT JUMPDEST PUSH1 0x5 DUP3 LT PUSH2 0x31E JUMPI PUSH1 0x40 MLOAD PUSH32 0x8C379A000000000000000000000000000000000000000000000000000000000 DUP2 MSTORE PUSH1 0x4 ADD PUSH2 0x315 SWAP1 PUSH2 0x16BB JUMP JUMPDEST PUSH1 0x40 MLOAD DUP1 SWAP2 SUB SWAP1 REVERT JUMPDEST PUSH0 CALLER PUSH20 0xFFFFFFFFFFFFFFFFFFFFFFFFFFFFFFFFFFFFFFFF AND PUSH1 0x2 PUSH0 ADD PUSH0 PUSH1 0x2 DUP2 LT PUSH2 0x34C JUMPI PUSH2 0x34B PUSH2 0x16D9 JUMP JUMPDEST JUMPDEST ADD PUSH0 SWAP1 SLOAD SWAP1 PUSH2 0x100 EXP SWAP1 DIV PUSH20 0xFFFFFFFFFFFFFFFFFFFFFFFFFFFFFFFFFFFFFFFF AND PUSH20 0xFFFFFFFFFFFFFFFFFFFFFFFFFFFFFFFFFFFFFFFF AND EQ PUSH2 0x38F JUMPI PUSH1 0x1 PUSH2 0x391 JUMP JUMPDEST PUSH0 JUMPDEST PUSH1 0xFF AND SWAP1 POP PUSH1 0x2 PUSH1 0x9 ADD DUP2 PUSH1 0x2 DUP2 LT PUSH2 0x3AD JUMPI PUSH2 0x3AC PUSH2 0x16D9 JUMP JUMPDEST JUMPDEST PUSH1 0x20 SWAP2 DUP3 DUP3 DIV ADD SWAP2 SWAP1 MOD SWAP1 SLOAD SWAP1 PUSH2 0x100 EXP SWAP1 DIV PUSH1 0xFF AND ISZERO PUSH2 0x403 JUMPI PUSH1 0x40 MLOAD PUSH32 0x8C379A000000000000000000000000000000000000000000000000000000000 DUP2 MSTORE PUSH1 0x4 ADD PUSH2 0x3FA SWAP1 PUSH2 0x1750 JUMP JUMPDEST PUSH1 0x40 MLOAD DUP1 SWAP2 SUB SWAP1 REVERT JUMPDEST PUSH0 PUSH2 0x40E DUP5 DUP5 PUSH2 0xE89 JUMP JUMPDEST SWAP1 POP PUSH1 0x2 DUP1 ADD DUP3 PUSH1 0x2 DUP2 LT PUSH2 0x426 JUMPI PUSH2 0x425 PUSH2 0x16D9 JUMP JUMPDEST JUMPDEST ADD SLOAD DUP2 EQ PUSH2 0x469 JUMPI PUSH1 0x40 MLOAD PUSH32 0x8C379A000000000000000000000000000000000000000000000000000000000 DUP2 MSTORE PUSH1 0x4 ADD PUSH2 0x460 SWAP1 PUSH2 0x17B8 JUMP JUMPDEST PUSH1 0x40 MLOAD DUP1 SWAP2 SUB SWAP1 REVERT JUMPDEST DUP4 PUSH1 0x2 PUSH1 0x4 ADD DUP4 PUSH1 0x2 DUP2 LT PUSH2 0x481 JUMPI PUSH2 0x480 PUSH2 0x16D9 JUMP JUMPDEST JUMPDEST ADD DUP2 SWAP1 SSTORE POP PUSH1 0x1 PUSH1 0x2 PUSH1 0x9 ADD DUP4 PUSH1 0x2 DUP2 LT PUSH2 0x49F JUMPI PUSH2 0x49E PUSH2 0x16D9 JUMP JUMPDEST JUMPDEST PUSH1 0x20 SWAP2 DUP3 DUP3 DIV ADD SWAP2 SWAP1 MOD PUSH2 0x100 EXP DUP2 SLOAD DUP2 PUSH1 0xFF MUL NOT AND SWAP1 DUP4 ISZERO ISZERO MUL OR SWAP1 SSTORE POP PUSH1 0x2 PUSH1 0x9 ADD PUSH0 PUSH1 0x2 DUP2 LT PUSH2 0x4D5 JUMPI PUSH2 0x4D4 PUSH2 0x16D9 JUMP JUMPDEST JUMPDEST PUSH1 0x20 SWAP2 DUP3 DUP3 DIV ADD SWAP2 SWAP1 MOD SWAP1 SLOAD SWAP1 PUSH2 0x100 EXP SWAP1 DIV PUSH1 0xFF AND DUP1 ISZERO PUSH2 0x521 JUMPI POP PUSH1 0x2 PUSH1 0x9 ADD PUSH1 0x1 PUSH1 0x2 DUP2 LT PUSH2 0x50A JUMPI PUSH2 0x509 PUSH2 0x16D9 JUMP JUMPDEST JUMPDEST PUSH1 0x20 SWAP2 DUP3 DUP3 DIV ADD SWAP2 SWAP1 MOD SWAP1 SLOAD SWAP1 PUSH2 0x100 EXP SWAP1 DIV PUSH1 0xFF AND JUMPDEST ISZERO PUSH2 0x52F JUMPI PUSH2 0x52E PUSH2 0xEBB JUMP JUMPDEST JUMPDEST CALLER PUSH20 0xFFFFFFFFFFFFFFFFFFFFFFFFFFFFFFFFFFFFFFFF AND PUSH32 0xB43A48F4B5FE1B13780390DC7B039206C4F81535C0FDA507C687D7E921EB18BB PUSH1 0x40 MLOAD PUSH1 0x40 MLOAD DUP1 SWAP2 SUB SWAP1 LOG2 POP POP POP POP JUMP JUMPDEST PUSH1 0x2 PUSH1 0x7 ADD SLOAD TIMESTAMP GT DUP1 PUSH2 0x58F JUMPI POP PUSH1 0x2 PUSH1 0x8 ADD SLOAD TIMESTAMP GT JUMPDEST PUSH2 0x5CE JUMPI PUSH1 0x40 MLOAD PUSH32 0x8C379A000000000000000000000000000000000000000000000000000000000 DUP2 MSTORE PUSH1 0x4 ADD PUSH2 0x5C5 SWAP1 PUSH2 0x1820 JUMP JUMPDEST PUSH1 0x40 MLOAD DUP1 SWAP2 SUB SWAP1 REVERT JUMPDEST PUSH1 0x1 PUSH1 0x2 DUP2 GT ISZERO PUSH2 0x5E2 JUMPI PUSH2 0x5E1 PUSH2 0x14D4 JUMP JUMPDEST JUMPDEST PUSH1 0x1 PUSH1 0x14 SWAP1 SLOAD SWAP1 PUSH2 0x100 EXP SWAP1 DIV PUSH1 0xFF AND PUSH1 0x2 DUP2 GT ISZERO PUSH2 0x604 JUMPI PUSH2 0x603 PUSH2 0x14D4 JUMP JUMPDEST JUMPDEST SUB PUSH2 0x68D JUMPI PUSH1 0x2 PUSH0 ADD PUSH0 PUSH1 0x2 DUP2 LT PUSH2 0x61F JUMPI PUSH2 0x61E PUSH2 0x16D9 JUMP JUMPDEST JUMPDEST ADD PUSH0 SWAP1 SLOAD SWAP1 PUSH2 0x100 EXP SWAP1 DIV PUSH20 0xFFFFFFFFFFFFFFFFFFFFFFFFFFFFFFFFFFFFFFFF AND PUSH20 0xFFFFFFFFFFFFFFFFFFFFFFFFFFFFFFFFFFFFFFFF AND PUSH2 0x8FC PUSH1 0x2 PUSH1 0x6 ADD SLOAD SWAP1 DUP2 ISZERO MUL SWAP1 PUSH1 0x40 MLOAD PUSH0 PUSH1 0x40 MLOAD DUP1 DUP4 SUB DUP2 DUP6 DUP9 DUP9 CALL SWAP4 POP POP POP POP ISZERO DUP1 ISZERO PUSH2 0x687 JUMPI RETURNDATASIZE PUSH0 DUP1 RETURNDATACOPY RETURNDATASIZE PUSH0 REVERT JUMPDEST POP PUSH2 0x960 JUMP JUMPDEST PUSH1 0x2 PUSH1 0x9 ADD PUSH0 PUSH1 0x2 DUP2 LT PUSH2 0x6A4 JUMPI PUSH2 0x6A3 PUSH2 0x16D9 JUMP JUMPDEST JUMPDEST PUSH1 0x20 SWAP2 DUP3 DUP3 DIV ADD SWAP2 SWAP1 MOD SWAP1 SLOAD SWAP1 PUSH2 0x100 EXP SWAP1 DIV PUSH1 0xFF AND DUP1 ISZERO PUSH2 0x6F1 JUMPI POP PUSH1 0x2 PUSH1 0x9 ADD PUSH1 0x1 PUSH1 0x2 DUP2 LT PUSH2 0x6D9 JUMPI PUSH2 0x6D8 PUSH2 0x16D9 JUMP JUMPDEST JUMPDEST PUSH1 0x20 SWAP2 DUP3 DUP3 DIV ADD SWAP2 SWAP1 MOD SWAP1 SLOAD SWAP1 PUSH2 0x100 EXP SWAP1 DIV PUSH1 0xFF AND ISZERO JUMPDEST ISZERO PUSH2 0x775 JUMPI PUSH1 0x2 PUSH0 ADD PUSH0 PUSH1 0x2 DUP2 LT PUSH2 0x70C JUMPI PUSH2 0x70B PUSH2 0x16D9 JUMP JUMPDEST JUMPDEST ADD PUSH0 SWAP1 SLOAD SWAP1 PUSH2 0x100 EXP SWAP1 DIV PUSH20 0xFFFFFFFFFFFFFFFFFFFFFFFFFFFFFFFFFFFFFFFF AND PUSH20 0xFFFFFFFFFFFFFFFFFFFFFFFFFFFFFFFFFFFFFFFF AND PUSH2 0x8FC SELFBALANCE SWAP1 DUP2 ISZERO MUL SWAP1 PUSH1 0x40 MLOAD PUSH0 PUSH1 0x40 MLOAD DUP1 DUP4 SUB DUP2 DUP6 DUP9 DUP9 CALL SWAP4 POP POP POP POP ISZERO DUP1 ISZERO PUSH2 0x76F JUMPI RETURNDATASIZE PUSH0 DUP1 RETURNDATACOPY RETURNDATASIZE PUSH0 REVERT JUMPDEST POP PUSH2 0x95F JUMP JUMPDEST PUSH1 0x2 PUSH1 0x9 ADD PUSH1 0x1 PUSH1 0x2 DUP2 LT PUSH2 0x78D JUMPI PUSH2 0x78C PUSH2 0x16D9 JUMP JUMPDEST JUMPDEST PUSH1 0x20 SWAP2 DUP3 DUP3 DIV ADD SWAP2 SWAP1 MOD SWAP1 SLOAD SWAP1 PUSH2 0x100 EXP SWAP1 DIV PUSH1 0xFF AND DUP1 ISZERO PUSH2 0x7D9 JUMPI POP PUSH1 0x2 PUSH1 0x9 ADD PUSH0 PUSH1 0x2 DUP2 LT PUSH2 0x7C1 JUMPI PUSH2 0x7C0 PUSH2 0x16D9 JUMP JUMPDEST JUMPDEST PUSH1 0x20 SWAP2 DUP3 DUP3 DIV ADD SWAP2 SWAP1 MOD SWAP1 SLOAD SWAP1 PUSH2 0x100 EXP SWAP1 DIV PUSH1 0xFF AND ISZERO JUMPDEST ISZERO PUSH2 0x85E JUMPI PUSH1 0x2 PUSH0 ADD PUSH1 0x1 PUSH1 0x2 DUP2 LT PUSH2 0x7F5 JUMPI PUSH2 0x7F4 PUSH2 0x16D9 JUMP JUMPDEST JUMPDEST ADD PUSH0 SWAP1 SLOAD SWAP1 PUSH2 0x100 EXP SWAP1 DIV PUSH20 0xFFFFFFFFFFFFFFFFFFFFFFFFFFFFFFFFFFFFFFFF AND PUSH20 0xFFFFFFFFFFFFFFFFFFFFFFFFFFFFFFFFFFFFFFFF AND PUSH2 0x8FC SELFBALANCE SWAP1 DUP2 ISZERO MUL SWAP1 PUSH1 0x40 MLOAD PUSH0 PUSH1 0x40 MLOAD DUP1 DUP4 SUB DUP2 DUP6 DUP9 DUP9 CALL SWAP4 POP POP POP POP ISZERO DUP1 ISZERO PUSH2 0x858 JUMPI RETURNDATASIZE PUSH0 DUP1 RETURNDATACOPY RETURNDATASIZE PUSH0 REVERT JUMPDEST POP PUSH2 0x95E JUMP JUMPDEST PUSH1 0x2 PUSH0 ADD PUSH0 PUSH1 0x2 DUP2 LT PUSH2 0x874 JUMPI PUSH2 0x873 PUSH2 0x16D9 JUMP JUMPDEST JUMPDEST ADD PUSH0 SWAP1 SLOAD SWAP1 PUSH2 0x100 EXP SWAP1 DIV PUSH20 0xFFFFFFFFFFFFFFFFFFFFFFFFFFFFFFFFFFFFFFFF AND PUSH20 0xFFFFFFFFFFFFFFFFFFFFFFFFFFFFFFFFFFFFFFFF AND PUSH2 0x8FC PUSH1 0x2 PUSH1 0x6 ADD SLOAD SWAP1 DUP2 ISZERO MUL SWAP1 PUSH1 0x40 MLOAD PUSH0 PUSH1 0x40 MLOAD DUP1 DUP4 SUB DUP2 DUP6 DUP9 DUP9 CALL SWAP4 POP POP POP POP ISZERO DUP1 ISZERO PUSH2 0x8DC JUMPI RETURNDATASIZE PUSH0 DUP1 RETURNDATACOPY RETURNDATASIZE PUSH0 REVERT JUMPDEST POP PUSH1 0x2 PUSH0 ADD PUSH1 0x1 PUSH1 0x2 DUP2 LT PUSH2 0x8F4 JUMPI PUSH2 0x8F3 PUSH2 0x16D9 JUMP JUMPDEST JUMPDEST ADD PUSH0 SWAP1 SLOAD SWAP1 PUSH2 0x100 EXP SWAP1 DIV PUSH20 0xFFFFFFFFFFFFFFFFFFFFFFFFFFFFFFFFFFFFFFFF AND PUSH20 0xFFFFFFFFFFFFFFFFFFFFFFFFFFFFFFFFFFFFFFFF AND PUSH2 0x8FC PUSH1 0x2 PUSH1 0x6 ADD SLOAD SWAP1 DUP2 ISZERO MUL SWAP1 PUSH1 0x40 MLOAD PUSH0 PUSH1 0x40 MLOAD DUP1 DUP4 SUB DUP2 DUP6 DUP9 DUP9 CALL SWAP4 POP POP POP POP ISZERO DUP1 ISZERO PUSH2 0x95C JUMPI RETURNDATASIZE PUSH0 DUP1 RETURNDATACOPY RETURNDATASIZE PUSH0 REVERT JUMPDEST POP JUMPDEST JUMPDEST JUMPDEST CALLER PUSH20 0xFFFFFFFFFFFFFFFFFFFFFFFFFFFFFFFFFFFFFFFF AND PUSH32 0x71B8D288B6B795CD40378095D6A9C6466EB4A081C0238DFD691B0B1F5868F180 PUSH1 0x40 MLOAD PUSH1 0x40 MLOAD DUP1 SWAP2 SUB SWAP1 LOG2 PUSH2 0x9AB PUSH2 0x1266 JUMP JUMPDEST JUMP JUMPDEST PUSH1 0x1 PUSH0 SWAP1 SLOAD SWAP1 PUSH2 0x100 EXP SWAP1 DIV PUSH20 0xFFFFFFFFFFFFFFFFFFFFFFFFFFFFFFFFFFFFFFFF AND DUP2 JUMP JUMPDEST TIMESTAMP PUSH0 DUP2 SWAP1 SSTORE POP JUMP JUMPDEST PUSH0 DUP1 SLOAD TIMESTAMP PUSH2 0x9E8 SWAP2 SWAP1 PUSH2 0x186B JUMP JUMPDEST SWAP1 POP SWAP1 JUMP JUMPDEST PUSH1 0xC PUSH0 CALLER PUSH20 0xFFFFFFFFFFFFFFFFFFFFFFFFFFFFFFFFFFFFFFFF AND PUSH20 0xFFFFFFFFFFFFFFFFFFFFFFFFFFFFFFFFFFFFFFFF AND DUP2 MSTORE PUSH1 0x20 ADD SWAP1 DUP2 MSTORE PUSH1 0x20 ADD PUSH0 KECCAK256 PUSH0 SWAP1 SLOAD SWAP1 PUSH2 0x100 EXP SWAP1 DIV PUSH1 0xFF AND PUSH2 0xA76 JUMPI PUSH1 0x40 MLOAD PUSH32 0x8C379A000000000000000000000000000000000000000000000000000000000 DUP2 MSTORE PUSH1 0x4 ADD PUSH2 0xA6D SWAP1 PUSH2 0x18E8 JUMP JUMPDEST PUSH1 0x40 MLOAD DUP1 SWAP2 SUB SWAP1 REVERT JUMPDEST PUSH8 0xDE0B6B3A7640000 CALLVALUE EQ PUSH2 0xAC0 JUMPI PUSH1 0x40 MLOAD PUSH32 0x8C379A000000000000000000000000000000000000000000000000000000000 DUP2 MSTORE PUSH1 0x4 ADD PUSH2 0xAB7 SWAP1 PUSH2 0x1950 JUMP JUMPDEST PUSH1 0x40 MLOAD DUP1 SWAP2 SUB SWAP1 REVERT JUMPDEST PUSH0 PUSH20 0xFFFFFFFFFFFFFFFFFFFFFFFFFFFFFFFFFFFFFFFF AND PUSH1 0x2 PUSH0 ADD PUSH0 PUSH1 0x2 DUP2 LT PUSH2 0xAED JUMPI PUSH2 0xAEC PUSH2 0x16D9 JUMP JUMPDEST JUMPDEST ADD PUSH0 SWAP1 SLOAD SWAP1 PUSH2 0x100 EXP SWAP1 DIV PUSH20 0xFFFFFFFFFFFFFFFFFFFFFFFFFFFFFFFFFFFFFFFF AND PUSH20 0xFFFFFFFFFFFFFFFFFFFFFFFFFFFFFFFFFFFFFFFF AND EQ DUP1 PUSH2 0xB92 JUMPI POP PUSH0 PUSH20 0xFFFFFFFFFFFFFFFFFFFFFFFFFFFFFFFFFFFFFFFF AND PUSH1 0x2 PUSH0 ADD PUSH1 0x1 PUSH1 0x2 DUP2 LT PUSH2 0xB59 JUMPI PUSH2 0xB58 PUSH2 0x16D9 JUMP JUMPDEST JUMPDEST ADD PUSH0 SWAP1 SLOAD SWAP1 PUSH2 0x100 EXP SWAP1 DIV PUSH20 0xFFFFFFFFFFFFFFFFFFFFFFFFFFFFFFFFFFFFFFFF AND PUSH20 0xFFFFFFFFFFFFFFFFFFFFFFFFFFFFFFFFFFFFFFFF AND EQ JUMPDEST PUSH2 0xBD1 JUMPI PUSH1 0x40 MLOAD PUSH32 0x8C379A000000000000000000000000000000000000000000000000000000000 DUP2 MSTORE PUSH1 0x4 ADD PUSH2 0xBC8 SWAP1 PUSH2 0x19B8 JUMP JUMPDEST PUSH1 0x40 MLOAD DUP1 SWAP2 SUB SWAP1 REVERT JUMPDEST PUSH0 PUSH20 0xFFFFFFFFFFFFFFFFFFFFFFFFFFFFFFFFFFFFFFFF AND PUSH1 0x2 PUSH0 ADD PUSH0 PUSH1 0x2 DUP2 LT PUSH2 0xBFE JUMPI PUSH2 0xBFD PUSH2 0x16D9 JUMP JUMPDEST JUMPDEST ADD PUSH0 SWAP1 SLOAD SWAP1 PUSH2 0x100 EXP SWAP1 DIV PUSH20 0xFFFFFFFFFFFFFFFFFFFFFFFFFFFFFFFFFFFFFFFF AND PUSH20 0xFFFFFFFFFFFFFFFFFFFFFFFFFFFFFFFFFFFFFFFF AND SUB PUSH2 0xD3E JUMPI CALLER PUSH1 0x2 PUSH0 ADD PUSH0 PUSH1 0x2 DUP2 LT PUSH2 0xC51 JUMPI PUSH2 0xC50 PUSH2 0x16D9 JUMP JUMPDEST JUMPDEST ADD PUSH0 PUSH2 0x100 EXP DUP2 SLOAD DUP2 PUSH20 0xFFFFFFFFFFFFFFFFFFFFFFFFFFFFFFFFFFFFFFFF MUL NOT AND SWAP1 DUP4 PUSH20 0xFFFFFFFFFFFFFFFFFFFFFFFFFFFFFFFFFFFFFFFF AND MUL OR SWAP1 SSTORE POP DUP1 PUSH1 0x2 DUP1 ADD PUSH0 PUSH1 0x2 DUP2 LT PUSH2 0xCA6 JUMPI PUSH2 0xCA5 PUSH2 0x16D9 JUMP JUMPDEST JUMPDEST ADD DUP2 SWAP1 SSTORE POP CALLVALUE PUSH1 0x2 PUSH1 0x6 ADD DUP2 SWAP1 SSTORE POP PUSH2 0x12C TIMESTAMP PUSH2 0xCC3 SWAP2 SWAP1 PUSH2 0x19D6 JUMP JUMPDEST PUSH1 0x2 PUSH1 0x7 ADD DUP2 SWAP1 SSTORE POP PUSH1 0x1 DUP1 PUSH1 0x14 PUSH2 0x100 EXP DUP2 SLOAD DUP2 PUSH1 0xFF MUL NOT AND SWAP1 DUP4 PUSH1 0x2 DUP2 GT ISZERO PUSH2 0xCF1 JUMPI PUSH2 0xCF0 PUSH2 0x14D4 JUMP JUMPDEST JUMPDEST MUL OR SWAP1 SSTORE POP CALLER PUSH20 0xFFFFFFFFFFFFFFFFFFFFFFFFFFFFFFFFFFFFFFFF AND PUSH32 0x67CF7F1535E1C1323FE4E76266F7D55F0C1F67FDF449DB65E014F9D35881514D PUSH1 0x40 MLOAD PUSH1 0x40 MLOAD DUP1 SWAP2 SUB SWAP1 LOG2 PUSH2 0xDF4 JUMP JUMPDEST CALLER PUSH1 0x2 PUSH0 ADD PUSH1 0x1 PUSH1 0x2 DUP2 LT PUSH2 0xD56 JUMPI PUSH2 0xD55 PUSH2 0x16D9 JUMP JUMPDEST JUMPDEST ADD PUSH0 PUSH2 0x100 EXP DUP2 SLOAD DUP2 PUSH20 0xFFFFFFFFFFFFFFFFFFFFFFFFFFFFFFFFFFFFFFFF MUL NOT AND SWAP1 DUP4 PUSH20 0xFFFFFFFFFFFFFFFFFFFFFFFFFFFFFFFFFFFFFFFF AND MUL OR SWAP1 SSTORE POP DUP1 PUSH1 0x2 DUP1 ADD PUSH1 0x1 PUSH1 0x2 DUP2 LT PUSH2 0xDAC JUMPI PUSH2 0xDAB PUSH2 0x16D9 JUMP JUMPDEST JUMPDEST ADD DUP2 SWAP1 SSTORE POP PUSH2 0x12C TIMESTAMP PUSH2 0xDBF SWAP2 SWAP1 PUSH2 0x19D6 JUMP JUMPDEST PUSH1 0x2 PUSH1 0x8 ADD DUP2 SWAP1 SSTORE POP PUSH1 0x2 PUSH1 0x1 PUSH1 0x14 PUSH2 0x100 EXP DUP2 SLOAD DUP2 PUSH1 0xFF MUL NOT AND SWAP1 DUP4 PUSH1 0x2 DUP2 GT ISZERO PUSH2 0xDEE JUMPI PUSH2 0xDED PUSH2 0x14D4 JUMP JUMPDEST JUMPDEST MUL OR SWAP1 SSTORE POP JUMPDEST CALLER PUSH20 0xFFFFFFFFFFFFFFFFFFFFFFFFFFFFFFFFFFFFFFFF AND PUSH32 0x385D85909904C479680CFB49104DD25DD686A79A13B842E5AB5F1FAB8FA0FB2A PUSH1 0x40 MLOAD PUSH1 0x40 MLOAD DUP1 SWAP2 SUB SWAP1 LOG2 POP JUMP JUMPDEST PUSH1 0x1 PUSH1 0x14 SWAP1 SLOAD SWAP1 PUSH2 0x100 EXP SWAP1 DIV PUSH1 0xFF AND DUP2 JUMP JUMPDEST PUSH0 PUSH1 0x3C PUSH0 SLOAD TIMESTAMP PUSH2 0xE5D SWAP2 SWAP1 PUSH2 0x186B JUMP JUMPDEST PUSH2 0xE67 SWAP2 SWAP1 PUSH2 0x1A36 JUMP JUMPDEST SWAP1 POP SWAP1 JUMP JUMPDEST PUSH1 0xC PUSH1 0x20 MSTORE DUP1 PUSH0 MSTORE PUSH1 0x40 PUSH0 KECCAK256 PUSH0 SWAP2 POP SLOAD SWAP1 PUSH2 0x100 EXP SWAP1 DIV PUSH1 0xFF AND DUP2 JUMP JUMPDEST PUSH0 DUP3 DUP3 PUSH1 0x40 MLOAD PUSH1 0x20 ADD PUSH2 0xE9D SWAP3 SWAP2 SWAP1 PUSH2 0x1AA6 JUMP JUMPDEST PUSH1 0x40 MLOAD PUSH1 0x20 DUP2 DUP4 SUB SUB DUP2 MSTORE SWAP1 PUSH1 0x40 MSTORE DUP1 MLOAD SWAP1 PUSH1 0x20 ADD KECCAK256 SWAP1 POP SWAP3 SWAP2 POP POP JUMP JUMPDEST PUSH0 PUSH1 0x2 PUSH1 0x4 ADD PUSH0 PUSH1 0x2 DUP2 LT PUSH2 0xED3 JUMPI PUSH2 0xED2 PUSH2 0x16D9 JUMP JUMPDEST JUMPDEST ADD SLOAD SWAP1 POP PUSH0 PUSH1 0x2 PUSH1 0x4 ADD PUSH1 0x1 PUSH1 0x2 DUP2 LT PUSH2 0xEF0 JUMPI PUSH2 0xEEF PUSH2 0x16D9 JUMP JUMPDEST JUMPDEST ADD SLOAD SWAP1 POP PUSH0 PUSH1 0x40 MLOAD DUP1 PUSH1 0x40 ADD PUSH1 0x40 MSTORE DUP1 PUSH1 0x2 PUSH0 ADD PUSH0 PUSH1 0x2 DUP2 LT PUSH2 0xF16 JUMPI PUSH2 0xF15 PUSH2 0x16D9 JUMP JUMPDEST JUMPDEST ADD PUSH0 SWAP1 SLOAD SWAP1 PUSH2 0x100 EXP SWAP1 DIV PUSH20 0xFFFFFFFFFFFFFFFFFFFFFFFFFFFFFFFFFFFFFFFF AND PUSH20 0xFFFFFFFFFFFFFFFFFFFFFFFFFFFFFFFFFFFFFFFF AND PUSH20 0xFFFFFFFFFFFFFFFFFFFFFFFFFFFFFFFFFFFFFFFF AND DUP2 MSTORE PUSH1 0x20 ADD PUSH1 0x2 PUSH0 ADD PUSH1 0x1 PUSH1 0x2 DUP2 LT PUSH2 0xF7F JUMPI PUSH2 0xF7E PUSH2 0x16D9 JUMP JUMPDEST JUMPDEST ADD PUSH0 SWAP1 SLOAD SWAP1 PUSH2 0x100 EXP SWAP1 DIV PUSH20 0xFFFFFFFFFFFFFFFFFFFFFFFFFFFFFFFFFFFFFFFF AND PUSH20 0xFFFFFFFFFFFFFFFFFFFFFFFFFFFFFFFFFFFFFFFF AND PUSH20 0xFFFFFFFFFFFFFFFFFFFFFFFFFFFFFFFFFFFFFFFF AND DUP2 MSTORE POP SWAP1 POP PUSH0 PUSH1 0x5 DUP1 DUP5 DUP7 PUSH2 0xFE1 SWAP2 SWAP1 PUSH2 0x186B JUMP JUMPDEST PUSH2 0xFEB SWAP2 SWAP1 PUSH2 0x19D6 JUMP JUMPDEST PUSH2 0xFF5 SWAP2 SWAP1 PUSH2 0x1AD1 JUMP JUMPDEST SWAP1 POP PUSH1 0x1 DUP2 EQ DUP1 PUSH2 0x1006 JUMPI POP PUSH1 0x3 DUP2 EQ JUMPDEST ISZERO PUSH2 0x10C5 JUMPI DUP2 PUSH0 PUSH1 0x2 DUP2 LT PUSH2 0x101E JUMPI PUSH2 0x101D PUSH2 0x16D9 JUMP JUMPDEST JUMPDEST PUSH1 0x20 MUL ADD MLOAD PUSH20 0xFFFFFFFFFFFFFFFFFFFFFFFFFFFFFFFFFFFFFFFF AND PUSH2 0x8FC SELFBALANCE SWAP1 DUP2 ISZERO MUL SWAP1 PUSH1 0x40 MLOAD PUSH0 PUSH1 0x40 MLOAD DUP1 DUP4 SUB DUP2 DUP6 DUP9 DUP9 CALL SWAP4 POP POP POP POP ISZERO DUP1 ISZERO PUSH2 0x1065 JUMPI RETURNDATASIZE PUSH0 DUP1 RETURNDATACOPY RETURNDATASIZE PUSH0 REVERT JUMPDEST POP DUP2 PUSH0 PUSH1 0x2 DUP2 LT PUSH2 0x1079 JUMPI PUSH2 0x1078 PUSH2 0x16D9 JUMP JUMPDEST JUMPDEST PUSH1 0x20 MUL ADD MLOAD PUSH20 0xFFFFFFFFFFFFFFFFFFFFFFFFFFFFFFFFFFFFFFFF AND PUSH32 0x745C90B656B4AAFE296C8CA35AEACFE56CB96C90E1D320E5DA643FFF1051B6C0 PUSH1 0x40 MLOAD PUSH1 0x40 MLOAD DUP1 SWAP2 SUB SWAP1 LOG2 PUSH2 0x1258 JUMP JUMPDEST PUSH1 0x2 DUP2 EQ DUP1 PUSH2 0x10D4 JUMPI POP PUSH1 0x4 DUP2 EQ JUMPDEST ISZERO PUSH2 0x1195 JUMPI DUP2 PUSH1 0x1 PUSH1 0x2 DUP2 LT PUSH2 0x10ED JUMPI PUSH2 0x10EC PUSH2 0x16D9 JUMP JUMPDEST JUMPDEST PUSH1 0x20 MUL ADD MLOAD PUSH20 0xFFFFFFFFFFFFFFFFFFFFFFFFFFFFFFFFFFFFFFFF AND PUSH2 0x8FC SELFBALANCE SWAP1 DUP2 ISZERO MUL SWAP1 PUSH1 0x40 MLOAD PUSH0 PUSH1 0x40 MLOAD DUP1 DUP4 SUB DUP2 DUP6 DUP9 DUP9 CALL SWAP4 POP POP POP POP ISZERO DUP1 ISZERO PUSH2 0x1134 JUMPI RETURNDATASIZE PUSH0 DUP1 RETURNDATACOPY RETURNDATASIZE PUSH0 REVERT JUMPDEST POP DUP2 PUSH1 0x1 PUSH1 0x2 DUP2 LT PUSH2 0x1149 JUMPI PUSH2 0x1148 PUSH2 0x16D9 JUMP JUMPDEST JUMPDEST PUSH1 0x20 MUL ADD MLOAD PUSH20 0xFFFFFFFFFFFFFFFFFFFFFFFFFFFFFFFFFFFFFFFF AND PUSH32 0x745C90B656B4AAFE296C8CA35AEACFE56CB96C90E1D320E5DA643FFF1051B6C0 PUSH1 0x40 MLOAD PUSH1 0x40 MLOAD DUP1 SWAP2 SUB SWAP1 LOG2 PUSH2 0x1257 JUMP JUMPDEST DUP2 PUSH0 PUSH1 0x2 DUP2 LT PUSH2 0x11A8 JUMPI PUSH2 0x11A7 PUSH2 0x16D9 JUMP JUMPDEST JUMPDEST PUSH1 0x20 MUL ADD MLOAD PUSH20 0xFFFFFFFFFFFFFFFFFFFFFFFFFFFFFFFFFFFFFFFF AND PUSH2 0x8FC PUSH1 0x2 PUSH1 0x6 ADD SLOAD SWAP1 DUP2 ISZERO MUL SWAP1 PUSH1 0x40 MLOAD PUSH0 PUSH1 0x40 MLOAD DUP1 DUP4 SUB DUP2 DUP6 DUP9 DUP9 CALL SWAP4 POP POP POP POP ISZERO DUP1 ISZERO PUSH2 0x11F4 JUMPI RETURNDATASIZE PUSH0 DUP1 RETURNDATACOPY RETURNDATASIZE PUSH0 REVERT JUMPDEST POP DUP2 PUSH1 0x1 PUSH1 0x2 DUP2 LT PUSH2 0x1209 JUMPI PUSH2 0x1208 PUSH2 0x16D9 JUMP JUMPDEST JUMPDEST PUSH1 0x20 MUL ADD MLOAD PUSH20 0xFFFFFFFFFFFFFFFFFFFFFFFFFFFFFFFFFFFFFFFF AND PUSH2 0x8FC PUSH1 0x2 PUSH1 0x6 ADD SLOAD SWAP1 DUP2 ISZERO MUL SWAP1 PUSH1 0x40 MLOAD PUSH0 PUSH1 0x40 MLOAD DUP1 DUP4 SUB DUP2 DUP6 DUP9 DUP9 CALL SWAP4 POP POP POP POP ISZERO DUP1 ISZERO PUSH2 0x1255 JUMPI RETURNDATASIZE PUSH0 DUP1 RETURNDATACOPY RETURNDATASIZE PUSH0 REVERT JUMPDEST POP JUMPDEST JUMPDEST PUSH2 0x1260 PUSH2 0x1266 JUMP JUMPDEST POP POP POP POP JUMP JUMPDEST PUSH1 0x2 PUSH0 DUP1 DUP3 ADD PUSH0 PUSH2 0x1277 SWAP2 SWAP1 PUSH2 0x12E7 JUMP JUMPDEST PUSH1 0x2 DUP3 ADD PUSH0 PUSH2 0x1286 SWAP2 SWAP1 PUSH2 0x12F3 JUMP JUMPDEST PUSH1 0x4 DUP3 ADD PUSH0 PUSH2 0x1295 SWAP2 SWAP1 PUSH2 0x12FF JUMP JUMPDEST PUSH1 0x6 DUP3 ADD PUSH0 SWAP1 SSTORE PUSH1 0x7 DUP3 ADD PUSH0 SWAP1 SSTORE PUSH1 0x8 DUP3 ADD PUSH0 SWAP1 SSTORE PUSH1 0x9 DUP3 ADD PUSH0 PUSH2 0x12B9 SWAP2 SWAP1 PUSH2 0x130B JUMP JUMPDEST POP POP PUSH0 PUSH1 0x1 PUSH1 0x14 PUSH2 0x100 EXP DUP2 SLOAD DUP2 PUSH1 0xFF MUL NOT AND SWAP1 DUP4 PUSH1 0x2 DUP2 GT ISZERO PUSH2 0x12E0 JUMPI PUSH2 0x12DF PUSH2 0x14D4 JUMP JUMPDEST JUMPDEST MUL OR SWAP1 SSTORE POP JUMP JUMPDEST POP PUSH0 DUP2 SSTORE PUSH1 0x1 ADD PUSH0 SWAP1 SSTORE JUMP JUMPDEST POP PUSH0 DUP2 SSTORE PUSH1 0x1 ADD PUSH0 SWAP1 SSTORE JUMP JUMPDEST POP PUSH0 DUP2 SSTORE PUSH1 0x1 ADD PUSH0 SWAP1 SSTORE JUMP JUMPDEST POP PUSH0 SWAP1 SSTORE JUMP JUMPDEST PUSH0 DUP2 SWAP1 POP SWAP2 SWAP1 POP JUMP JUMPDEST PUSH2 0x1323 DUP2 PUSH2 0x1311 JUMP JUMPDEST DUP3 MSTORE POP POP JUMP JUMPDEST PUSH0 PUSH1 0x60 DUP3 ADD SWAP1 POP PUSH2 0x133C PUSH0 DUP4 ADD DUP7 PUSH2 0x131A JUMP JUMPDEST PUSH2 0x1349 PUSH1 0x20 DUP4 ADD DUP6 PUSH2 0x131A JUMP JUMPDEST PUSH2 0x1356 PUSH1 0x40 DUP4 ADD DUP5 PUSH2 0x131A JUMP JUMPDEST SWAP5 SWAP4 POP POP POP POP JUMP JUMPDEST PUSH0 PUSH1 0x20 DUP3 ADD SWAP1 POP PUSH2 0x1371 PUSH0 DUP4 ADD DUP5 PUSH2 0x131A JUMP JUMPDEST SWAP3 SWAP2 POP POP JUMP JUMPDEST PUSH0 DUP1 REVERT JUMPDEST PUSH2 0x1384 DUP2 PUSH2 0x1311 JUMP JUMPDEST DUP2 EQ PUSH2 0x138E JUMPI PUSH0 DUP1 REVERT JUMPDEST POP JUMP JUMPDEST PUSH0 DUP2 CALLDATALOAD SWAP1 POP PUSH2 0x139F DUP2 PUSH2 0x137B JUMP JUMPDEST SWAP3 SWAP2 POP POP JUMP JUMPDEST PUSH0 DUP2 SWAP1 POP SWAP2 SWAP1 POP JUMP JUMPDEST PUSH2 0x13B7 DUP2 PUSH2 0x13A5 JUMP JUMPDEST DUP2 EQ PUSH2 0x13C1 JUMPI PUSH0 DUP1 REVERT JUMPDEST POP JUMP JUMPDEST PUSH0 DUP2 CALLDATALOAD SWAP1 POP PUSH2 0x13D2 DUP2 PUSH2 0x13AE JUMP JUMPDEST SWAP3 SWAP2 POP POP JUMP JUMPDEST PUSH0 DUP1 PUSH1 0x40 DUP4 DUP6 SUB SLT ISZERO PUSH2 0x13EE JUMPI PUSH2 0x13ED PUSH2 0x1377 JUMP JUMPDEST JUMPDEST PUSH0 PUSH2 0x13FB DUP6 DUP3 DUP7 ADD PUSH2 0x1391 JUMP JUMPDEST SWAP3 POP POP PUSH1 0x20 PUSH2 0x140C DUP6 DUP3 DUP7 ADD PUSH2 0x13C4 JUMP JUMPDEST SWAP2 POP POP SWAP3 POP SWAP3 SWAP1 POP JUMP JUMPDEST PUSH0 PUSH20 0xFFFFFFFFFFFFFFFFFFFFFFFFFFFFFFFFFFFFFFFF DUP3 AND SWAP1 POP SWAP2 SWAP1 POP JUMP JUMPDEST PUSH0 DUP2 SWAP1 POP SWAP2 SWAP1 POP JUMP JUMPDEST PUSH0 PUSH2 0x1458 PUSH2 0x1453 PUSH2 0x144E DUP5 PUSH2 0x1416 JUMP JUMPDEST PUSH2 0x1435 JUMP JUMPDEST PUSH2 0x1416 JUMP JUMPDEST SWAP1 POP SWAP2 SWAP1 POP JUMP JUMPDEST PUSH0 PUSH2 0x1469 DUP3 PUSH2 0x143E JUMP JUMPDEST SWAP1 POP SWAP2 SWAP1 POP JUMP JUMPDEST PUSH0 PUSH2 0x147A DUP3 PUSH2 0x145F JUMP JUMPDEST SWAP1 POP SWAP2 SWAP1 POP JUMP JUMPDEST PUSH2 0x148A DUP2 PUSH2 0x1470 JUMP JUMPDEST DUP3 MSTORE POP POP JUMP JUMPDEST PUSH0 PUSH1 0x20 DUP3 ADD SWAP1 POP PUSH2 0x14A3 PUSH0 DUP4 ADD DUP5 PUSH2 0x1481 JUMP JUMPDEST SWAP3 SWAP2 POP POP JUMP JUMPDEST PUSH0 PUSH1 0x20 DUP3 DUP5 SUB SLT ISZERO PUSH2 0x14BE JUMPI PUSH2 0x14BD PUSH2 0x1377 JUMP JUMPDEST JUMPDEST PUSH0 PUSH2 0x14CB DUP5 DUP3 DUP6 ADD PUSH2 0x13C4 JUMP JUMPDEST SWAP2 POP POP SWAP3 SWAP2 POP POP JUMP JUMPDEST PUSH32 0x4E487B7100000000000000000000000000000000000000000000000000000000 PUSH0 MSTORE PUSH1 0x21 PUSH1 0x4 MSTORE PUSH1 0x24 PUSH0 REVERT JUMPDEST PUSH1 0x3 DUP2 LT PUSH2 0x1512 JUMPI PUSH2 0x1511 PUSH2 0x14D4 JUMP JUMPDEST JUMPDEST POP JUMP JUMPDEST PUSH0 DUP2 SWAP1 POP PUSH2 0x1522 DUP3 PUSH2 0x1501 JUMP JUMPDEST SWAP2 SWAP1 POP JUMP JUMPDEST PUSH0 PUSH2 0x1531 DUP3 PUSH2 0x1515 JUMP JUMPDEST SWAP1 POP SWAP2 SWAP1 POP JUMP JUMPDEST PUSH2 0x1541 DUP2 PUSH2 0x1527 JUMP JUMPDEST DUP3 MSTORE POP POP JUMP JUMPDEST PUSH0 PUSH1 0x20 DUP3 ADD SWAP1 POP PUSH2 0x155A PUSH0 DUP4 ADD DUP5 PUSH2 0x1538 JUMP JUMPDEST SWAP3 SWAP2 POP POP JUMP JUMPDEST PUSH0 PUSH2 0x156A DUP3 PUSH2 0x1416 JUMP JUMPDEST SWAP1 POP SWAP2 SWAP1 POP JUMP JUMPDEST PUSH2 0x157A DUP2 PUSH2 0x1560 JUMP JUMPDEST DUP2 EQ PUSH2 0x1584 JUMPI PUSH0 DUP1 REVERT JUMPDEST POP JUMP JUMPDEST PUSH0 DUP2 CALLDATALOAD SWAP1 POP PUSH2 0x1595 DUP2 PUSH2 0x1571 JUMP JUMPDEST SWAP3 SWAP2 POP POP JUMP JUMPDEST PUSH0 PUSH1 0x20 DUP3 DUP5 SUB SLT ISZERO PUSH2 0x15B0 JUMPI PUSH2 0x15AF PUSH2 0x1377 JUMP JUMPDEST JUMPDEST PUSH0 PUSH2 0x15BD DUP5 DUP3 DUP6 ADD PUSH2 0x1587 JUMP JUMPDEST SWAP2 POP POP SWAP3 SWAP2 POP POP JUMP JUMPDEST PUSH0 DUP2 ISZERO ISZERO SWAP1 POP SWAP2 SWAP1 POP JUMP JUMPDEST PUSH2 0x15DA DUP2 PUSH2 0x15C6 JUMP JUMPDEST DUP3 MSTORE POP POP JUMP JUMPDEST PUSH0 PUSH1 0x20 DUP3 ADD SWAP1 POP PUSH2 0x15F3 PUSH0 DUP4 ADD DUP5 PUSH2 0x15D1 JUMP JUMPDEST SWAP3 SWAP2 POP POP JUMP JUMPDEST PUSH0 DUP3 DUP3 MSTORE PUSH1 0x20 DUP3 ADD SWAP1 POP SWAP3 SWAP2 POP POP JUMP JUMPDEST PUSH32 0x4E6F7420696E2072657665616C20706861736500000000000000000000000000 PUSH0 DUP3 ADD MSTORE POP JUMP JUMPDEST PUSH0 PUSH2 0x163D PUSH1 0x13 DUP4 PUSH2 0x15F9 JUMP JUMPDEST SWAP2 POP PUSH2 0x1648 DUP3 PUSH2 0x1609 JUMP JUMPDEST PUSH1 0x20 DUP3 ADD SWAP1 POP SWAP2 SWAP1 POP JUMP JUMPDEST PUSH0 PUSH1 0x20 DUP3 ADD SWAP1 POP DUP2 DUP2 SUB PUSH0 DUP4 ADD MSTORE PUSH2 0x166A DUP2 PUSH2 0x1631 JUMP JUMPDEST SWAP1 POP SWAP2 SWAP1 POP JUMP JUMPDEST PUSH32 0x496E76616C69642063686F696365000000000000000000000000000000000000 PUSH0 DUP3 ADD MSTORE POP JUMP JUMPDEST PUSH0 PUSH2 0x16A5 PUSH1 0xE DUP4 PUSH2 0x15F9 JUMP JUMPDEST SWAP2 POP PUSH2 0x16B0 DUP3 PUSH2 0x1671 JUMP JUMPDEST PUSH1 0x20 DUP3 ADD SWAP1 POP SWAP2 SWAP1 POP JUMP JUMPDEST PUSH0 PUSH1 0x20 DUP3 ADD SWAP1 POP DUP2 DUP2 SUB PUSH0 DUP4 ADD MSTORE PUSH2 0x16D2 DUP2 PUSH2 0x1699 JUMP JUMPDEST SWAP1 POP SWAP2 SWAP1 POP JUMP JUMPDEST PUSH32 0x4E487B7100000000000000000000000000000000000000000000000000000000 PUSH0 MSTORE PUSH1 0x32 PUSH1 0x4 MSTORE PUSH1 0x24 PUSH0 REVERT JUMPDEST PUSH32 0x416C72656164792072657665616C656400000000000000000000000000000000 PUSH0 DUP3 ADD MSTORE POP JUMP JUMPDEST PUSH0 PUSH2 0x173A PUSH1 0x10 DUP4 PUSH2 0x15F9 JUMP JUMPDEST SWAP2 POP PUSH2 0x1745 DUP3 PUSH2 0x1706 JUMP JUMPDEST PUSH1 0x20 DUP3 ADD SWAP1 POP SWAP2 SWAP1 POP JUMP JUMPDEST PUSH0 PUSH1 0x20 DUP3 ADD SWAP1 POP DUP2 DUP2 SUB PUSH0 DUP4 ADD MSTORE PUSH2 0x1767 DUP2 PUSH2 0x172E JUMP JUMPDEST SWAP1 POP SWAP2 SWAP1 POP JUMP JUMPDEST PUSH32 0x496E76616C69642072657665616C000000000000000000000000000000000000 PUSH0 DUP3 ADD MSTORE POP JUMP JUMPDEST PUSH0 PUSH2 0x17A2 PUSH1 0xE DUP4 PUSH2 0x15F9 JUMP JUMPDEST SWAP2 POP PUSH2 0x17AD DUP3 PUSH2 0x176E JUMP JUMPDEST PUSH1 0x20 DUP3 ADD SWAP1 POP SWAP2 SWAP1 POP JUMP JUMPDEST PUSH0 PUSH1 0x20 DUP3 ADD SWAP1 POP DUP2 DUP2 SUB PUSH0 DUP4 ADD MSTORE PUSH2 0x17CF DUP2 PUSH2 0x1796 JUMP JUMPDEST SWAP1 POP SWAP2 SWAP1 POP JUMP JUMPDEST PUSH32 0x546F6F206561726C790000000000000000000000000000000000000000000000 PUSH0 DUP3 ADD MSTORE POP JUMP JUMPDEST PUSH0 PUSH2 0x180A PUSH1 0x9 DUP4 PUSH2 0x15F9 JUMP JUMPDEST SWAP2 POP PUSH2 0x1815 DUP3 PUSH2 0x17D6 JUMP JUMPDEST PUSH1 0x20 DUP3 ADD SWAP1 POP SWAP2 SWAP1 POP JUMP JUMPDEST PUSH0 PUSH1 0x20 DUP3 ADD SWAP1 POP DUP2 DUP2 SUB PUSH0 DUP4 ADD MSTORE PUSH2 0x1837 DUP2 PUSH2 0x17FE JUMP JUMPDEST SWAP1 POP SWAP2 SWAP1 POP JUMP JUMPDEST PUSH32 0x4E487B7100000000000000000000000000000000000000000000000000000000 PUSH0 MSTORE PUSH1 0x11 PUSH1 0x4 MSTORE PUSH1 0x24 PUSH0 REVERT JUMPDEST PUSH0 PUSH2 0x1875 DUP3 PUSH2 0x1311 JUMP JUMPDEST SWAP2 POP PUSH2 0x1880 DUP4 PUSH2 0x1311 JUMP JUMPDEST SWAP3 POP DUP3 DUP3 SUB SWAP1 POP DUP2 DUP2 GT ISZERO PUSH2 0x1898 JUMPI PUSH2 0x1897 PUSH2 0x183E JUMP JUMPDEST JUMPDEST SWAP3 SWAP2 POP POP JUMP JUMPDEST PUSH32 0x41646472657373206E6F7420616C6C6F77656400000000000000000000000000 PUSH0 DUP3 ADD MSTORE POP JUMP JUMPDEST PUSH0 PUSH2 0x18D2 PUSH1 0x13 DUP4 PUSH2 0x15F9 JUMP JUMPDEST SWAP2 POP PUSH2 0x18DD DUP3 PUSH2 0x189E JUMP JUMPDEST PUSH1 0x20 DUP3 ADD SWAP1 POP SWAP2 SWAP1 POP JUMP JUMPDEST PUSH0 PUSH1 0x20 DUP3 ADD SWAP1 POP DUP2 DUP2 SUB PUSH0 DUP4 ADD MSTORE PUSH2 0x18FF DUP2 PUSH2 0x18C6 JUMP JUMPDEST SWAP1 POP SWAP2 SWAP1 POP JUMP JUMPDEST PUSH32 0x5374616B65206D75737420626520312045544800000000000000000000000000 PUSH0 DUP3 ADD MSTORE POP JUMP JUMPDEST PUSH0 PUSH2 0x193A PUSH1 0x13 DUP4 PUSH2 0x15F9 JUMP JUMPDEST SWAP2 POP PUSH2 0x1945 DUP3 PUSH2 0x1906 JUMP JUMPDEST PUSH1 0x20 DUP3 ADD SWAP1 POP SWAP2 SWAP1 POP JUMP JUMPDEST PUSH0 PUSH1 0x20 DUP3 ADD SWAP1 POP DUP2 DUP2 SUB PUSH0 DUP4 ADD MSTORE PUSH2 0x1967 DUP2 PUSH2 0x192E JUMP JUMPDEST SWAP1 POP SWAP2 SWAP1 POP JUMP JUMPDEST PUSH32 0x47616D652066756C6C0000000000000000000000000000000000000000000000 PUSH0 DUP3 ADD MSTORE POP JUMP JUMPDEST PUSH0 PUSH2 0x19A2 PUSH1 0x9 DUP4 PUSH2 0x15F9 JUMP JUMPDEST SWAP2 POP PUSH2 0x19AD DUP3 PUSH2 0x196E JUMP JUMPDEST PUSH1 0x20 DUP3 ADD SWAP1 POP SWAP2 SWAP1 POP JUMP JUMPDEST PUSH0 PUSH1 0x20 DUP3 ADD SWAP1 POP DUP2 DUP2 SUB PUSH0 DUP4 ADD MSTORE PUSH2 0x19CF DUP2 PUSH2 0x1996 JUMP JUMPDEST SWAP1 POP SWAP2 SWAP1 POP JUMP JUMPDEST PUSH0 PUSH2 0x19E0 DUP3 PUSH2 0x1311 JUMP JUMPDEST SWAP2 POP PUSH2 0x19EB DUP4 PUSH2 0x1311 JUMP JUMPDEST SWAP3 POP DUP3 DUP3 ADD SWAP1 POP DUP1 DUP3 GT ISZERO PUSH2 0x1A03 JUMPI PUSH2 0x1A02 PUSH2 0x183E JUMP JUMPDEST JUMPDEST SWAP3 SWAP2 POP POP JUMP JUMPDEST PUSH32 0x4E487B7100000000000000000000000000000000000000000000000000000000 PUSH0 MSTORE PUSH1 0x12 PUSH1 0x4 MSTORE PUSH1 0x24 PUSH0 REVERT JUMPDEST PUSH0 PUSH2 0x1A40 DUP3 PUSH2 0x1311 JUMP JUMPDEST SWAP2 POP PUSH2 0x1A4B DUP4 PUSH2 0x1311 JUMP JUMPDEST SWAP3 POP DUP3 PUSH2 0x1A5B JUMPI PUSH2 0x1A5A PUSH2 0x1A09 JUMP JUMPDEST JUMPDEST DUP3 DUP3 DIV SWAP1 POP SWAP3 SWAP2 POP POP JUMP JUMPDEST PUSH0 DUP2 SWAP1 POP SWAP2 SWAP1 POP JUMP JUMPDEST PUSH2 0x1A80 PUSH2 0x1A7B DUP3 PUSH2 0x1311 JUMP JUMPDEST PUSH2 0x1A66 JUMP JUMPDEST DUP3 MSTORE POP POP JUMP JUMPDEST PUSH0 DUP2 SWAP1 POP SWAP2 SWAP1 POP JUMP JUMPDEST PUSH2 0x1AA0 PUSH2 0x1A9B DUP3 PUSH2 0x13A5 JUMP JUMPDEST PUSH2 0x1A86 JUMP JUMPDEST DUP3 MSTORE POP POP JUMP JUMPDEST PUSH0 PUSH2 0x1AB1 DUP3 DUP6 PUSH2 0x1A6F JUMP JUMPDEST PUSH1 0x20 DUP3 ADD SWAP2 POP PUSH2 0x1AC1 DUP3 DUP5 PUSH2 0x1A8F JUMP JUMPDEST PUSH1 0x20 DUP3 ADD SWAP2 POP DUP2 SWAP1 POP SWAP4 SWAP3 POP POP POP JUMP JUMPDEST PUSH0 PUSH2 0x1ADB DUP3 PUSH2 0x1311 JUMP JUMPDEST SWAP2 POP PUSH2 0x1AE6 DUP4 PUSH2 0x1311 JUMP JUMPDEST SWAP3 POP DUP3 PUSH2 0x1AF6 JUMPI PUSH2 0x1AF5 PUSH2 0x1A09 JUMP JUMPDEST JUMPDEST DUP3 DUP3 MOD SWAP1 POP SWAP3 SWAP2 POP POP JUMP INVALID LOG2 PUSH5 0x6970667358 0x22 SLT KECCAK256 0xC0 0x4D 0xDA DUP7 BASEFEE DUP1 DUP10 PUSH23 0xC9732BD2FE845422C559CFCCD054C89C98CDD6227FE170 SWAP6 PUSH5 0x736F6C6343 STOP ADDMOD BYTE STOP CALLER "
				},
				"gasEstimates": {
					"creation": {
						"codeDepositCost": "1393400",
						"executionCost": "infinite",
						"totalCost": "infinite"
					},
					"external": {
						"allowedPlayers(address)": "2943",
						"commitReveal()": "infinite",
						"currentGame()": "infinite",
						"elapsedMinutes()": "infinite",
						"elapsedSeconds()": "infinite",
						"gameState()": "2671",
						"joinGame(bytes32)": "infinite",
						"revealChoice(uint256,bytes32)": "infinite",
						"setStartTime()": "22255",
						"startTime()": "2447",
						"withdrawTimeout()": "infinite"
					},
					"internal": {
						"_determineWinner()": "infinite",
						"_resetGame()": "74621"
					}
				},
				"methodIdentifiers": {
					"allowedPlayers(address)": "e84ebc29",
					"commitReveal()": "9d7b3f2d",
					"currentGame()": "60b663bb",
					"elapsedMinutes()": "d97c8416",
					"elapsedSeconds()": "bc06b8cd",
					"gameState()": "d1f9c24d",
					"joinGame(bytes32)": "bf474766",
					"revealChoice(uint256,bytes32)": "8c10bb96",
					"setStartTime()": "a63f7c53",
					"startTime()": "78e97925",
					"withdrawTimeout()": "9c15d1a2"
				}
			},
			"storageLayout": {
				"storage": [
					{
						"astId": 704,
						"contract": "contracts/RPSLS.sol:RPSLS",
						"label": "startTime",
						"offset": 0,
						"slot": "0",
						"type": "t_uint256"
					},
					{
						"astId": 108,
						"contract": "contracts/RPSLS.sol:RPSLS",
						"label": "commitReveal",
						"offset": 0,
						"slot": "1",
						"type": "t_contract(CommitReveal)77"
					},
					{
						"astId": 115,
						"contract": "contracts/RPSLS.sol:RPSLS",
						"label": "gameState",
						"offset": 20,
						"slot": "1",
						"type": "t_enum(GameState)112"
					},
					{
						"astId": 141,
						"contract": "contracts/RPSLS.sol:RPSLS",
						"label": "currentGame",
						"offset": 0,
						"slot": "2",
						"type": "t_struct(Game)138_storage"
					},
					{
						"astId": 145,
						"contract": "contracts/RPSLS.sol:RPSLS",
						"label": "allowedPlayers",
						"offset": 0,
						"slot": "12",
						"type": "t_mapping(t_address,t_bool)"
					}
				],
				"types": {
					"t_address": {
						"encoding": "inplace",
						"label": "address",
						"numberOfBytes": "20"
					},
					"t_array(t_address)2_storage": {
						"base": "t_address",
						"encoding": "inplace",
						"label": "address[2]",
						"numberOfBytes": "64"
					},
					"t_array(t_bool)2_storage": {
						"base": "t_bool",
						"encoding": "inplace",
						"label": "bool[2]",
						"numberOfBytes": "32"
					},
					"t_array(t_bytes32)2_storage": {
						"base": "t_bytes32",
						"encoding": "inplace",
						"label": "bytes32[2]",
						"numberOfBytes": "64"
					},
					"t_array(t_uint256)2_storage": {
						"base": "t_uint256",
						"encoding": "inplace",
						"label": "uint256[2]",
						"numberOfBytes": "64"
					},
					"t_bool": {
						"encoding": "inplace",
						"label": "bool",
						"numberOfBytes": "1"
					},
					"t_bytes32": {
						"encoding": "inplace",
						"label": "bytes32",
						"numberOfBytes": "32"
					},
					"t_contract(CommitReveal)77": {
						"encoding": "inplace",
						"label": "contract CommitReveal",
						"numberOfBytes": "20"
					},
					"t_enum(GameState)112": {
						"encoding": "inplace",
						"label": "enum RPSLS.GameState",
						"numberOfBytes": "1"
					},
					"t_mapping(t_address,t_bool)": {
						"encoding": "mapping",
						"key": "t_address",
						"label": "mapping(address => bool)",
						"numberOfBytes": "32",
						"value": "t_bool"
					},
					"t_struct(Game)138_storage": {
						"encoding": "inplace",
						"label": "struct RPSLS.Game",
						"members": [
							{
								"astId": 119,
								"contract": "contracts/RPSLS.sol:RPSLS",
								"label": "players",
								"offset": 0,
								"slot": "0",
								"type": "t_array(t_address)2_storage"
							},
							{
								"astId": 123,
								"contract": "contracts/RPSLS.sol:RPSLS",
								"label": "commits",
								"offset": 0,
								"slot": "2",
								"type": "t_array(t_bytes32)2_storage"
							},
							{
								"astId": 127,
								"contract": "contracts/RPSLS.sol:RPSLS",
								"label": "choices",
								"offset": 0,
								"slot": "4",
								"type": "t_array(t_uint256)2_storage"
							},
							{
								"astId": 129,
								"contract": "contracts/RPSLS.sol:RPSLS",
								"label": "stake",
								"offset": 0,
								"slot": "6",
								"type": "t_uint256"
							},
							{
								"astId": 131,
								"contract": "contracts/RPSLS.sol:RPSLS",
								"label": "commitDeadline",
								"offset": 0,
								"slot": "7",
								"type": "t_uint256"
							},
							{
								"astId": 133,
								"contract": "contracts/RPSLS.sol:RPSLS",
								"label": "revealDeadline",
								"offset": 0,
								"slot": "8",
								"type": "t_uint256"
							},
							{
								"astId": 137,
								"contract": "contracts/RPSLS.sol:RPSLS",
								"label": "revealed",
								"offset": 0,
								"slot": "9",
								"type": "t_array(t_bool)2_storage"
							}
						],
						"numberOfBytes": "320"
					},
					"t_uint256": {
						"encoding": "inplace",
						"label": "uint256",
						"numberOfBytes": "32"
					}
				}
			},
			"userdoc": {
				"kind": "user",
				"methods": {},
				"version": 1
			}
		}
	}
}