{
	"data": {
		"bytecode": {
			"linkReferences": {},
			"object": "608060405234801561000f575f80fd5b50604051611de8380380611de883398181016040528101906100319190610279565b8060015f6101000a81548173ffffffffffffffffffffffffffffffffffffffff021916908373ffffffffffffffffffffffffffffffffffffffff1602179055506001600c5f735b38da6a701c568545dcfcb03fcb875f56beddc473ffffffffffffffffffffffffffffffffffffffff1673ffffffffffffffffffffffffffffffffffffffff1681526020019081526020015f205f6101000a81548160ff0219169083151502179055506001600c5f73ab8483f64d9c6d1ecf9b849ae677dd3315835cb273ffffffffffffffffffffffffffffffffffffffff1673ffffffffffffffffffffffffffffffffffffffff1681526020019081526020015f205f6101000a81548160ff0219169083151502179055506001600c5f734b20993bc481177ec7e8f571cecae8a9e22c02db73ffffffffffffffffffffffffffffffffffffffff1673ffffffffffffffffffffffffffffffffffffffff1681526020019081526020015f205f6101000a81548160ff0219169083151502179055506001600c5f7378731d3ca6b7e34ac0f824c42a7cc18a495cabab73ffffffffffffffffffffffffffffffffffffffff1673ffffffffffffffffffffffffffffffffffffffff1681526020019081526020015f205f6101000a81548160ff021916908315150217905550506102a4565b5f80fd5b5f73ffffffffffffffffffffffffffffffffffffffff82169050919050565b5f6102488261021f565b9050919050565b6102588161023e565b8114610262575f80fd5b50565b5f815190506102738161024f565b92915050565b5f6020828403121561028e5761028d61021b565b5b5f61029b84828501610265565b91505092915050565b611b37806102b15f395ff3fe60806040526004361061009b575f3560e01c8063a63f7c5311610063578063a63f7c531461015d578063bc06b8cd14610173578063bf4747661461019d578063d1f9c24d146101b9578063d97c8416146101e3578063e84ebc291461020d5761009b565b806360b663bb1461009f57806378e97925146100cb5780638c10bb96146100f55780639c15d1a21461011d5780639d7b3f2d14610133575b5f80fd5b3480156100aa575f80fd5b506100b3610249565b6040516100c293929190611329565b60405180910390f35b3480156100d6575f80fd5b506100df610261565b6040516100ec919061135e565b60405180910390f35b348015610100575f80fd5b5061011b600480360381019061011691906113d8565b610266565b005b348015610128575f80fd5b50610131610578565b005b34801561013e575f80fd5b506101476109ad565b6040516101549190611490565b60405180910390f35b348015610168575f80fd5b506101716109d2565b005b34801561017e575f80fd5b506101876109da565b604051610194919061135e565b60405180910390f35b6101b760048036038101906101b291906114a9565b6109ed565b005b3480156101c4575f80fd5b506101cd610e3a565b6040516101da9190611547565b60405180910390f35b3480156101ee575f80fd5b506101f7610e4d565b604051610204919061135e565b60405180910390f35b348015610218575f80fd5b50610233600480360381019061022e919061159b565b610e6c565b60405161024091906115e0565b60405180910390f35b60028060060154908060070154908060080154905083565b5f5481565b600280811115610279576102786114d4565b5b600160149054906101000a900460ff16600281111561029b5761029a6114d4565b5b146102db576040517f08c379a00000000000000000000000000000000000000000000000000000000081526004016102d290611653565b60405180910390fd5b6005821061031e576040517f08c379a0000000000000000000000000000000000000000000000000000000008152600401610315906116bb565b60405180910390fd5b5f3373ffffffffffffffffffffffffffffffffffffffff1660025f015f6002811061034c5761034b6116d9565b5b015f9054906101000a900473ffffffffffffffffffffffffffffffffffffffff1673ffffffffffffffffffffffffffffffffffffffff161461038f576001610391565b5f5b60ff169050600260090181600281106103ad576103ac6116d9565b5b602091828204019190069054906101000a900460ff1615610403576040517f08c379a00000000000000000000000000000000000000000000000000000000081526004016103fa90611750565b60405180910390fd5b5f61040e8484610e89565b9050600280018260028110610426576104256116d9565b5b01548114610469576040517f08c379a0000000000000000000000000000000000000000000000000000000008152600401610460906117b8565b60405180910390fd5b8360026004018360028110610481576104806116d9565b5b018190555060016002600901836002811061049f5761049e6116d9565b5b602091828204019190066101000a81548160ff02191690831515021790555060026009015f600281106104d5576104d46116d9565b5b602091828204019190069054906101000a900460ff1680156105215750600260090160016002811061050a576105096116d9565b5b602091828204019190069054906101000a900460ff165b1561052f5761052e610ebb565b5b3373ffffffffffffffffffffffffffffffffffffffff167fb43a48f4b5fe1b13780390dc7b039206c4f81535c0fda507c687d7e921eb18bb60405160405180910390a250505050565b60026007015442118061058f575060026008015442115b6105ce576040517f08c379a00000000000000000000000000000000000000000000000000000000081526004016105c590611820565b60405180910390fd5b600160028111156105e2576105e16114d4565b5b600160149054906101000a900460ff166002811115610604576106036114d4565b5b0361068d5760025f015f6002811061061f5761061e6116d9565b5b015f9054906101000a900473ffffffffffffffffffffffffffffffffffffffff1673ffffffffffffffffffffffffffffffffffffffff166108fc60026006015490811502906040515f60405180830381858888f19350505050158015610687573d5f803e3d5ffd5b50610960565b60026009015f600281106106a4576106a36116d9565b5b602091828204019190069054906101000a900460ff1680156106f1575060026009016001600281106106d9576106d86116d9565b5b602091828204019190069054906101000a900460ff16155b156107755760025f015f6002811061070c5761070b6116d9565b5b015f9054906101000a900473ffffffffffffffffffffffffffffffffffffffff1673ffffffffffffffffffffffffffffffffffffffff166108fc4790811502906040515f60405180830381858888f1935050505015801561076f573d5f803e3d5ffd5b5061095f565b600260090160016002811061078d5761078c6116d9565b5b602091828204019190069054906101000a900460ff1680156107d9575060026009015f600281106107c1576107c06116d9565b5b602091828204019190069054906101000a900460ff16155b1561085e5760025f016001600281106107f5576107f46116d9565b5b015f9054906101000a900473ffffffffffffffffffffffffffffffffffffffff1673ffffffffffffffffffffffffffffffffffffffff166108fc4790811502906040515f60405180830381858888f19350505050158015610858573d5f803e3d5ffd5b5061095e565b60025f015f60028110610874576108736116d9565b5b015f9054906101000a900473ffffffffffffffffffffffffffffffffffffffff1673ffffffffffffffffffffffffffffffffffffffff166108fc60026006015490811502906040515f60405180830381858888f193505050501580156108dc573d5f803e3d5ffd5b5060025f016001600281106108f4576108f36116d9565b5b015f9054906101000a900473ffffffffffffffffffffffffffffffffffffffff1673ffffffffffffffffffffffffffffffffffffffff166108fc60026006015490811502906040515f60405180830381858888f1935050505015801561095c573d5f803e3d5ffd5b505b5b5b3373ffffffffffffffffffffffffffffffffffffffff167f71b8d288b6b795cd40378095d6a9c6466eb4a081c0238dfd691b0b1f5868f18060405160405180910390a26109ab611266565b565b60015f9054906101000a900473ffffffffffffffffffffffffffffffffffffffff1681565b425f81905550565b5f8054426109e8919061186b565b905090565b600c5f3373ffffffffffffffffffffffffffffffffffffffff1673ffffffffffffffffffffffffffffffffffffffff1681526020019081526020015f205f9054906101000a900460ff16610a76576040517f08c379a0000000000000000000000000000000000000000000000000000000008152600401610a6d906118e8565b60405180910390fd5b670de0b6b3a76400003414610ac0576040517f08c379a0000000000000000000000000000000000000000000000000000000008152600401610ab790611950565b60405180910390fd5b5f73ffffffffffffffffffffffffffffffffffffffff1660025f015f60028110610aed57610aec6116d9565b5b015f9054906101000a900473ffffffffffffffffffffffffffffffffffffffff1673ffffffffffffffffffffffffffffffffffffffff161480610b9257505f73ffffffffffffffffffffffffffffffffffffffff1660025f01600160028110610b5957610b586116d9565b5b015f9054906101000a900473ffffffffffffffffffffffffffffffffffffffff1673ffffffffffffffffffffffffffffffffffffffff16145b610bd1576040517f08c379a0000000000000000000000000000000000000000000000000000000008152600401610bc8906119b8565b60405180910390fd5b5f73ffffffffffffffffffffffffffffffffffffffff1660025f015f60028110610bfe57610bfd6116d9565b5b015f9054906101000a900473ffffffffffffffffffffffffffffffffffffffff1673ffffffffffffffffffffffffffffffffffffffff1603610d3e573360025f015f60028110610c5157610c506116d9565b5b015f6101000a81548173ffffffffffffffffffffffffffffffffffffffff021916908373ffffffffffffffffffffffffffffffffffffffff16021790555080600280015f60028110610ca657610ca56116d9565b5b01819055503460026006018190555061012c42610cc391906119d6565b60026007018190555060018060146101000a81548160ff02191690836002811115610cf157610cf06114d4565b5b02179055503373ffffffffffffffffffffffffffffffffffffffff167f67cf7f1535e1c1323fe4e76266f7d55f0c1f67fdf449db65e014f9d35881514d60405160405180910390a2610df4565b3360025f01600160028110610d5657610d556116d9565b5b015f6101000a81548173ffffffffffffffffffffffffffffffffffffffff021916908373ffffffffffffffffffffffffffffffffffffffff1602179055508060028001600160028110610dac57610dab6116d9565b5b018190555061012c42610dbf91906119d6565b6002600801819055506002600160146101000a81548160ff02191690836002811115610dee57610ded6114d4565b5b02179055505b3373ffffffffffffffffffffffffffffffffffffffff167f385d85909904c479680cfb49104dd25dd686a79a13b842e5ab5f1fab8fa0fb2a60405160405180910390a250565b600160149054906101000a900460ff1681565b5f603c5f5442610e5d919061186b565b610e679190611a36565b905090565b600c602052805f5260405f205f915054906101000a900460ff1681565b5f8282604051602001610e9d929190611aa6565b60405160208183030381529060405280519060200120905092915050565b5f60026004015f60028110610ed357610ed26116d9565b5b015490505f6002600401600160028110610ef057610eef6116d9565b5b015490505f604051806040016040528060025f015f60028110610f1657610f156116d9565b5b015f9054906101000a900473ffffffffffffffffffffffffffffffffffffffff1673ffffffffffffffffffffffffffffffffffffffff1673ffffffffffffffffffffffffffffffffffffffff16815260200160025f01600160028110610f7f57610f7e6116d9565b5b015f9054906101000a900473ffffffffffffffffffffffffffffffffffffffff1673ffffffffffffffffffffffffffffffffffffffff1673ffffffffffffffffffffffffffffffffffffffff1681525090505f6005808486610fe1919061186b565b610feb91906119d6565b610ff59190611ad1565b905060018114806110065750600381145b156110c557815f6002811061101e5761101d6116d9565b5b602002015173ffffffffffffffffffffffffffffffffffffffff166108fc4790811502906040515f60405180830381858888f19350505050158015611065573d5f803e3d5ffd5b50815f60028110611079576110786116d9565b5b602002015173ffffffffffffffffffffffffffffffffffffffff167f745c90b656b4aafe296c8ca35aeacfe56cb96c90e1d320e5da643fff1051b6c060405160405180910390a2611258565b60028114806110d45750600481145b1561119557816001600281106110ed576110ec6116d9565b5b602002015173ffffffffffffffffffffffffffffffffffffffff166108fc4790811502906040515f60405180830381858888f19350505050158015611134573d5f803e3d5ffd5b5081600160028110611149576111486116d9565b5b602002015173ffffffffffffffffffffffffffffffffffffffff167f745c90b656b4aafe296c8ca35aeacfe56cb96c90e1d320e5da643fff1051b6c060405160405180910390a2611257565b815f600281106111a8576111a76116d9565b5b602002015173ffffffffffffffffffffffffffffffffffffffff166108fc60026006015490811502906040515f60405180830381858888f193505050501580156111f4573d5f803e3d5ffd5b5081600160028110611209576112086116d9565b5b602002015173ffffffffffffffffffffffffffffffffffffffff166108fc60026006015490811502906040515f60405180830381858888f19350505050158015611255573d5f803e3d5ffd5b505b5b611260611266565b50505050565b60025f8082015f61127791906112e7565b600282015f61128691906112f3565b600482015f61129591906112ff565b600682015f9055600782015f9055600882015f9055600982015f6112b9919061130b565b50505f600160146101000a81548160ff021916908360028111156112e0576112df6114d4565b5b0217905550565b505f81556001015f9055565b505f81556001015f9055565b505f81556001015f9055565b505f9055565b5f819050919050565b61132381611311565b82525050565b5f60608201905061133c5f83018661131a565b611349602083018561131a565b611356604083018461131a565b949350505050565b5f6020820190506113715f83018461131a565b92915050565b5f80fd5b61138481611311565b811461138e575f80fd5b50565b5f8135905061139f8161137b565b92915050565b5f819050919050565b6113b7816113a5565b81146113c1575f80fd5b50565b5f813590506113d2816113ae565b92915050565b5f80604083850312156113ee576113ed611377565b5b5f6113fb85828601611391565b925050602061140c858286016113c4565b9150509250929050565b5f73ffffffffffffffffffffffffffffffffffffffff82169050919050565b5f819050919050565b5f61145861145361144e84611416565b611435565b611416565b9050919050565b5f6114698261143e565b9050919050565b5f61147a8261145f565b9050919050565b61148a81611470565b82525050565b5f6020820190506114a35f830184611481565b92915050565b5f602082840312156114be576114bd611377565b5b5f6114cb848285016113c4565b91505092915050565b7f4e487b71000000000000000000000000000000000000000000000000000000005f52602160045260245ffd5b60038110611512576115116114d4565b5b50565b5f81905061152282611501565b919050565b5f61153182611515565b9050919050565b61154181611527565b82525050565b5f60208201905061155a5f830184611538565b92915050565b5f61156a82611416565b9050919050565b61157a81611560565b8114611584575f80fd5b50565b5f8135905061159581611571565b92915050565b5f602082840312156115b0576115af611377565b5b5f6115bd84828501611587565b91505092915050565b5f8115159050919050565b6115da816115c6565b82525050565b5f6020820190506115f35f8301846115d1565b92915050565b5f82825260208201905092915050565b7f4e6f7420696e2072657665616c207068617365000000000000000000000000005f82015250565b5f61163d6013836115f9565b915061164882611609565b602082019050919050565b5f6020820190508181035f83015261166a81611631565b9050919050565b7f496e76616c69642063686f6963650000000000000000000000000000000000005f82015250565b5f6116a5600e836115f9565b91506116b082611671565b602082019050919050565b5f6020820190508181035f8301526116d281611699565b9050919050565b7f4e487b71000000000000000000000000000000000000000000000000000000005f52603260045260245ffd5b7f416c72656164792072657665616c6564000000000000000000000000000000005f82015250565b5f61173a6010836115f9565b915061174582611706565b602082019050919050565b5f6020820190508181035f8301526117678161172e565b9050919050565b7f496e76616c69642072657665616c0000000000000000000000000000000000005f82015250565b5f6117a2600e836115f9565b91506117ad8261176e565b602082019050919050565b5f6020820190508181035f8301526117cf81611796565b9050919050565b7f546f6f206561726c7900000000000000000000000000000000000000000000005f82015250565b5f61180a6009836115f9565b9150611815826117d6565b602082019050919050565b5f6020820190508181035f830152611837816117fe565b9050919050565b7f4e487b71000000000000000000000000000000000000000000000000000000005f52601160045260245ffd5b5f61187582611311565b915061188083611311565b92508282039050818111156118985761189761183e565b5b92915050565b7f41646472657373206e6f7420616c6c6f776564000000000000000000000000005f82015250565b5f6118d26013836115f9565b91506118dd8261189e565b602082019050919050565b5f6020820190508181035f8301526118ff816118c6565b9050919050565b7f5374616b65206d757374206265203120455448000000000000000000000000005f82015250565b5f61193a6013836115f9565b915061194582611906565b602082019050919050565b5f6020820190508181035f8301526119678161192e565b9050919050565b7f47616d652066756c6c00000000000000000000000000000000000000000000005f82015250565b5f6119a26009836115f9565b91506119ad8261196e565b602082019050919050565b5f6020820190508181035f8301526119cf81611996565b9050919050565b5f6119e082611311565b91506119eb83611311565b9250828201905080821115611a0357611a0261183e565b5b92915050565b7f4e487b71000000000000000000000000000000000000000000000000000000005f52601260045260245ffd5b5f611a4082611311565b9150611a4b83611311565b925082611a5b57611a5a611a09565b5b828204905092915050565b5f819050919050565b611a80611a7b82611311565b611a66565b82525050565b5f819050919050565b611aa0611a9b826113a5565b611a86565b82525050565b5f611ab18285611a6f565b602082019150611ac18284611a8f565b6020820191508190509392505050565b5f611adb82611311565b9150611ae683611311565b925082611af657611af5611a09565b5b82820690509291505056fea2646970667358221220c04dda8648808976c9732bd2fe845422c559cfccd054c89c98cdd6227fe1709564736f6c634300081a0033",
			"opcodes": "PUSH1 0x80 PUSH1 0x40 MSTORE CALLVALUE DUP1 ISZERO PUSH2 0xF JUMPI PUSH0 DUP1 REVERT JUMPDEST POP PUSH1 0x40 MLOAD PUSH2 0x1DE8 CODESIZE SUB DUP1 PUSH2 0x1DE8 DUP4 CODECOPY DUP2 DUP2 ADD PUSH1 0x40 MSTORE DUP2 ADD SWAP1 PUSH2 0x31 SWAP2 SWAP1 PUSH2 0x279 JUMP JUMPDEST DUP1 PUSH1 0x1 PUSH0 PUSH2 0x100 EXP DUP2 SLOAD DUP2 PUSH20 0xFFFFFFFFFFFFFFFFFFFFFFFFFFFFFFFFFFFFFFFF MUL NOT AND SWAP1 DUP4 PUSH20 0xFFFFFFFFFFFFFFFFFFFFFFFFFFFFFFFFFFFFFFFF AND MUL OR SWAP1 SSTORE POP PUSH1 0x1 PUSH1 0xC PUSH0 PUSH20 0x5B38DA6A701C568545DCFCB03FCB875F56BEDDC4 PUSH20 0xFFFFFFFFFFFFFFFFFFFFFFFFFFFFFFFFFFFFFFFF AND PUSH20 0xFFFFFFFFFFFFFFFFFFFFFFFFFFFFFFFFFFFFFFFF AND DUP2 MSTORE PUSH1 0x20 ADD SWAP1 DUP2 MSTORE PUSH1 0x20 ADD PUSH0 KECCAK256 PUSH0 PUSH2 0x100 EXP DUP2 SLOAD DUP2 PUSH1 0xFF MUL NOT AND SWAP1 DUP4 ISZERO ISZERO MUL OR SWAP1 SSTORE POP PUSH1 0x1 PUSH1 0xC PUSH0 PUSH20 0xAB8483F64D9C6D1ECF9B849AE677DD3315835CB2 PUSH20 0xFFFFFFFFFFFFFFFFFFFFFFFFFFFFFFFFFFFFFFFF AND PUSH20 0xFFFFFFFFFFFFFFFFFFFFFFFFFFFFFFFFFFFFFFFF AND DUP2 MSTORE PUSH1 0x20 ADD SWAP1 DUP2 MSTORE PUSH1 0x20 ADD PUSH0 KECCAK256 PUSH0 PUSH2 0x100 EXP DUP2 SLOAD DUP2 PUSH1 0xFF MUL NOT AND SWAP1 DUP4 ISZERO ISZERO MUL OR SWAP1 SSTORE POP PUSH1 0x1 PUSH1 0xC PUSH0 PUSH20 0x4B20993BC481177EC7E8F571CECAE8A9E22C02DB PUSH20 0xFFFFFFFFFFFFFFFFFFFFFFFFFFFFFFFFFFFFFFFF AND PUSH20 0xFFFFFFFFFFFFFFFFFFFFFFFFFFFFFFFFFFFFFFFF AND DUP2 MSTORE PUSH1 0x20 ADD SWAP1 DUP2 MSTORE PUSH1 0x20 ADD PUSH0 KECCAK256 PUSH0 PUSH2 0x100 EXP DUP2 SLOAD DUP2 PUSH1 0xFF MUL NOT AND SWAP1 DUP4 ISZERO ISZERO MUL OR SWAP1 SSTORE POP PUSH1 0x1 PUSH1 0xC PUSH0 PUSH20 0x78731D3CA6B7E34AC0F824C42A7CC18A495CABAB PUSH20 0xFFFFFFFFFFFFFFFFFFFFFFFFFFFFFFFFFFFFFFFF AND PUSH20 0xFFFFFFFFFFFFFFFFFFFFFFFFFFFFFFFFFFFFFFFF AND DUP2 MSTORE PUSH1 0x20 ADD SWAP1 DUP2 MSTORE PUSH1 0x20 ADD PUSH0 KECCAK256 PUSH0 PUSH2 0x100 EXP DUP2 SLOAD DUP2 PUSH1 0xFF MUL NOT AND SWAP1 DUP4 ISZERO ISZERO MUL OR SWAP1 SSTORE POP POP PUSH2 0x2A4 JUMP JUMPDEST PUSH0 DUP1 REVERT JUMPDEST PUSH0 PUSH20 0xFFFFFFFFFFFFFFFFFFFFFFFFFFFFFFFFFFFFFFFF DUP3 AND SWAP1 POP SWAP2 SWAP1 POP JUMP JUMPDEST PUSH0 PUSH2 0x248 DUP3 PUSH2 0x21F JUMP JUMPDEST SWAP1 POP SWAP2 SWAP1 POP JUMP JUMPDEST PUSH2 0x258 DUP2 PUSH2 0x23E JUMP JUMPDEST DUP2 EQ PUSH2 0x262 JUMPI PUSH0 DUP1 REVERT JUMPDEST POP JUMP JUMPDEST PUSH0 DUP2 MLOAD SWAP1 POP PUSH2 0x273 DUP2 PUSH2 0x24F JUMP JUMPDEST SWAP3 SWAP2 POP POP JUMP JUMPDEST PUSH0 PUSH1 0x20 DUP3 DUP5 SUB SLT ISZERO PUSH2 0x28E JUMPI PUSH2 0x28D PUSH2 0x21B JUMP JUMPDEST JUMPDEST PUSH0 PUSH2 0x29B DUP5 DUP3 DUP6 ADD PUSH2 0x265 JUMP JUMPDEST SWAP2 POP POP SWAP3 SWAP2 POP POP JUMP JUMPDEST PUSH2 0x1B37 DUP1 PUSH2 0x2B1 PUSH0 CODECOPY PUSH0 RETURN INVALID PUSH1 0x80 PUSH1 0x40 MSTORE PUSH1 0x4 CALLDATASIZE LT PUSH2 0x9B JUMPI PUSH0 CALLDATALOAD PUSH1 0xE0 SHR DUP1 PUSH4 0xA63F7C53 GT PUSH2 0x63 JUMPI DUP1 PUSH4 0xA63F7C53 EQ PUSH2 0x15D JUMPI DUP1 PUSH4 0xBC06B8CD EQ PUSH2 0x173 JUMPI DUP1 PUSH4 0xBF474766 EQ PUSH2 0x19D JUMPI DUP1 PUSH4 0xD1F9C24D EQ PUSH2 0x1B9 JUMPI DUP1 PUSH4 0xD97C8416 EQ PUSH2 0x1E3 JUMPI DUP1 PUSH4 0xE84EBC29 EQ PUSH2 0x20D JUMPI PUSH2 0x9B JUMP JUMPDEST DUP1 PUSH4 0x60B663BB EQ PUSH2 0x9F JUMPI DUP1 PUSH4 0x78E97925 EQ PUSH2 0xCB JUMPI DUP1 PUSH4 0x8C10BB96 EQ PUSH2 0xF5 JUMPI DUP1 PUSH4 0x9C15D1A2 EQ PUSH2 0x11D JUMPI DUP1 PUSH4 0x9D7B3F2D EQ PUSH2 0x133 JUMPI JUMPDEST PUSH0 DUP1 REVERT JUMPDEST CALLVALUE DUP1 ISZERO PUSH2 0xAA JUMPI PUSH0 DUP1 REVERT JUMPDEST POP PUSH2 0xB3 PUSH2 0x249 JUMP JUMPDEST PUSH1 0x40 MLOAD PUSH2 0xC2 SWAP4 SWAP3 SWAP2 SWAP1 PUSH2 0x1329 JUMP JUMPDEST PUSH1 0x40 MLOAD DUP1 SWAP2 SUB SWAP1 RETURN JUMPDEST CALLVALUE DUP1 ISZERO PUSH2 0xD6 JUMPI PUSH0 DUP1 REVERT JUMPDEST POP PUSH2 0xDF PUSH2 0x261 JUMP JUMPDEST PUSH1 0x40 MLOAD PUSH2 0xEC SWAP2 SWAP1 PUSH2 0x135E JUMP JUMPDEST PUSH1 0x40 MLOAD DUP1 SWAP2 SUB SWAP1 RETURN JUMPDEST CALLVALUE DUP1 ISZERO PUSH2 0x100 JUMPI PUSH0 DUP1 REVERT JUMPDEST POP PUSH2 0x11B PUSH1 0x4 DUP1 CALLDATASIZE SUB DUP2 ADD SWAP1 PUSH2 0x116 SWAP2 SWAP1 PUSH2 0x13D8 JUMP JUMPDEST PUSH2 0x266 JUMP JUMPDEST STOP JUMPDEST CALLVALUE DUP1 ISZERO PUSH2 0x128 JUMPI PUSH0 DUP1 REVERT JUMPDEST POP PUSH2 0x131 PUSH2 0x578 JUMP JUMPDEST STOP JUMPDEST CALLVALUE DUP1 ISZERO PUSH2 0x13E JUMPI PUSH0 DUP1 REVERT JUMPDEST POP PUSH2 0x147 PUSH2 0x9AD JUMP JUMPDEST PUSH1 0x40 MLOAD PUSH2 0x154 SWAP2 SWAP1 PUSH2 0x1490 JUMP JUMPDEST PUSH1 0x40 MLOAD DUP1 SWAP2 SUB SWAP1 RETURN JUMPDEST CALLVALUE DUP1 ISZERO PUSH2 0x168 JUMPI PUSH0 DUP1 REVERT JUMPDEST POP PUSH2 0x171 PUSH2 0x9D2 JUMP JUMPDEST STOP JUMPDEST CALLVALUE DUP1 ISZERO PUSH2 0x17E JUMPI PUSH0 DUP1 REVERT JUMPDEST POP PUSH2 0x187 PUSH2 0x9DA JUMP JUMPDEST PUSH1 0x40 MLOAD PUSH2 0x194 SWAP2 SWAP1 PUSH2 0x135E JUMP JUMPDEST PUSH1 0x40 MLOAD DUP1 SWAP2 SUB SWAP1 RETURN JUMPDEST PUSH2 0x1B7 PUSH1 0x4 DUP1 CALLDATASIZE SUB DUP2 ADD SWAP1 PUSH2 0x1B2 SWAP2 SWAP1 PUSH2 0x14A9 JUMP JUMPDEST PUSH2 0x9ED JUMP JUMPDEST STOP JUMPDEST CALLVALUE DUP1 ISZERO PUSH2 0x1C4 JUMPI PUSH0 DUP1 REVERT JUMPDEST POP PUSH2 0x1CD PUSH2 0xE3A JUMP JUMPDEST PUSH1 0x40 MLOAD PUSH2 0x1DA SWAP2 SWAP1 PUSH2 0x1547 JUMP JUMPDEST PUSH1 0x40 MLOAD DUP1 SWAP2 SUB SWAP1 RETURN JUMPDEST CALLVALUE DUP1 ISZERO PUSH2 0x1EE JUMPI PUSH0 DUP1 REVERT JUMPDEST POP PUSH2 0x1F7 PUSH2 0xE4D JUMP JUMPDEST PUSH1 0x40 MLOAD PUSH2 0x204 SWAP2 SWAP1 PUSH2 0x135E JUMP JUMPDEST PUSH1 0x40 MLOAD DUP1 SWAP2 SUB SWAP1 RETURN JUMPDEST CALLVALUE DUP1 ISZERO PUSH2 0x218 JUMPI PUSH0 DUP1 REVERT JUMPDEST POP PUSH2 0x233 PUSH1 0x4 DUP1 CALLDATASIZE SUB DUP2 ADD SWAP1 PUSH2 0x22E SWAP2 SWAP1 PUSH2 0x159B JUMP JUMPDEST PUSH2 0xE6C JUMP JUMPDEST PUSH1 0x40 MLOAD PUSH2 0x240 SWAP2 SWAP1 PUSH2 0x15E0 JUMP JUMPDEST PUSH1 0x40 MLOAD DUP1 SWAP2 SUB SWAP1 RETURN JUMPDEST PUSH1 0x2 DUP1 PUSH1 0x6 ADD SLOAD SWAP1 DUP1 PUSH1 0x7 ADD SLOAD SWAP1 DUP1 PUSH1 0x8 ADD SLOAD SWAP1 POP DUP4 JUMP JUMPDEST PUSH0 SLOAD DUP2 JUMP JUMPDEST PUSH1 0x2 DUP1 DUP2 GT ISZERO PUSH2 0x279 JUMPI PUSH2 0x278 PUSH2 0x14D4 JUMP JUMPDEST JUMPDEST PUSH1 0x1 PUSH1 0x14 SWAP1 SLOAD SWAP1 PUSH2 0x100 EXP SWAP1 DIV PUSH1 0xFF AND PUSH1 0x2 DUP2 GT ISZERO PUSH2 0x29B JUMPI PUSH2 0x29A PUSH2 0x14D4 JUMP JUMPDEST JUMPDEST EQ PUSH2 0x2DB JUMPI PUSH1 0x40 MLOAD PUSH32 0x8C379A000000000000000000000000000000000000000000000000000000000 DUP2 MSTORE PUSH1 0x4 ADD PUSH2 0x2D2 SWAP1 PUSH2 0x1653 JUMP JUMPDEST PUSH1 0x40 MLOAD DUP1 SWAP2 SUB SWAP1 REVERT JUMPDEST PUSH1 0x5 DUP3 LT PUSH2 0x31E JUMPI PUSH1 0x40 MLOAD PUSH32 0x8C379A000000000000000000000000000000000000000000000000000000000 DUP2 MSTORE PUSH1 0x4 ADD PUSH2 0x315 SWAP1 PUSH2 0x16BB JUMP JUMPDEST PUSH1 0x40 MLOAD DUP1 SWAP2 SUB SWAP1 REVERT JUMPDEST PUSH0 CALLER PUSH20 0xFFFFFFFFFFFFFFFFFFFFFFFFFFFFFFFFFFFFFFFF AND PUSH1 0x2 PUSH0 ADD PUSH0 PUSH1 0x2 DUP2 LT PUSH2 0x34C JUMPI PUSH2 0x34B PUSH2 0x16D9 JUMP JUMPDEST JUMPDEST ADD PUSH0 SWAP1 SLOAD SWAP1 PUSH2 0x100 EXP SWAP1 DIV PUSH20 0xFFFFFFFFFFFFFFFFFFFFFFFFFFFFFFFFFFFFFFFF AND PUSH20 0xFFFFFFFFFFFFFFFFFFFFFFFFFFFFFFFFFFFFFFFF AND EQ PUSH2 0x38F JUMPI PUSH1 0x1 PUSH2 0x391 JUMP JUMPDEST PUSH0 JUMPDEST PUSH1 0xFF AND SWAP1 POP PUSH1 0x2 PUSH1 0x9 ADD DUP2 PUSH1 0x2 DUP2 LT PUSH2 0x3AD JUMPI PUSH2 0x3AC PUSH2 0x16D9 JUMP JUMPDEST JUMPDEST PUSH1 0x20 SWAP2 DUP3 DUP3 DIV ADD SWAP2 SWAP1 MOD SWAP1 SLOAD SWAP1 PUSH2 0x100 EXP SWAP1 DIV PUSH1 0xFF AND ISZERO PUSH2 0x403 JUMPI PUSH1 0x40 MLOAD PUSH32 0x8C379A000000000000000000000000000000000000000000000000000000000 DUP2 MSTORE PUSH1 0x4 ADD PUSH2 0x3FA SWAP1 PUSH2 0x1750 JUMP JUMPDEST PUSH1 0x40 MLOAD DUP1 SWAP2 SUB SWAP1 REVERT JUMPDEST PUSH0 PUSH2 0x40E DUP5 DUP5 PUSH2 0xE89 JUMP JUMPDEST SWAP1 POP PUSH1 0x2 DUP1 ADD DUP3 PUSH1 0x2 DUP2 LT PUSH2 0x426 JUMPI PUSH2 0x425 PUSH2 0x16D9 JUMP JUMPDEST JUMPDEST ADD SLOAD DUP2 EQ PUSH2 0x469 JUMPI PUSH1 0x40 MLOAD PUSH32 0x8C379A000000000000000000000000000000000000000000000000000000000 DUP2 MSTORE PUSH1 0x4 ADD PUSH2 0x460 SWAP1 PUSH2 0x17B8 JUMP JUMPDEST PUSH1 0x40 MLOAD DUP1 SWAP2 SUB SWAP1 REVERT JUMPDEST DUP4 PUSH1 0x2 PUSH1 0x4 ADD DUP4 PUSH1 0x2 DUP2 LT PUSH2 0x481 JUMPI PUSH2 0x480 PUSH2 0x16D9 JUMP JUMPDEST JUMPDEST ADD DUP2 SWAP1 SSTORE POP PUSH1 0x1 PUSH1 0x2 PUSH1 0x9 ADD DUP4 PUSH1 0x2 DUP2 LT PUSH2 0x49F JUMPI PUSH2 0x49E PUSH2 0x16D9 JUMP JUMPDEST JUMPDEST PUSH1 0x20 SWAP2 DUP3 DUP3 DIV ADD SWAP2 SWAP1 MOD PUSH2 0x100 EXP DUP2 SLOAD DUP2 PUSH1 0xFF MUL NOT AND SWAP1 DUP4 ISZERO ISZERO MUL OR SWAP1 SSTORE POP PUSH1 0x2 PUSH1 0x9 ADD PUSH0 PUSH1 0x2 DUP2 LT PUSH2 0x4D5 JUMPI PUSH2 0x4D4 PUSH2 0x16D9 JUMP JUMPDEST JUMPDEST PUSH1 0x20 SWAP2 DUP3 DUP3 DIV ADD SWAP2 SWAP1 MOD SWAP1 SLOAD SWAP1 PUSH2 0x100 EXP SWAP1 DIV PUSH1 0xFF AND DUP1 ISZERO PUSH2 0x521 JUMPI POP PUSH1 0x2 PUSH1 0x9 ADD PUSH1 0x1 PUSH1 0x2 DUP2 LT PUSH2 0x50A JUMPI PUSH2 0x509 PUSH2 0x16D9 JUMP JUMPDEST JUMPDEST PUSH1 0x20 SWAP2 DUP3 DUP3 DIV ADD SWAP2 SWAP1 MOD SWAP1 SLOAD SWAP1 PUSH2 0x100 EXP SWAP1 DIV PUSH1 0xFF AND JUMPDEST ISZERO PUSH2 0x52F JUMPI PUSH2 0x52E PUSH2 0xEBB JUMP JUMPDEST JUMPDEST CALLER PUSH20 0xFFFFFFFFFFFFFFFFFFFFFFFFFFFFFFFFFFFFFFFF AND PUSH32 0xB43A48F4B5FE1B13780390DC7B039206C4F81535C0FDA507C687D7E921EB18BB PUSH1 0x40 MLOAD PUSH1 0x40 MLOAD DUP1 SWAP2 SUB SWAP1 LOG2 POP POP POP POP JUMP JUMPDEST PUSH1 0x2 PUSH1 0x7 ADD SLOAD TIMESTAMP GT DUP1 PUSH2 0x58F JUMPI POP PUSH1 0x2 PUSH1 0x8 ADD SLOAD TIMESTAMP GT JUMPDEST PUSH2 0x5CE JUMPI PUSH1 0x40 MLOAD PUSH32 0x8C379A000000000000000000000000000000000000000000000000000000000 DUP2 MSTORE PUSH1 0x4 ADD PUSH2 0x5C5 SWAP1 PUSH2 0x1820 JUMP JUMPDEST PUSH1 0x40 MLOAD DUP1 SWAP2 SUB SWAP1 REVERT JUMPDEST PUSH1 0x1 PUSH1 0x2 DUP2 GT ISZERO PUSH2 0x5E2 JUMPI PUSH2 0x5E1 PUSH2 0x14D4 JUMP JUMPDEST JUMPDEST PUSH1 0x1 PUSH1 0x14 SWAP1 SLOAD SWAP1 PUSH2 0x100 EXP SWAP1 DIV PUSH1 0xFF AND PUSH1 0x2 DUP2 GT ISZERO PUSH2 0x604 JUMPI PUSH2 0x603 PUSH2 0x14D4 JUMP JUMPDEST JUMPDEST SUB PUSH2 0x68D JUMPI PUSH1 0x2 PUSH0 ADD PUSH0 PUSH1 0x2 DUP2 LT PUSH2 0x61F JUMPI PUSH2 0x61E PUSH2 0x16D9 JUMP JUMPDEST JUMPDEST ADD PUSH0 SWAP1 SLOAD SWAP1 PUSH2 0x100 EXP SWAP1 DIV PUSH20 0xFFFFFFFFFFFFFFFFFFFFFFFFFFFFFFFFFFFFFFFF AND PUSH20 0xFFFFFFFFFFFFFFFFFFFFFFFFFFFFFFFFFFFFFFFF AND PUSH2 0x8FC PUSH1 0x2 PUSH1 0x6 ADD SLOAD SWAP1 DUP2 ISZERO MUL SWAP1 PUSH1 0x40 MLOAD PUSH0 PUSH1 0x40 MLOAD DUP1 DUP4 SUB DUP2 DUP6 DUP9 DUP9 CALL SWAP4 POP POP POP POP ISZERO DUP1 ISZERO PUSH2 0x687 JUMPI RETURNDATASIZE PUSH0 DUP1 RETURNDATACOPY RETURNDATASIZE PUSH0 REVERT JUMPDEST POP PUSH2 0x960 JUMP JUMPDEST PUSH1 0x2 PUSH1 0x9 ADD PUSH0 PUSH1 0x2 DUP2 LT PUSH2 0x6A4 JUMPI PUSH2 0x6A3 PUSH2 0x16D9 JUMP JUMPDEST JUMPDEST PUSH1 0x20 SWAP2 DUP3 DUP3 DIV ADD SWAP2 SWAP1 MOD SWAP1 SLOAD SWAP1 PUSH2 0x100 EXP SWAP1 DIV PUSH1 0xFF AND DUP1 ISZERO PUSH2 0x6F1 JUMPI POP PUSH1 0x2 PUSH1 0x9 ADD PUSH1 0x1 PUSH1 0x2 DUP2 LT PUSH2 0x6D9 JUMPI PUSH2 0x6D8 PUSH2 0x16D9 JUMP JUMPDEST JUMPDEST PUSH1 0x20 SWAP2 DUP3 DUP3 DIV ADD SWAP2 SWAP1 MOD SWAP1 SLOAD SWAP1 PUSH2 0x100 EXP SWAP1 DIV PUSH1 0xFF AND ISZERO JUMPDEST ISZERO PUSH2 0x775 JUMPI PUSH1 0x2 PUSH0 ADD PUSH0 PUSH1 0x2 DUP2 LT PUSH2 0x70C JUMPI PUSH2 0x70B PUSH2 0x16D9 JUMP JUMPDEST JUMPDEST ADD PUSH0 SWAP1 SLOAD SWAP1 PUSH2 0x100 EXP SWAP1 DIV PUSH20 0xFFFFFFFFFFFFFFFFFFFFFFFFFFFFFFFFFFFFFFFF AND PUSH20 0xFFFFFFFFFFFFFFFFFFFFFFFFFFFFFFFFFFFFFFFF AND PUSH2 0x8FC SELFBALANCE SWAP1 DUP2 ISZERO MUL SWAP1 PUSH1 0x40 MLOAD PUSH0 PUSH1 0x40 MLOAD DUP1 DUP4 SUB DUP2 DUP6 DUP9 DUP9 CALL SWAP4 POP POP POP POP ISZERO DUP1 ISZERO PUSH2 0x76F JUMPI RETURNDATASIZE PUSH0 DUP1 RETURNDATACOPY RETURNDATASIZE PUSH0 REVERT JUMPDEST POP PUSH2 0x95F JUMP JUMPDEST PUSH1 0x2 PUSH1 0x9 ADD PUSH1 0x1 PUSH1 0x2 DUP2 LT PUSH2 0x78D JUMPI PUSH2 0x78C PUSH2 0x16D9 JUMP JUMPDEST JUMPDEST PUSH1 0x20 SWAP2 DUP3 DUP3 DIV ADD SWAP2 SWAP1 MOD SWAP1 SLOAD SWAP1 PUSH2 0x100 EXP SWAP1 DIV PUSH1 0xFF AND DUP1 ISZERO PUSH2 0x7D9 JUMPI POP PUSH1 0x2 PUSH1 0x9 ADD PUSH0 PUSH1 0x2 DUP2 LT PUSH2 0x7C1 JUMPI PUSH2 0x7C0 PUSH2 0x16D9 JUMP JUMPDEST JUMPDEST PUSH1 0x20 SWAP2 DUP3 DUP3 DIV ADD SWAP2 SWAP1 MOD SWAP1 SLOAD SWAP1 PUSH2 0x100 EXP SWAP1 DIV PUSH1 0xFF AND ISZERO JUMPDEST ISZERO PUSH2 0x85E JUMPI PUSH1 0x2 PUSH0 ADD PUSH1 0x1 PUSH1 0x2 DUP2 LT PUSH2 0x7F5 JUMPI PUSH2 0x7F4 PUSH2 0x16D9 JUMP JUMPDEST JUMPDEST ADD PUSH0 SWAP1 SLOAD SWAP1 PUSH2 0x100 EXP SWAP1 DIV PUSH20 0xFFFFFFFFFFFFFFFFFFFFFFFFFFFFFFFFFFFFFFFF AND PUSH20 0xFFFFFFFFFFFFFFFFFFFFFFFFFFFFFFFFFFFFFFFF AND PUSH2 0x8FC SELFBALANCE SWAP1 DUP2 ISZERO MUL SWAP1 PUSH1 0x40 MLOAD PUSH0 PUSH1 0x40 MLOAD DUP1 DUP4 SUB DUP2 DUP6 DUP9 DUP9 CALL SWAP4 POP POP POP POP ISZERO DUP1 ISZERO PUSH2 0x858 JUMPI RETURNDATASIZE PUSH0 DUP1 RETURNDATACOPY RETURNDATASIZE PUSH0 REVERT JUMPDEST POP PUSH2 0x95E JUMP JUMPDEST PUSH1 0x2 PUSH0 ADD PUSH0 PUSH1 0x2 DUP2 LT PUSH2 0x874 JUMPI PUSH2 0x873 PUSH2 0x16D9 JUMP JUMPDEST JUMPDEST ADD PUSH0 SWAP1 SLOAD SWAP1 PUSH2 0x100 EXP SWAP1 DIV PUSH20 0xFFFFFFFFFFFFFFFFFFFFFFFFFFFFFFFFFFFFFFFF AND PUSH20 0xFFFFFFFFFFFFFFFFFFFFFFFFFFFFFFFFFFFFFFFF AND PUSH2 0x8FC PUSH1 0x2 PUSH1 0x6 ADD SLOAD SWAP1 DUP2 ISZERO MUL SWAP1 PUSH1 0x40 MLOAD PUSH0 PUSH1 0x40 MLOAD DUP1 DUP4 SUB DUP2 DUP6 DUP9 DUP9 CALL SWAP4 POP POP POP POP ISZERO DUP1 ISZERO PUSH2 0x8DC JUMPI RETURNDATASIZE PUSH0 DUP1 RETURNDATACOPY RETURNDATASIZE PUSH0 REVERT JUMPDEST POP PUSH1 0x2 PUSH0 ADD PUSH1 0x1 PUSH1 0x2 DUP2 LT PUSH2 0x8F4 JUMPI PUSH2 0x8F3 PUSH2 0x16D9 JUMP JUMPDEST JUMPDEST ADD PUSH0 SWAP1 SLOAD SWAP1 PUSH2 0x100 EXP SWAP1 DIV PUSH20 0xFFFFFFFFFFFFFFFFFFFFFFFFFFFFFFFFFFFFFFFF AND PUSH20 0xFFFFFFFFFFFFFFFFFFFFFFFFFFFFFFFFFFFFFFFF AND PUSH2 0x8FC PUSH1 0x2 PUSH1 0x6 ADD SLOAD SWAP1 DUP2 ISZERO MUL SWAP1 PUSH1 0x40 MLOAD PUSH0 PUSH1 0x40 MLOAD DUP1 DUP4 SUB DUP2 DUP6 DUP9 DUP9 CALL SWAP4 POP POP POP POP ISZERO DUP1 ISZERO PUSH2 0x95C JUMPI RETURNDATASIZE PUSH0 DUP1 RETURNDATACOPY RETURNDATASIZE PUSH0 REVERT JUMPDEST POP JUMPDEST JUMPDEST JUMPDEST CALLER PUSH20 0xFFFFFFFFFFFFFFFFFFFFFFFFFFFFFFFFFFFFFFFF AND PUSH32 0x71B8D288B6B795CD40378095D6A9C6466EB4A081C0238DFD691B0B1F5868F180 PUSH1 0x40 MLOAD PUSH1 0x40 MLOAD DUP1 SWAP2 SUB SWAP1 LOG2 PUSH2 0x9AB PUSH2 0x1266 JUMP JUMPDEST JUMP JUMPDEST PUSH1 0x1 PUSH0 SWAP1 SLOAD SWAP1 PUSH2 0x100 EXP SWAP1 DIV PUSH20 0xFFFFFFFFFFFFFFFFFFFFFFFFFFFFFFFFFFFFFFFF AND DUP2 JUMP JUMPDEST TIMESTAMP PUSH0 DUP2 SWAP1 SSTORE POP JUMP JUMPDEST PUSH0 DUP1 SLOAD TIMESTAMP PUSH2 0x9E8 SWAP2 SWAP1 PUSH2 0x186B JUMP JUMPDEST SWAP1 POP SWAP1 JUMP JUMPDEST PUSH1 0xC PUSH0 CALLER PUSH20 0xFFFFFFFFFFFFFFFFFFFFFFFFFFFFFFFFFFFFFFFF AND PUSH20 0xFFFFFFFFFFFFFFFFFFFFFFFFFFFFFFFFFFFFFFFF AND DUP2 MSTORE PUSH1 0x20 ADD SWAP1 DUP2 MSTORE PUSH1 0x20 ADD PUSH0 KECCAK256 PUSH0 SWAP1 SLOAD SWAP1 PUSH2 0x100 EXP SWAP1 DIV PUSH1 0xFF AND PUSH2 0xA76 JUMPI PUSH1 0x40 MLOAD PUSH32 0x8C379A000000000000000000000000000000000000000000000000000000000 DUP2 MSTORE PUSH1 0x4 ADD PUSH2 0xA6D SWAP1 PUSH2 0x18E8 JUMP JUMPDEST PUSH1 0x40 MLOAD DUP1 SWAP2 SUB SWAP1 REVERT JUMPDEST PUSH8 0xDE0B6B3A7640000 CALLVALUE EQ PUSH2 0xAC0 JUMPI PUSH1 0x40 MLOAD PUSH32 0x8C379A000000000000000000000000000000000000000000000000000000000 DUP2 MSTORE PUSH1 0x4 ADD PUSH2 0xAB7 SWAP1 PUSH2 0x1950 JUMP JUMPDEST PUSH1 0x40 MLOAD DUP1 SWAP2 SUB SWAP1 REVERT JUMPDEST PUSH0 PUSH20 0xFFFFFFFFFFFFFFFFFFFFFFFFFFFFFFFFFFFFFFFF AND PUSH1 0x2 PUSH0 ADD PUSH0 PUSH1 0x2 DUP2 LT PUSH2 0xAED JUMPI PUSH2 0xAEC PUSH2 0x16D9 JUMP JUMPDEST JUMPDEST ADD PUSH0 SWAP1 SLOAD SWAP1 PUSH2 0x100 EXP SWAP1 DIV PUSH20 0xFFFFFFFFFFFFFFFFFFFFFFFFFFFFFFFFFFFFFFFF AND PUSH20 0xFFFFFFFFFFFFFFFFFFFFFFFFFFFFFFFFFFFFFFFF AND EQ DUP1 PUSH2 0xB92 JUMPI POP PUSH0 PUSH20 0xFFFFFFFFFFFFFFFFFFFFFFFFFFFFFFFFFFFFFFFF AND PUSH1 0x2 PUSH0 ADD PUSH1 0x1 PUSH1 0x2 DUP2 LT PUSH2 0xB59 JUMPI PUSH2 0xB58 PUSH2 0x16D9 JUMP JUMPDEST JUMPDEST ADD PUSH0 SWAP1 SLOAD SWAP1 PUSH2 0x100 EXP SWAP1 DIV PUSH20 0xFFFFFFFFFFFFFFFFFFFFFFFFFFFFFFFFFFFFFFFF AND PUSH20 0xFFFFFFFFFFFFFFFFFFFFFFFFFFFFFFFFFFFFFFFF AND EQ JUMPDEST PUSH2 0xBD1 JUMPI PUSH1 0x40 MLOAD PUSH32 0x8C379A000000000000000000000000000000000000000000000000000000000 DUP2 MSTORE PUSH1 0x4 ADD PUSH2 0xBC8 SWAP1 PUSH2 0x19B8 JUMP JUMPDEST PUSH1 0x40 MLOAD DUP1 SWAP2 SUB SWAP1 REVERT JUMPDEST PUSH0 PUSH20 0xFFFFFFFFFFFFFFFFFFFFFFFFFFFFFFFFFFFFFFFF AND PUSH1 0x2 PUSH0 ADD PUSH0 PUSH1 0x2 DUP2 LT PUSH2 0xBFE JUMPI PUSH2 0xBFD PUSH2 0x16D9 JUMP JUMPDEST JUMPDEST ADD PUSH0 SWAP1 SLOAD SWAP1 PUSH2 0x100 EXP SWAP1 DIV PUSH20 0xFFFFFFFFFFFFFFFFFFFFFFFFFFFFFFFFFFFFFFFF AND PUSH20 0xFFFFFFFFFFFFFFFFFFFFFFFFFFFFFFFFFFFFFFFF AND SUB PUSH2 0xD3E JUMPI CALLER PUSH1 0x2 PUSH0 ADD PUSH0 PUSH1 0x2 DUP2 LT PUSH2 0xC51 JUMPI PUSH2 0xC50 PUSH2 0x16D9 JUMP JUMPDEST JUMPDEST ADD PUSH0 PUSH2 0x100 EXP DUP2 SLOAD DUP2 PUSH20 0xFFFFFFFFFFFFFFFFFFFFFFFFFFFFFFFFFFFFFFFF MUL NOT AND SWAP1 DUP4 PUSH20 0xFFFFFFFFFFFFFFFFFFFFFFFFFFFFFFFFFFFFFFFF AND MUL OR SWAP1 SSTORE POP DUP1 PUSH1 0x2 DUP1 ADD PUSH0 PUSH1 0x2 DUP2 LT PUSH2 0xCA6 JUMPI PUSH2 0xCA5 PUSH2 0x16D9 JUMP JUMPDEST JUMPDEST ADD DUP2 SWAP1 SSTORE POP CALLVALUE PUSH1 0x2 PUSH1 0x6 ADD DUP2 SWAP1 SSTORE POP PUSH2 0x12C TIMESTAMP PUSH2 0xCC3 SWAP2 SWAP1 PUSH2 0x19D6 JUMP JUMPDEST PUSH1 0x2 PUSH1 0x7 ADD DUP2 SWAP1 SSTORE POP PUSH1 0x1 DUP1 PUSH1 0x14 PUSH2 0x100 EXP DUP2 SLOAD DUP2 PUSH1 0xFF MUL NOT AND SWAP1 DUP4 PUSH1 0x2 DUP2 GT ISZERO PUSH2 0xCF1 JUMPI PUSH2 0xCF0 PUSH2 0x14D4 JUMP JUMPDEST JUMPDEST MUL OR SWAP1 SSTORE POP CALLER PUSH20 0xFFFFFFFFFFFFFFFFFFFFFFFFFFFFFFFFFFFFFFFF AND PUSH32 0x67CF7F1535E1C1323FE4E76266F7D55F0C1F67FDF449DB65E014F9D35881514D PUSH1 0x40 MLOAD PUSH1 0x40 MLOAD DUP1 SWAP2 SUB SWAP1 LOG2 PUSH2 0xDF4 JUMP JUMPDEST CALLER PUSH1 0x2 PUSH0 ADD PUSH1 0x1 PUSH1 0x2 DUP2 LT PUSH2 0xD56 JUMPI PUSH2 0xD55 PUSH2 0x16D9 JUMP JUMPDEST JUMPDEST ADD PUSH0 PUSH2 0x100 EXP DUP2 SLOAD DUP2 PUSH20 0xFFFFFFFFFFFFFFFFFFFFFFFFFFFFFFFFFFFFFFFF MUL NOT AND SWAP1 DUP4 PUSH20 0xFFFFFFFFFFFFFFFFFFFFFFFFFFFFFFFFFFFFFFFF AND MUL OR SWAP1 SSTORE POP DUP1 PUSH1 0x2 DUP1 ADD PUSH1 0x1 PUSH1 0x2 DUP2 LT PUSH2 0xDAC JUMPI PUSH2 0xDAB PUSH2 0x16D9 JUMP JUMPDEST JUMPDEST ADD DUP2 SWAP1 SSTORE POP PUSH2 0x12C TIMESTAMP PUSH2 0xDBF SWAP2 SWAP1 PUSH2 0x19D6 JUMP JUMPDEST PUSH1 0x2 PUSH1 0x8 ADD DUP2 SWAP1 SSTORE POP PUSH1 0x2 PUSH1 0x1 PUSH1 0x14 PUSH2 0x100 EXP DUP2 SLOAD DUP2 PUSH1 0xFF MUL NOT AND SWAP1 DUP4 PUSH1 0x2 DUP2 GT ISZERO PUSH2 0xDEE JUMPI PUSH2 0xDED PUSH2 0x14D4 JUMP JUMPDEST JUMPDEST MUL OR SWAP1 SSTORE POP JUMPDEST CALLER PUSH20 0xFFFFFFFFFFFFFFFFFFFFFFFFFFFFFFFFFFFFFFFF AND PUSH32 0x385D85909904C479680CFB49104DD25DD686A79A13B842E5AB5F1FAB8FA0FB2A PUSH1 0x40 MLOAD PUSH1 0x40 MLOAD DUP1 SWAP2 SUB SWAP1 LOG2 POP JUMP JUMPDEST PUSH1 0x1 PUSH1 0x14 SWAP1 SLOAD SWAP1 PUSH2 0x100 EXP SWAP1 DIV PUSH1 0xFF AND DUP2 JUMP JUMPDEST PUSH0 PUSH1 0x3C PUSH0 SLOAD TIMESTAMP PUSH2 0xE5D SWAP2 SWAP1 PUSH2 0x186B JUMP JUMPDEST PUSH2 0xE67 SWAP2 SWAP1 PUSH2 0x1A36 JUMP JUMPDEST SWAP1 POP SWAP1 JUMP JUMPDEST PUSH1 0xC PUSH1 0x20 MSTORE DUP1 PUSH0 MSTORE PUSH1 0x40 PUSH0 KECCAK256 PUSH0 SWAP2 POP SLOAD SWAP1 PUSH2 0x100 EXP SWAP1 DIV PUSH1 0xFF AND DUP2 JUMP JUMPDEST PUSH0 DUP3 DUP3 PUSH1 0x40 MLOAD PUSH1 0x20 ADD PUSH2 0xE9D SWAP3 SWAP2 SWAP1 PUSH2 0x1AA6 JUMP JUMPDEST PUSH1 0x40 MLOAD PUSH1 0x20 DUP2 DUP4 SUB SUB DUP2 MSTORE SWAP1 PUSH1 0x40 MSTORE DUP1 MLOAD SWAP1 PUSH1 0x20 ADD KECCAK256 SWAP1 POP SWAP3 SWAP2 POP POP JUMP JUMPDEST PUSH0 PUSH1 0x2 PUSH1 0x4 ADD PUSH0 PUSH1 0x2 DUP2 LT PUSH2 0xED3 JUMPI PUSH2 0xED2 PUSH2 0x16D9 JUMP JUMPDEST JUMPDEST ADD SLOAD SWAP1 POP PUSH0 PUSH1 0x2 PUSH1 0x4 ADD PUSH1 0x1 PUSH1 0x2 DUP2 LT PUSH2 0xEF0 JUMPI PUSH2 0xEEF PUSH2 0x16D9 JUMP JUMPDEST JUMPDEST ADD SLOAD SWAP1 POP PUSH0 PUSH1 0x40 MLOAD DUP1 PUSH1 0x40 ADD PUSH1 0x40 MSTORE DUP1 PUSH1 0x2 PUSH0 ADD PUSH0 PUSH1 0x2 DUP2 LT PUSH2 0xF16 JUMPI PUSH2 0xF15 PUSH2 0x16D9 JUMP JUMPDEST JUMPDEST ADD PUSH0 SWAP1 SLOAD SWAP1 PUSH2 0x100 EXP SWAP1 DIV PUSH20 0xFFFFFFFFFFFFFFFFFFFFFFFFFFFFFFFFFFFFFFFF AND PUSH20 0xFFFFFFFFFFFFFFFFFFFFFFFFFFFFFFFFFFFFFFFF AND PUSH20 0xFFFFFFFFFFFFFFFFFFFFFFFFFFFFFFFFFFFFFFFF AND DUP2 MSTORE PUSH1 0x20 ADD PUSH1 0x2 PUSH0 ADD PUSH1 0x1 PUSH1 0x2 DUP2 LT PUSH2 0xF7F JUMPI PUSH2 0xF7E PUSH2 0x16D9 JUMP JUMPDEST JUMPDEST ADD PUSH0 SWAP1 SLOAD SWAP1 PUSH2 0x100 EXP SWAP1 DIV PUSH20 0xFFFFFFFFFFFFFFFFFFFFFFFFFFFFFFFFFFFFFFFF AND PUSH20 0xFFFFFFFFFFFFFFFFFFFFFFFFFFFFFFFFFFFFFFFF AND PUSH20 0xFFFFFFFFFFFFFFFFFFFFFFFFFFFFFFFFFFFFFFFF AND DUP2 MSTORE POP SWAP1 POP PUSH0 PUSH1 0x5 DUP1 DUP5 DUP7 PUSH2 0xFE1 SWAP2 SWAP1 PUSH2 0x186B JUMP JUMPDEST PUSH2 0xFEB SWAP2 SWAP1 PUSH2 0x19D6 JUMP JUMPDEST PUSH2 0xFF5 SWAP2 SWAP1 PUSH2 0x1AD1 JUMP JUMPDEST SWAP1 POP PUSH1 0x1 DUP2 EQ DUP1 PUSH2 0x1006 JUMPI POP PUSH1 0x3 DUP2 EQ JUMPDEST ISZERO PUSH2 0x10C5 JUMPI DUP2 PUSH0 PUSH1 0x2 DUP2 LT PUSH2 0x101E JUMPI PUSH2 0x101D PUSH2 0x16D9 JUMP JUMPDEST JUMPDEST PUSH1 0x20 MUL ADD MLOAD PUSH20 0xFFFFFFFFFFFFFFFFFFFFFFFFFFFFFFFFFFFFFFFF AND PUSH2 0x8FC SELFBALANCE SWAP1 DUP2 ISZERO MUL SWAP1 PUSH1 0x40 MLOAD PUSH0 PUSH1 0x40 MLOAD DUP1 DUP4 SUB DUP2 DUP6 DUP9 DUP9 CALL SWAP4 POP POP POP POP ISZERO DUP1 ISZERO PUSH2 0x1065 JUMPI RETURNDATASIZE PUSH0 DUP1 RETURNDATACOPY RETURNDATASIZE PUSH0 REVERT JUMPDEST POP DUP2 PUSH0 PUSH1 0x2 DUP2 LT PUSH2 0x1079 JUMPI PUSH2 0x1078 PUSH2 0x16D9 JUMP JUMPDEST JUMPDEST PUSH1 0x20 MUL ADD MLOAD PUSH20 0xFFFFFFFFFFFFFFFFFFFFFFFFFFFFFFFFFFFFFFFF AND PUSH32 0x745C90B656B4AAFE296C8CA35AEACFE56CB96C90E1D320E5DA643FFF1051B6C0 PUSH1 0x40 MLOAD PUSH1 0x40 MLOAD DUP1 SWAP2 SUB SWAP1 LOG2 PUSH2 0x1258 JUMP JUMPDEST PUSH1 0x2 DUP2 EQ DUP1 PUSH2 0x10D4 JUMPI POP PUSH1 0x4 DUP2 EQ JUMPDEST ISZERO PUSH2 0x1195 JUMPI DUP2 PUSH1 0x1 PUSH1 0x2 DUP2 LT PUSH2 0x10ED JUMPI PUSH2 0x10EC PUSH2 0x16D9 JUMP JUMPDEST JUMPDEST PUSH1 0x20 MUL ADD MLOAD PUSH20 0xFFFFFFFFFFFFFFFFFFFFFFFFFFFFFFFFFFFFFFFF AND PUSH2 0x8FC SELFBALANCE SWAP1 DUP2 ISZERO MUL SWAP1 PUSH1 0x40 MLOAD PUSH0 PUSH1 0x40 MLOAD DUP1 DUP4 SUB DUP2 DUP6 DUP9 DUP9 CALL SWAP4 POP POP POP POP ISZERO DUP1 ISZERO PUSH2 0x1134 JUMPI RETURNDATASIZE PUSH0 DUP1 RETURNDATACOPY RETURNDATASIZE PUSH0 REVERT JUMPDEST POP DUP2 PUSH1 0x1 PUSH1 0x2 DUP2 LT PUSH2 0x1149 JUMPI PUSH2 0x1148 PUSH2 0x16D9 JUMP JUMPDEST JUMPDEST PUSH1 0x20 MUL ADD MLOAD PUSH20 0xFFFFFFFFFFFFFFFFFFFFFFFFFFFFFFFFFFFFFFFF AND PUSH32 0x745C90B656B4AAFE296C8CA35AEACFE56CB96C90E1D320E5DA643FFF1051B6C0 PUSH1 0x40 MLOAD PUSH1 0x40 MLOAD DUP1 SWAP2 SUB SWAP1 LOG2 PUSH2 0x1257 JUMP JUMPDEST DUP2 PUSH0 PUSH1 0x2 DUP2 LT PUSH2 0x11A8 JUMPI PUSH2 0x11A7 PUSH2 0x16D9 JUMP JUMPDEST JUMPDEST PUSH1 0x20 MUL ADD MLOAD PUSH20 0xFFFFFFFFFFFFFFFFFFFFFFFFFFFFFFFFFFFFFFFF AND PUSH2 0x8FC PUSH1 0x2 PUSH1 0x6 ADD SLOAD SWAP1 DUP2 ISZERO MUL SWAP1 PUSH1 0x40 MLOAD PUSH0 PUSH1 0x40 MLOAD DUP1 DUP4 SUB DUP2 DUP6 DUP9 DUP9 CALL SWAP4 POP POP POP POP ISZERO DUP1 ISZERO PUSH2 0x11F4 JUMPI RETURNDATASIZE PUSH0 DUP1 RETURNDATACOPY RETURNDATASIZE PUSH0 REVERT JUMPDEST POP DUP2 PUSH1 0x1 PUSH1 0x2 DUP2 LT PUSH2 0x1209 JUMPI PUSH2 0x1208 PUSH2 0x16D9 JUMP JUMPDEST JUMPDEST PUSH1 0x20 MUL ADD MLOAD PUSH20 0xFFFFFFFFFFFFFFFFFFFFFFFFFFFFFFFFFFFFFFFF AND PUSH2 0x8FC PUSH1 0x2 PUSH1 0x6 ADD SLOAD SWAP1 DUP2 ISZERO MUL SWAP1 PUSH1 0x40 MLOAD PUSH0 PUSH1 0x40 MLOAD DUP1 DUP4 SUB DUP2 DUP6 DUP9 DUP9 CALL SWAP4 POP POP POP POP ISZERO DUP1 ISZERO PUSH2 0x1255 JUMPI RETURNDATASIZE PUSH0 DUP1 RETURNDATACOPY RETURNDATASIZE PUSH0 REVERT JUMPDEST POP JUMPDEST JUMPDEST PUSH2 0x1260 PUSH2 0x1266 JUMP JUMPDEST POP POP POP POP JUMP JUMPDEST PUSH1 0x2 PUSH0 DUP1 DUP3 ADD PUSH0 PUSH2 0x1277 SWAP2 SWAP1 PUSH2 0x12E7 JUMP JUMPDEST PUSH1 0x2 DUP3 ADD PUSH0 PUSH2 0x1286 SWAP2 SWAP1 PUSH2 0x12F3 JUMP JUMPDEST PUSH1 0x4 DUP3 ADD PUSH0 PUSH2 0x1295 SWAP2 SWAP1 PUSH2 0x12FF JUMP JUMPDEST PUSH1 0x6 DUP3 ADD PUSH0 SWAP1 SSTORE PUSH1 0x7 DUP3 ADD PUSH0 SWAP1 SSTORE PUSH1 0x8 DUP3 ADD PUSH0 SWAP1 SSTORE PUSH1 0x9 DUP3 ADD PUSH0 PUSH2 0x12B9 SWAP2 SWAP1 PUSH2 0x130B JUMP JUMPDEST POP POP PUSH0 PUSH1 0x1 PUSH1 0x14 PUSH2 0x100 EXP DUP2 SLOAD DUP2 PUSH1 0xFF MUL NOT AND SWAP1 DUP4 PUSH1 0x2 DUP2 GT ISZERO PUSH2 0x12E0 JUMPI PUSH2 0x12DF PUSH2 0x14D4 JUMP JUMPDEST JUMPDEST MUL OR SWAP1 SSTORE POP JUMP JUMPDEST POP PUSH0 DUP2 SSTORE PUSH1 0x1 ADD PUSH0 SWAP1 SSTORE JUMP JUMPDEST POP PUSH0 DUP2 SSTORE PUSH1 0x1 ADD PUSH0 SWAP1 SSTORE JUMP JUMPDEST POP PUSH0 DUP2 SSTORE PUSH1 0x1 ADD PUSH0 SWAP1 SSTORE JUMP JUMPDEST POP PUSH0 SWAP1 SSTORE JUMP JUMPDEST PUSH0 DUP2 SWAP1 POP SWAP2 SWAP1 POP JUMP JUMPDEST PUSH2 0x1323 DUP2 PUSH2 0x1311 JUMP JUMPDEST DUP3 MSTORE POP POP JUMP JUMPDEST PUSH0 PUSH1 0x60 DUP3 ADD SWAP1 POP PUSH2 0x133C PUSH0 DUP4 ADD DUP7 PUSH2 0x131A JUMP JUMPDEST PUSH2 0x1349 PUSH1 0x20 DUP4 ADD DUP6 PUSH2 0x131A JUMP JUMPDEST PUSH2 0x1356 PUSH1 0x40 DUP4 ADD DUP5 PUSH2 0x131A JUMP JUMPDEST SWAP5 SWAP4 POP POP POP POP JUMP JUMPDEST PUSH0 PUSH1 0x20 DUP3 ADD SWAP1 POP PUSH2 0x1371 PUSH0 DUP4 ADD DUP5 PUSH2 0x131A JUMP JUMPDEST SWAP3 SWAP2 POP POP JUMP JUMPDEST PUSH0 DUP1 REVERT JUMPDEST PUSH2 0x1384 DUP2 PUSH2 0x1311 JUMP JUMPDEST DUP2 EQ PUSH2 0x138E JUMPI PUSH0 DUP1 REVERT JUMPDEST POP JUMP JUMPDEST PUSH0 DUP2 CALLDATALOAD SWAP1 POP PUSH2 0x139F DUP2 PUSH2 0x137B JUMP JUMPDEST SWAP3 SWAP2 POP POP JUMP JUMPDEST PUSH0 DUP2 SWAP1 POP SWAP2 SWAP1 POP JUMP JUMPDEST PUSH2 0x13B7 DUP2 PUSH2 0x13A5 JUMP JUMPDEST DUP2 EQ PUSH2 0x13C1 JUMPI PUSH0 DUP1 REVERT JUMPDEST POP JUMP JUMPDEST PUSH0 DUP2 CALLDATALOAD SWAP1 POP PUSH2 0x13D2 DUP2 PUSH2 0x13AE JUMP JUMPDEST SWAP3 SWAP2 POP POP JUMP JUMPDEST PUSH0 DUP1 PUSH1 0x40 DUP4 DUP6 SUB SLT ISZERO PUSH2 0x13EE JUMPI PUSH2 0x13ED PUSH2 0x1377 JUMP JUMPDEST JUMPDEST PUSH0 PUSH2 0x13FB DUP6 DUP3 DUP7 ADD PUSH2 0x1391 JUMP JUMPDEST SWAP3 POP POP PUSH1 0x20 PUSH2 0x140C DUP6 DUP3 DUP7 ADD PUSH2 0x13C4 JUMP JUMPDEST SWAP2 POP POP SWAP3 POP SWAP3 SWAP1 POP JUMP JUMPDEST PUSH0 PUSH20 0xFFFFFFFFFFFFFFFFFFFFFFFFFFFFFFFFFFFFFFFF DUP3 AND SWAP1 POP SWAP2 SWAP1 POP JUMP JUMPDEST PUSH0 DUP2 SWAP1 POP SWAP2 SWAP1 POP JUMP JUMPDEST PUSH0 PUSH2 0x1458 PUSH2 0x1453 PUSH2 0x144E DUP5 PUSH2 0x1416 JUMP JUMPDEST PUSH2 0x1435 JUMP JUMPDEST PUSH2 0x1416 JUMP JUMPDEST SWAP1 POP SWAP2 SWAP1 POP JUMP JUMPDEST PUSH0 PUSH2 0x1469 DUP3 PUSH2 0x143E JUMP JUMPDEST SWAP1 POP SWAP2 SWAP1 POP JUMP JUMPDEST PUSH0 PUSH2 0x147A DUP3 PUSH2 0x145F JUMP JUMPDEST SWAP1 POP SWAP2 SWAP1 POP JUMP JUMPDEST PUSH2 0x148A DUP2 PUSH2 0x1470 JUMP JUMPDEST DUP3 MSTORE POP POP JUMP JUMPDEST PUSH0 PUSH1 0x20 DUP3 ADD SWAP1 POP PUSH2 0x14A3 PUSH0 DUP4 ADD DUP5 PUSH2 0x1481 JUMP JUMPDEST SWAP3 SWAP2 POP POP JUMP JUMPDEST PUSH0 PUSH1 0x20 DUP3 DUP5 SUB SLT ISZERO PUSH2 0x14BE JUMPI PUSH2 0x14BD PUSH2 0x1377 JUMP JUMPDEST JUMPDEST PUSH0 PUSH2 0x14CB DUP5 DUP3 DUP6 ADD PUSH2 0x13C4 JUMP JUMPDEST SWAP2 POP POP SWAP3 SWAP2 POP POP JUMP JUMPDEST PUSH32 0x4E487B7100000000000000000000000000000000000000000000000000000000 PUSH0 MSTORE PUSH1 0x21 PUSH1 0x4 MSTORE PUSH1 0x24 PUSH0 REVERT JUMPDEST PUSH1 0x3 DUP2 LT PUSH2 0x1512 JUMPI PUSH2 0x1511 PUSH2 0x14D4 JUMP JUMPDEST JUMPDEST POP JUMP JUMPDEST PUSH0 DUP2 SWAP1 POP PUSH2 0x1522 DUP3 PUSH2 0x1501 JUMP JUMPDEST SWAP2 SWAP1 POP JUMP JUMPDEST PUSH0 PUSH2 0x1531 DUP3 PUSH2 0x1515 JUMP JUMPDEST SWAP1 POP SWAP2 SWAP1 POP JUMP JUMPDEST PUSH2 0x1541 DUP2 PUSH2 0x1527 JUMP JUMPDEST DUP3 MSTORE POP POP JUMP JUMPDEST PUSH0 PUSH1 0x20 DUP3 ADD SWAP1 POP PUSH2 0x155A PUSH0 DUP4 ADD DUP5 PUSH2 0x1538 JUMP JUMPDEST SWAP3 SWAP2 POP POP JUMP JUMPDEST PUSH0 PUSH2 0x156A DUP3 PUSH2 0x1416 JUMP JUMPDEST SWAP1 POP SWAP2 SWAP1 POP JUMP JUMPDEST PUSH2 0x157A DUP2 PUSH2 0x1560 JUMP JUMPDEST DUP2 EQ PUSH2 0x1584 JUMPI PUSH0 DUP1 REVERT JUMPDEST POP JUMP JUMPDEST PUSH0 DUP2 CALLDATALOAD SWAP1 POP PUSH2 0x1595 DUP2 PUSH2 0x1571 JUMP JUMPDEST SWAP3 SWAP2 POP POP JUMP JUMPDEST PUSH0 PUSH1 0x20 DUP3 DUP5 SUB SLT ISZERO PUSH2 0x15B0 JUMPI PUSH2 0x15AF PUSH2 0x1377 JUMP JUMPDEST JUMPDEST PUSH0 PUSH2 0x15BD DUP5 DUP3 DUP6 ADD PUSH2 0x1587 JUMP JUMPDEST SWAP2 POP POP SWAP3 SWAP2 POP POP JUMP JUMPDEST PUSH0 DUP2 ISZERO ISZERO SWAP1 POP SWAP2 SWAP1 POP JUMP JUMPDEST PUSH2 0x15DA DUP2 PUSH2 0x15C6 JUMP JUMPDEST DUP3 MSTORE POP POP JUMP JUMPDEST PUSH0 PUSH1 0x20 DUP3 ADD SWAP1 POP PUSH2 0x15F3 PUSH0 DUP4 ADD DUP5 PUSH2 0x15D1 JUMP JUMPDEST SWAP3 SWAP2 POP POP JUMP JUMPDEST PUSH0 DUP3 DUP3 MSTORE PUSH1 0x20 DUP3 ADD SWAP1 POP SWAP3 SWAP2 POP POP JUMP JUMPDEST PUSH32 0x4E6F7420696E2072657665616C20706861736500000000000000000000000000 PUSH0 DUP3 ADD MSTORE POP JUMP JUMPDEST PUSH0 PUSH2 0x163D PUSH1 0x13 DUP4 PUSH2 0x15F9 JUMP JUMPDEST SWAP2 POP PUSH2 0x1648 DUP3 PUSH2 0x1609 JUMP JUMPDEST PUSH1 0x20 DUP3 ADD SWAP1 POP SWAP2 SWAP1 POP JUMP JUMPDEST PUSH0 PUSH1 0x20 DUP3 ADD SWAP1 POP DUP2 DUP2 SUB PUSH0 DUP4 ADD MSTORE PUSH2 0x166A DUP2 PUSH2 0x1631 JUMP JUMPDEST SWAP1 POP SWAP2 SWAP1 POP JUMP JUMPDEST PUSH32 0x496E76616C69642063686F696365000000000000000000000000000000000000 PUSH0 DUP3 ADD MSTORE POP JUMP JUMPDEST PUSH0 PUSH2 0x16A5 PUSH1 0xE DUP4 PUSH2 0x15F9 JUMP JUMPDEST SWAP2 POP PUSH2 0x16B0 DUP3 PUSH2 0x1671 JUMP JUMPDEST PUSH1 0x20 DUP3 ADD SWAP1 POP SWAP2 SWAP1 POP JUMP JUMPDEST PUSH0 PUSH1 0x20 DUP3 ADD SWAP1 POP DUP2 DUP2 SUB PUSH0 DUP4 ADD MSTORE PUSH2 0x16D2 DUP2 PUSH2 0x1699 JUMP JUMPDEST SWAP1 POP SWAP2 SWAP1 POP JUMP JUMPDEST PUSH32 0x4E487B7100000000000000000000000000000000000000000000000000000000 PUSH0 MSTORE PUSH1 0x32 PUSH1 0x4 MSTORE PUSH1 0x24 PUSH0 REVERT JUMPDEST PUSH32 0x416C72656164792072657665616C656400000000000000000000000000000000 PUSH0 DUP3 ADD MSTORE POP JUMP JUMPDEST PUSH0 PUSH2 0x173A PUSH1 0x10 DUP4 PUSH2 0x15F9 JUMP JUMPDEST SWAP2 POP PUSH2 0x1745 DUP3 PUSH2 0x1706 JUMP JUMPDEST PUSH1 0x20 DUP3 ADD SWAP1 POP SWAP2 SWAP1 POP JUMP JUMPDEST PUSH0 PUSH1 0x20 DUP3 ADD SWAP1 POP DUP2 DUP2 SUB PUSH0 DUP4 ADD MSTORE PUSH2 0x1767 DUP2 PUSH2 0x172E JUMP JUMPDEST SWAP1 POP SWAP2 SWAP1 POP JUMP JUMPDEST PUSH32 0x496E76616C69642072657665616C000000000000000000000000000000000000 PUSH0 DUP3 ADD MSTORE POP JUMP JUMPDEST PUSH0 PUSH2 0x17A2 PUSH1 0xE DUP4 PUSH2 0x15F9 JUMP JUMPDEST SWAP2 POP PUSH2 0x17AD DUP3 PUSH2 0x176E JUMP JUMPDEST PUSH1 0x20 DUP3 ADD SWAP1 POP SWAP2 SWAP1 POP JUMP JUMPDEST PUSH0 PUSH1 0x20 DUP3 ADD SWAP1 POP DUP2 DUP2 SUB PUSH0 DUP4 ADD MSTORE PUSH2 0x17CF DUP2 PUSH2 0x1796 JUMP JUMPDEST SWAP1 POP SWAP2 SWAP1 POP JUMP JUMPDEST PUSH32 0x546F6F206561726C790000000000000000000000000000000000000000000000 PUSH0 DUP3 ADD MSTORE POP JUMP JUMPDEST PUSH0 PUSH2 0x180A PUSH1 0x9 DUP4 PUSH2 0x15F9 JUMP JUMPDEST SWAP2 POP PUSH2 0x1815 DUP3 PUSH2 0x17D6 JUMP JUMPDEST PUSH1 0x20 DUP3 ADD SWAP1 POP SWAP2 SWAP1 POP JUMP JUMPDEST PUSH0 PUSH1 0x20 DUP3 ADD SWAP1 POP DUP2 DUP2 SUB PUSH0 DUP4 ADD MSTORE PUSH2 0x1837 DUP2 PUSH2 0x17FE JUMP JUMPDEST SWAP1 POP SWAP2 SWAP1 POP JUMP JUMPDEST PUSH32 0x4E487B7100000000000000000000000000000000000000000000000000000000 PUSH0 MSTORE PUSH1 0x11 PUSH1 0x4 MSTORE PUSH1 0x24 PUSH0 REVERT JUMPDEST PUSH0 PUSH2 0x1875 DUP3 PUSH2 0x1311 JUMP JUMPDEST SWAP2 POP PUSH2 0x1880 DUP4 PUSH2 0x1311 JUMP JUMPDEST SWAP3 POP DUP3 DUP3 SUB SWAP1 POP DUP2 DUP2 GT ISZERO PUSH2 0x1898 JUMPI PUSH2 0x1897 PUSH2 0x183E JUMP JUMPDEST JUMPDEST SWAP3 SWAP2 POP POP JUMP JUMPDEST PUSH32 0x41646472657373206E6F7420616C6C6F77656400000000000000000000000000 PUSH0 DUP3 ADD MSTORE POP JUMP JUMPDEST PUSH0 PUSH2 0x18D2 PUSH1 0x13 DUP4 PUSH2 0x15F9 JUMP JUMPDEST SWAP2 POP PUSH2 0x18DD DUP3 PUSH2 0x189E JUMP JUMPDEST PUSH1 0x20 DUP3 ADD SWAP1 POP SWAP2 SWAP1 POP JUMP JUMPDEST PUSH0 PUSH1 0x20 DUP3 ADD SWAP1 POP DUP2 DUP2 SUB PUSH0 DUP4 ADD MSTORE PUSH2 0x18FF DUP2 PUSH2 0x18C6 JUMP JUMPDEST SWAP1 POP SWAP2 SWAP1 POP JUMP JUMPDEST PUSH32 0x5374616B65206D75737420626520312045544800000000000000000000000000 PUSH0 DUP3 ADD MSTORE POP JUMP JUMPDEST PUSH0 PUSH2 0x193A PUSH1 0x13 DUP4 PUSH2 0x15F9 JUMP JUMPDEST SWAP2 POP PUSH2 0x1945 DUP3 PUSH2 0x1906 JUMP JUMPDEST PUSH1 0x20 DUP3 ADD SWAP1 POP SWAP2 SWAP1 POP JUMP JUMPDEST PUSH0 PUSH1 0x20 DUP3 ADD SWAP1 POP DUP2 DUP2 SUB PUSH0 DUP4 ADD MSTORE PUSH2 0x1967 DUP2 PUSH2 0x192E JUMP JUMPDEST SWAP1 POP SWAP2 SWAP1 POP JUMP JUMPDEST PUSH32 0x47616D652066756C6C0000000000000000000000000000000000000000000000 PUSH0 DUP3 ADD MSTORE POP JUMP JUMPDEST PUSH0 PUSH2 0x19A2 PUSH1 0x9 DUP4 PUSH2 0x15F9 JUMP JUMPDEST SWAP2 POP PUSH2 0x19AD DUP3 PUSH2 0x196E JUMP JUMPDEST PUSH1 0x20 DUP3 ADD SWAP1 POP SWAP2 SWAP1 POP JUMP JUMPDEST PUSH0 PUSH1 0x20 DUP3 ADD SWAP1 POP DUP2 DUP2 SUB PUSH0 DUP4 ADD MSTORE PUSH2 0x19CF DUP2 PUSH2 0x1996 JUMP JUMPDEST SWAP1 POP SWAP2 SWAP1 POP JUMP JUMPDEST PUSH0 PUSH2 0x19E0 DUP3 PUSH2 0x1311 JUMP JUMPDEST SWAP2 POP PUSH2 0x19EB DUP4 PUSH2 0x1311 JUMP JUMPDEST SWAP3 POP DUP3 DUP3 ADD SWAP1 POP DUP1 DUP3 GT ISZERO PUSH2 0x1A03 JUMPI PUSH2 0x1A02 PUSH2 0x183E JUMP JUMPDEST JUMPDEST SWAP3 SWAP2 POP POP JUMP JUMPDEST PUSH32 0x4E487B7100000000000000000000000000000000000000000000000000000000 PUSH0 MSTORE PUSH1 0x12 PUSH1 0x4 MSTORE PUSH1 0x24 PUSH0 REVERT JUMPDEST PUSH0 PUSH2 0x1A40 DUP3 PUSH2 0x1311 JUMP JUMPDEST SWAP2 POP PUSH2 0x1A4B DUP4 PUSH2 0x1311 JUMP JUMPDEST SWAP3 POP DUP3 PUSH2 0x1A5B JUMPI PUSH2 0x1A5A PUSH2 0x1A09 JUMP JUMPDEST JUMPDEST DUP3 DUP3 DIV SWAP1 POP SWAP3 SWAP2 POP POP JUMP JUMPDEST PUSH0 DUP2 SWAP1 POP SWAP2 SWAP1 POP JUMP JUMPDEST PUSH2 0x1A80 PUSH2 0x1A7B DUP3 PUSH2 0x1311 JUMP JUMPDEST PUSH2 0x1A66 JUMP JUMPDEST DUP3 MSTORE POP POP JUMP JUMPDEST PUSH0 DUP2 SWAP1 POP SWAP2 SWAP1 POP JUMP JUMPDEST PUSH2 0x1AA0 PUSH2 0x1A9B DUP3 PUSH2 0x13A5 JUMP JUMPDEST PUSH2 0x1A86 JUMP JUMPDEST DUP3 MSTORE POP POP JUMP JUMPDEST PUSH0 PUSH2 0x1AB1 DUP3 DUP6 PUSH2 0x1A6F JUMP JUMPDEST PUSH1 0x20 DUP3 ADD SWAP2 POP PUSH2 0x1AC1 DUP3 DUP5 PUSH2 0x1A8F JUMP JUMPDEST PUSH1 0x20 DUP3 ADD SWAP2 POP DUP2 SWAP1 POP SWAP4 SWAP3 POP POP POP JUMP JUMPDEST PUSH0 PUSH2 0x1ADB DUP3 PUSH2 0x1311 JUMP JUMPDEST SWAP2 POP PUSH2 0x1AE6 DUP4 PUSH2 0x1311 JUMP JUMPDEST SWAP3 POP DUP3 PUSH2 0x1AF6 JUMPI PUSH2 0x1AF5 PUSH2 0x1A09 JUMP JUMPDEST JUMPDEST DUP3 DUP3 MOD SWAP1 POP SWAP3 SWAP2 POP POP JUMP INVALID LOG2 PUSH5 0x6970667358 0x22 SLT KECCAK256 0xC0 0x4D 0xDA DUP7 BASEFEE DUP1 DUP10 PUSH23 0xC9732BD2FE845422C559CFCCD054C89C98CDD6227FE170 SWAP6 PUSH5 0x736F6C6343 STOP ADDMOD BYTE STOP CALLER "
		},
		"gasEstimates": {
			"creation": {
				"codeDepositCost": "1393400",
				"executionCost": "infinite",
				"totalCost": "infinite"
			},
			"external": {
				"allowedPlayers(address)": "2943",
				"commitReveal()": "infinite",
				"currentGame()": "infinite",
				"elapsedMinutes()": "infinite",
				"elapsedSeconds()": "infinite",
				"gameState()": "2671",
				"joinGame(bytes32)": "infinite",
				"revealChoice(uint256,bytes32)": "infinite",
				"setStartTime()": "22255",
				"startTime()": "2447",
				"withdrawTimeout()": "infinite"
			},
			"internal": {
				"_determineWinner()": "infinite",
				"_resetGame()": "74621"
			}
		},
		"methodIdentifiers": {
			"allowedPlayers(address)": "e84ebc29",
			"commitReveal()": "9d7b3f2d",
			"currentGame()": "60b663bb",
			"elapsedMinutes()": "d97c8416",
			"elapsedSeconds()": "bc06b8cd",
			"gameState()": "d1f9c24d",
			"joinGame(bytes32)": "bf474766",
			"revealChoice(uint256,bytes32)": "8c10bb96",
			"setStartTime()": "a63f7c53",
			"startTime()": "78e97925",
			"withdrawTimeout()": "9c15d1a2"
		}
	},
	"abi": [
		{
			"inputs": [
				{
					"internalType": "address",
					"name": "_commitReveal",
					"type": "address"
				}
			],
			"stateMutability": "nonpayable",
			"type": "constructor"
		},
		{
			"anonymous": false,
			"inputs": [
				{
					"indexed": true,
					"internalType": "address",
					"name": "player",
					"type": "address"
				}
			],
			"name": "Committed",
			"type": "event"
		},
		{
			"anonymous": false,
			"inputs": [
				{
					"indexed": true,
					"internalType": "address",
					"name": "player",
					"type": "address"
				}
			],
			"name": "GameStarted",
			"type": "event"
		},
		{
			"anonymous": false,
			"inputs": [
				{
					"indexed": true,
					"internalType": "address",
					"name": "player",
					"type": "address"
				}
			],
			"name": "Revealed",
			"type": "event"
		},
		{
			"anonymous": false,
			"inputs": [
				{
					"indexed": true,
					"internalType": "address",
					"name": "caller",
					"type": "address"
				}
			],
			"name": "Timeout",
			"type": "event"
		},
		{
			"anonymous": false,
			"inputs": [
				{
					"indexed": true,
					"internalType": "address",
					"name": "winner",
					"type": "address"
				}
			],
			"name": "Winner",
			"type": "event"
		},
		{
			"inputs": [
				{
					"internalType": "address",
					"name": "",
					"type": "address"
				}
			],
			"name": "allowedPlayers",
			"outputs": [
				{
					"internalType": "bool",
					"name": "",
					"type": "bool"
				}
			],
			"stateMutability": "view",
			"type": "function"
		},
		{
			"inputs": [],
			"name": "commitReveal",
			"outputs": [
				{
					"internalType": "contract CommitReveal",
					"name": "",
					"type": "address"
				}
			],
			"stateMutability": "view",
			"type": "function"
		},
		{
			"inputs": [],
			"name": "currentGame",
			"outputs": [
				{
					"internalType": "uint256",
					"name": "stake",
					"type": "uint256"
				},
				{
					"internalType": "uint256",
					"name": "commitDeadline",
					"type": "uint256"
				},
				{
					"internalType": "uint256",
					"name": "revealDeadline",
					"type": "uint256"
				}
			],
			"stateMutability": "view",
			"type": "function"
		},
		{
			"inputs": [],
			"name": "elapsedMinutes",
			"outputs": [
				{
					"internalType": "uint256",
					"name": "",
					"type": "uint256"
				}
			],
			"stateMutability": "view",
			"type": "function"
		},
		{
			"inputs": [],
			"name": "elapsedSeconds",
			"outputs": [
				{
					"internalType": "uint256",
					"name": "",
					"type": "uint256"
				}
			],
			"stateMutability": "view",
			"type": "function"
		},
		{
			"inputs": [],
			"name": "gameState",
			"outputs": [
				{
					"internalType": "enum RPSLS.GameState",
					"name": "",
					"type": "uint8"
				}
			],
			"stateMutability": "view",
			"type": "function"
		},
		{
			"inputs": [
				{
					"internalType": "bytes32",
					"name": "commitHash",
					"type": "bytes32"
				}
			],
			"name": "joinGame",
			"outputs": [],
			"stateMutability": "payable",
			"type": "function"
		},
		{
			"inputs": [
				{
					"internalType": "uint256",
					"name": "choice",
					"type": "uint256"
				},
				{
					"internalType": "bytes32",
					"name": "nonce",
					"type": "bytes32"
				}
			],
			"name": "revealChoice",
			"outputs": [],
			"stateMutability": "nonpayable",
			"type": "function"
		},
		{
			"inputs": [],
			"name": "setStartTime",
			"outputs": [],
			"stateMutability": "nonpayable",
			"type": "function"
		},
		{
			"inputs": [],
			"name": "startTime",
			"outputs": [
				{
					"internalType": "uint256",
					"name": "",
					"type": "uint256"
				}
			],
			"stateMutability": "view",
			"type": "function"
		},
		{
			"inputs": [],
			"name": "withdrawTimeout",
			"outputs": [],
			"stateMutability": "nonpayable",
			"type": "function"
		}
	]
}